{"contracts/Domains.sol":{"Domains":{"abi":[{"inputs":[{"internalType":"string","name":"_tld","type":"string"}],"stateMutability":"payable","type":"constructor"},{"inputs":[{"internalType":"string","name":"","type":"string"}],"name":"AVAX","outputs":[{"internalType":"string","name":"","type":"string"}],"stateMutability":"view","type":"function"},{"inputs":[{"internalType":"string","name":"","type":"string"}],"name":"BNB","outputs":[{"internalType":"string","name":"","type":"string"}],"stateMutability":"view","type":"function"},{"inputs":[{"internalType":"string","name":"","type":"string"}],"name":"BTC","outputs":[{"internalType":"string","name":"","type":"string"}],"stateMutability":"view","type":"function"},{"inputs":[{"internalType":"string","name":"","type":"string"}],"name":"ETH","outputs":[{"internalType":"string","name":"","type":"string"}],"stateMutability":"view","type":"function"},{"inputs":[{"internalType":"string","name":"","type":"string"}],"name":"Instagram","outputs":[{"internalType":"string","name":"","type":"string"}],"stateMutability":"view","type":"function"},{"inputs":[{"internalType":"string","name":"","type":"string"}],"name":"OpenSea","outputs":[{"internalType":"string","name":"","type":"string"}],"stateMutability":"view","type":"function"},{"inputs":[{"internalType":"string","name":"","type":"string"}],"name":"Other1","outputs":[{"internalType":"string","name":"","type":"string"}],"stateMutability":"view","type":"function"},{"inputs":[{"internalType":"string","name":"","type":"string"}],"name":"Other2","outputs":[{"internalType":"string","name":"","type":"string"}],"stateMutability":"view","type":"function"},{"inputs":[{"internalType":"string","name":"","type":"string"}],"name":"Other3","outputs":[{"internalType":"string","name":"","type":"string"}],"stateMutability":"view","type":"function"},{"inputs":[{"internalType":"string","name":"","type":"string"}],"name":"Reddit","outputs":[{"internalType":"string","name":"","type":"string"}],"stateMutability":"view","type":"function"},{"inputs":[{"internalType":"string","name":"","type":"string"}],"name":"SOL","outputs":[{"internalType":"string","name":"","type":"string"}],"stateMutability":"view","type":"function"},{"inputs":[{"internalType":"string","name":"","type":"string"}],"name":"TRX","outputs":[{"internalType":"string","name":"","type":"string"}],"stateMutability":"view","type":"function"},{"inputs":[{"internalType":"string","name":"","type":"string"}],"name":"Web2Url","outputs":[{"internalType":"string","name":"","type":"string"}],"stateMutability":"view","type":"function"},{"inputs":[{"internalType":"string","name":"","type":"string"}],"name":"YouTube","outputs":[{"internalType":"string","name":"","type":"string"}],"stateMutability":"view","type":"function"},{"inputs":[{"internalType":"string","name":"","type":"string"}],"name":"domains","outputs":[{"internalType":"address","name":"","type":"address"}],"stateMutability":"view","type":"function"},{"inputs":[{"internalType":"string","name":"name","type":"string"}],"name":"getAVAX","outputs":[{"internalType":"string","name":"","type":"string"}],"stateMutability":"view","type":"function"},{"inputs":[{"internalType":"string","name":"name","type":"string"}],"name":"getAddress","outputs":[{"internalType":"address","name":"","type":"address"}],"stateMutability":"view","type":"function"},{"inputs":[{"internalType":"string","name":"name","type":"string"}],"name":"getBNB","outputs":[{"internalType":"string","name":"","type":"string"}],"stateMutability":"view","type":"function"},{"inputs":[{"internalType":"string","name":"name","type":"string"}],"name":"getBTC","outputs":[{"internalType":"string","name":"","type":"string"}],"stateMutability":"view","type":"function"},{"inputs":[{"internalType":"string","name":"name","type":"string"}],"name":"getETH","outputs":[{"internalType":"string","name":"","type":"string"}],"stateMutability":"view","type":"function"},{"inputs":[{"internalType":"string","name":"name","type":"string"}],"name":"getInstagram","outputs":[{"internalType":"string","name":"","type":"string"}],"stateMutability":"view","type":"function"},{"inputs":[{"internalType":"string","name":"name","type":"string"}],"name":"getOpenSea","outputs":[{"internalType":"string","name":"","type":"string"}],"stateMutability":"view","type":"function"},{"inputs":[{"internalType":"string","name":"name","type":"string"}],"name":"getOther1","outputs":[{"internalType":"string","name":"","type":"string"}],"stateMutability":"view","type":"function"},{"inputs":[{"internalType":"string","name":"name","type":"string"}],"name":"getOther2","outputs":[{"internalType":"string","name":"","type":"string"}],"stateMutability":"view","type":"function"},{"inputs":[{"internalType":"string","name":"name","type":"string"}],"name":"getOther3","outputs":[{"internalType":"string","name":"","type":"string"}],"stateMutability":"view","type":"function"},{"inputs":[{"internalType":"string","name":"name","type":"string"}],"name":"getRecord","outputs":[{"internalType":"string","name":"","type":"string"}],"stateMutability":"view","type":"function"},{"inputs":[{"internalType":"string","name":"name","type":"string"}],"name":"getReddit","outputs":[{"internalType":"string","name":"","type":"string"}],"stateMutability":"view","type":"function"},{"inputs":[{"internalType":"string","name":"name","type":"string"}],"name":"getSOL","outputs":[{"internalType":"string","name":"","type":"string"}],"stateMutability":"view","type":"function"},{"inputs":[{"internalType":"string","name":"name","type":"string"}],"name":"getTRX","outputs":[{"internalType":"string","name":"","type":"string"}],"stateMutability":"view","type":"function"},{"inputs":[{"internalType":"string","name":"name","type":"string"}],"name":"getTwitter","outputs":[{"internalType":"string","name":"","type":"string"}],"stateMutability":"view","type":"function"},{"inputs":[{"internalType":"string","name":"name","type":"string"}],"name":"getWeb2Url","outputs":[{"internalType":"string","name":"","type":"string"}],"stateMutability":"view","type":"function"},{"inputs":[{"internalType":"string","name":"name","type":"string"}],"name":"getYouTube","outputs":[{"internalType":"string","name":"","type":"string"}],"stateMutability":"view","type":"function"},{"inputs":[{"internalType":"string","name":"name","type":"string"}],"name":"price","outputs":[{"internalType":"uint256","name":"","type":"uint256"}],"stateMutability":"pure","type":"function"},{"inputs":[{"internalType":"string","name":"","type":"string"}],"name":"records","outputs":[{"internalType":"string","name":"","type":"string"}],"stateMutability":"view","type":"function"},{"inputs":[{"internalType":"string","name":"name","type":"string"}],"name":"register","outputs":[],"stateMutability":"payable","type":"function"},{"inputs":[{"internalType":"string","name":"name","type":"string"},{"internalType":"string","name":"record","type":"string"}],"name":"setAVAX","outputs":[],"stateMutability":"nonpayable","type":"function"},{"inputs":[{"internalType":"string","name":"name","type":"string"},{"internalType":"string","name":"record","type":"string"}],"name":"setBNB","outputs":[],"stateMutability":"nonpayable","type":"function"},{"inputs":[{"internalType":"string","name":"name","type":"string"},{"internalType":"string","name":"record","type":"string"}],"name":"setBTC","outputs":[],"stateMutability":"nonpayable","type":"function"},{"inputs":[{"internalType":"string","name":"name","type":"string"},{"internalType":"string","name":"record","type":"string"}],"name":"setETH","outputs":[],"stateMutability":"nonpayable","type":"function"},{"inputs":[{"internalType":"string","name":"name","type":"string"},{"internalType":"string","name":"record","type":"string"}],"name":"setInstagram","outputs":[],"stateMutability":"nonpayable","type":"function"},{"inputs":[{"internalType":"string","name":"name","type":"string"},{"internalType":"string","name":"record","type":"string"}],"name":"setOpenSea","outputs":[],"stateMutability":"nonpayable","type":"function"},{"inputs":[{"internalType":"string","name":"name","type":"string"},{"internalType":"string","name":"record","type":"string"}],"name":"setOther1","outputs":[],"stateMutability":"nonpayable","type":"function"},{"inputs":[{"internalType":"string","name":"name","type":"string"},{"internalType":"string","name":"record","type":"string"}],"name":"setOther2","outputs":[],"stateMutability":"nonpayable","type":"function"},{"inputs":[{"internalType":"string","name":"name","type":"string"},{"internalType":"string","name":"record","type":"string"}],"name":"setOther3","outputs":[],"stateMutability":"nonpayable","type":"function"},{"inputs":[{"internalType":"string","name":"name","type":"string"},{"internalType":"string","name":"record","type":"string"}],"name":"setRecord","outputs":[],"stateMutability":"nonpayable","type":"function"},{"inputs":[{"internalType":"string","name":"name","type":"string"},{"internalType":"string","name":"record","type":"string"}],"name":"setReddit","outputs":[],"stateMutability":"nonpayable","type":"function"},{"inputs":[{"internalType":"string","name":"name","type":"string"},{"internalType":"string","name":"record","type":"string"}],"name":"setSOL","outputs":[],"stateMutability":"nonpayable","type":"function"},{"inputs":[{"internalType":"string","name":"name","type":"string"},{"internalType":"string","name":"record","type":"string"}],"name":"setTRX","outputs":[],"stateMutability":"nonpayable","type":"function"},{"inputs":[{"internalType":"string","name":"name","type":"string"},{"internalType":"string","name":"record","type":"string"}],"name":"setTwitter","outputs":[],"stateMutability":"nonpayable","type":"function"},{"inputs":[{"internalType":"string","name":"name","type":"string"},{"internalType":"string","name":"record","type":"string"}],"name":"setWeb2Url","outputs":[],"stateMutability":"nonpayable","type":"function"},{"inputs":[{"internalType":"string","name":"name","type":"string"},{"internalType":"string","name":"record","type":"string"}],"name":"setYouTube","outputs":[],"stateMutability":"nonpayable","type":"function"},{"inputs":[],"name":"tld","outputs":[{"internalType":"string","name":"","type":"string"}],"stateMutability":"view","type":"function"},{"inputs":[{"internalType":"string","name":"","type":"string"}],"name":"twitter","outputs":[{"internalType":"string","name":"","type":"string"}],"stateMutability":"view","type":"function"}],"evm":{"bytecode":{"linkReferences":{},"object":"60806040526040516200462a3803806200462a8339818101604052810190620000299190620002f0565b80601190816200003a91906200058c565b50620000876040518060400160405280601881526020017f2573206e616d652073657276696365206465706c6f7965640000000000000000815250826200008e60201b620032ef1760201c565b5062000700565b620001308282604051602401620000a7929190620006c5565b6040516020818303038152906040527f4b5c4277000000000000000000000000000000000000000000000000000000007bffffffffffffffffffffffffffffffffffffffffffffffffffffffff19166020820180517bffffffffffffffffffffffffffffffffffffffffffffffffffffffff83818316178352505050506200013460201b60201c565b5050565b60008151905060006a636f6e736f6c652e6c6f679050602083016000808483855afa5050505050565b6000604051905090565b600080fd5b600080fd5b600080fd5b600080fd5b6000601f19601f8301169050919050565b7f4e487b7100000000000000000000000000000000000000000000000000000000600052604160045260246000fd5b620001c6826200017b565b810181811067ffffffffffffffff82111715620001e857620001e76200018c565b5b80604052505050565b6000620001fd6200015d565b90506200020b8282620001bb565b919050565b600067ffffffffffffffff8211156200022e576200022d6200018c565b5b62000239826200017b565b9050602081019050919050565b60005b838110156200026657808201518184015260208101905062000249565b60008484015250505050565b600062000289620002838462000210565b620001f1565b905082815260208101848484011115620002a857620002a762000176565b5b620002b584828562000246565b509392505050565b600082601f830112620002d557620002d462000171565b5b8151620002e784826020860162000272565b91505092915050565b60006020828403121562000309576200030862000167565b5b600082015167ffffffffffffffff8111156200032a57620003296200016c565b5b6200033884828501620002bd565b91505092915050565b600081519050919050565b7f4e487b7100000000000000000000000000000000000000000000000000000000600052602260045260246000fd5b600060028204905060018216806200039457607f821691505b602082108103620003aa57620003a96200034c565b5b50919050565b60008190508160005260206000209050919050565b60006020601f8301049050919050565b600082821b905092915050565b600060088302620004147fffffffffffffffffffffffffffffffffffffffffffffffffffffffffffffffff82620003d5565b620004208683620003d5565b95508019841693508086168417925050509392505050565b6000819050919050565b6000819050919050565b60006200046d62000467620004618462000438565b62000442565b62000438565b9050919050565b6000819050919050565b62000489836200044c565b620004a1620004988262000474565b848454620003e2565b825550505050565b600090565b620004b8620004a9565b620004c58184846200047e565b505050565b5b81811015620004ed57620004e1600082620004ae565b600181019050620004cb565b5050565b601f8211156200053c576200050681620003b0565b6200051184620003c5565b8101602085101562000521578190505b620005396200053085620003c5565b830182620004ca565b50505b505050565b600082821c905092915050565b6000620005616000198460080262000541565b1980831691505092915050565b60006200057c83836200054e565b9150826002028217905092915050565b620005978262000341565b67ffffffffffffffff811115620005b357620005b26200018c565b5b620005bf82546200037b565b620005cc828285620004f1565b600060209050601f831160018114620006045760008415620005ef578287015190505b620005fb85826200056e565b8655506200066b565b601f1984166200061486620003b0565b60005b828110156200063e5784890151825560018201915060208501945060208101905062000617565b868310156200065e57848901516200065a601f8916826200054e565b8355505b6001600288020188555050505b505050505050565b600082825260208201905092915050565b6000620006918262000341565b6200069d818562000673565b9350620006af81856020860162000246565b620006ba816200017b565b840191505092915050565b60006040820190508181036000830152620006e1818562000684565b90508181036020830152620006f7818462000684565b90509392505050565b613f1a80620007106000396000f3fe60806040526004361061031a5760003560e01c80638c56cb7e116101ab578063dbc17566116100f7578063f2c298be11610095578063fc89b1181161006f578063fc89b11814610d81578063fc8b560f14610dbe578063fdd46c3814610de7578063fe2c619814610e105761031a565b8063f2c298be14610cff578063f509f67414610d1b578063f6963f8314610d445761031a565b8063e163942c116100d1578063e163942c14610c1f578063e8a3af9514610c5c578063e9654af914610c99578063f0296f1614610cd65761031a565b8063dbc1756614610b68578063dcb12e6514610ba5578063dff2507314610be25761031a565b8063a6525f0811610164578063b87a6e981161013e578063b87a6e9814610a9c578063bf40fac114610ac5578063c1880a9814610b02578063d9888d7414610b2b5761031a565b8063a6525f0814610a21578063aa587ae514610a4a578063b60debd814610a735761031a565b80638c56cb7e146108b357806390825a20146108f057806392f7424f1461092d5780639a471b991461096a5780639fb374a4146109a7578063a42863a1146109e45761031a565b80634441d4061161026a5780635ea36eec1161022357806375c0cd4e116101fd57806375c0cd4e146107bf57806377144abc146107fc5780637ea0db511461083957806389318a21146108765761031a565b80635ea36eec1461071c5780635f359b0514610745578063688d8828146107825761031a565b80634441d406146105c25780634d009f3d146105ff578063510a40871461062857806353e69abc14610665578063541e771d146106a2578063545faf06146106df5761031a565b806326449235116102d757806339ef619e116102b157806339ef619e146104f65780633ab05493146105335780633b6e1c97146105705780633fc38637146105995761031a565b806326449235146104515780632d5514321461048e5780632f9dd1b6146104b95761031a565b80630daf27e21461031f57806311303cd71461034857806311dd88451461037157806314e21f50146103ae5780631e616113146103d757806322149d7914610414575b600080fd5b34801561032b57600080fd5b506103466004803603810190610341919061367e565b610e4d565b005b34801561035457600080fd5b5061036f600480360381019061036a919061367e565b610efb565b005b34801561037d57600080fd5b50610398600480360381019061039391906136ff565b610fa9565b6040516103a591906137dc565b60405180910390f35b3480156103ba57600080fd5b506103d560048036038101906103d0919061367e565b61105c565b005b3480156103e357600080fd5b506103fe60048036038101906103f9919061392e565b61110a565b60405161040b91906137dc565b60405180910390f35b34801561042057600080fd5b5061043b6004803603810190610436919061392e565b6111c0565b60405161044891906137dc565b60405180910390f35b34801561045d57600080fd5b506104786004803603810190610473919061392e565b611276565b60405161048591906139b8565b60405180910390f35b34801561049a57600080fd5b506104a36112bf565b6040516104b091906137dc565b60405180910390f35b3480156104c557600080fd5b506104e060048036038101906104db91906136ff565b61134d565b6040516104ed91906137dc565b60405180910390f35b34801561050257600080fd5b5061051d600480360381019061051891906136ff565b611400565b60405161052a91906137dc565b60405180910390f35b34801561053f57600080fd5b5061055a6004803603810190610555919061392e565b6114b3565b60405161056791906137dc565b60405180910390f35b34801561057c57600080fd5b506105976004803603810190610592919061367e565b611569565b005b3480156105a557600080fd5b506105c060048036038101906105bb919061367e565b611617565b005b3480156105ce57600080fd5b506105e960048036038101906105e491906136ff565b6116c5565b6040516105f691906137dc565b60405180910390f35b34801561060b57600080fd5b506106266004803603810190610621919061367e565b611778565b005b34801561063457600080fd5b5061064f600480360381019061064a91906136ff565b611826565b60405161065c91906137dc565b60405180910390f35b34801561067157600080fd5b5061068c600480360381019061068791906136ff565b6118d9565b60405161069991906137dc565b60405180910390f35b3480156106ae57600080fd5b506106c960048036038101906106c4919061392e565b61198c565b6040516106d691906137dc565b60405180910390f35b3480156106eb57600080fd5b506107066004803603810190610701919061392e565b611a42565b60405161071391906137dc565b60405180910390f35b34801561072857600080fd5b50610743600480360381019061073e919061367e565b611af8565b005b34801561075157600080fd5b5061076c600480360381019061076791906136ff565b611ba6565b60405161077991906137dc565b60405180910390f35b34801561078e57600080fd5b506107a960048036038101906107a491906136ff565b611c59565b6040516107b691906137dc565b60405180910390f35b3480156107cb57600080fd5b506107e660048036038101906107e191906136ff565b611d0c565b6040516107f391906137dc565b60405180910390f35b34801561080857600080fd5b50610823600480360381019061081e919061392e565b611dbf565b60405161083091906137dc565b60405180910390f35b34801561084557600080fd5b50610860600480360381019061085b91906136ff565b611e75565b60405161086d91906137dc565b60405180910390f35b34801561088257600080fd5b5061089d600480360381019061089891906136ff565b611f28565b6040516108aa91906137dc565b60405180910390f35b3480156108bf57600080fd5b506108da60048036038101906108d5919061392e565b611fdb565b6040516108e791906137dc565b60405180910390f35b3480156108fc57600080fd5b50610917600480360381019061091291906136ff565b612091565b60405161092491906137dc565b60405180910390f35b34801561093957600080fd5b50610954600480360381019061094f919061392e565b612144565b60405161096191906137dc565b60405180910390f35b34801561097657600080fd5b50610991600480360381019061098c919061392e565b6121fa565b60405161099e91906137dc565b60405180910390f35b3480156109b357600080fd5b506109ce60048036038101906109c9919061392e565b6122b0565b6040516109db91906137dc565b60405180910390f35b3480156109f057600080fd5b50610a0b6004803603810190610a0691906136ff565b612366565b604051610a1891906137dc565b60405180910390f35b348015610a2d57600080fd5b50610a486004803603810190610a43919061367e565b612419565b005b348015610a5657600080fd5b50610a716004803603810190610a6c919061367e565b6124c7565b005b348015610a7f57600080fd5b50610a9a6004803603810190610a95919061367e565b612575565b005b348015610aa857600080fd5b50610ac36004803603810190610abe919061367e565b612623565b005b348015610ad157600080fd5b50610aec6004803603810190610ae791906136ff565b6126d1565b604051610af991906139b8565b60405180910390f35b348015610b0e57600080fd5b50610b296004803603810190610b24919061367e565b61271b565b005b348015610b3757600080fd5b50610b526004803603810190610b4d91906136ff565b6127c9565b604051610b5f91906137dc565b60405180910390f35b348015610b7457600080fd5b50610b8f6004803603810190610b8a919061392e565b61287c565b604051610b9c91906137dc565b60405180910390f35b348015610bb157600080fd5b50610bcc6004803603810190610bc7919061392e565b612932565b604051610bd991906137dc565b60405180910390f35b348015610bee57600080fd5b50610c096004803603810190610c04919061392e565b6129e8565b604051610c1691906137dc565b60405180910390f35b348015610c2b57600080fd5b50610c466004803603810190610c4191906136ff565b612a9e565b604051610c5391906137dc565b60405180910390f35b348015610c6857600080fd5b50610c836004803603810190610c7e91906136ff565b612b51565b604051610c9091906137dc565b60405180910390f35b348015610ca557600080fd5b50610cc06004803603810190610cbb919061392e565b612c04565b604051610ccd91906137dc565b60405180910390f35b348015610ce257600080fd5b50610cfd6004803603810190610cf8919061367e565b612cba565b005b610d196004803603810190610d1491906136ff565b612d68565b005b348015610d2757600080fd5b50610d426004803603810190610d3d919061367e565b612ed5565b005b348015610d5057600080fd5b50610d6b6004803603810190610d66919061392e565b612f83565b604051610d7891906137dc565b60405180910390f35b348015610d8d57600080fd5b50610da86004803603810190610da3919061392e565b613039565b604051610db591906137dc565b60405180910390f35b348015610dca57600080fd5b50610de56004803603810190610de0919061367e565b6130ef565b005b348015610df357600080fd5b50610e0e6004803603810190610e09919061367e565b61319d565b005b348015610e1c57600080fd5b50610e376004803603810190610e3291906136ff565b61324b565b604051610e4491906139ec565b60405180910390f35b3373ffffffffffffffffffffffffffffffffffffffff1660008585604051610e76929190613a37565b908152602001604051809103902060009054906101000a900473ffffffffffffffffffffffffffffffffffffffff1673ffffffffffffffffffffffffffffffffffffffff1614610ec557600080fd5b818160098686604051610ed9929190613a37565b90815260200160405180910390209182610ef4929190613c67565b5050505050565b3373ffffffffffffffffffffffffffffffffffffffff1660008585604051610f24929190613a37565b908152602001604051809103902060009054906101000a900473ffffffffffffffffffffffffffffffffffffffff1673ffffffffffffffffffffffffffffffffffffffff1614610f7357600080fd5b818160088686604051610f87929190613a37565b90815260200160405180910390209182610fa2929190613c67565b5050505050565b606060018383604051610fbd929190613a37565b90815260200160405180910390208054610fd690613a8a565b80601f016020809104026020016040519081016040528092919081815260200182805461100290613a8a565b801561104f5780601f106110245761010080835404028352916020019161104f565b820191906000526020600020905b81548152906001019060200180831161103257829003601f168201915b5050505050905092915050565b3373ffffffffffffffffffffffffffffffffffffffff1660008585604051611085929190613a37565b908152602001604051809103902060009054906101000a900473ffffffffffffffffffffffffffffffffffffffff1673ffffffffffffffffffffffffffffffffffffffff16146110d457600080fd5b8181601086866040516110e8929190613a37565b90815260200160405180910390209182611103929190613c67565b5050505050565b600681805160208101820180518482526020830160208501208183528095505050505050600091509050805461113f90613a8a565b80601f016020809104026020016040519081016040528092919081815260200182805461116b90613a8a565b80156111b85780601f1061118d576101008083540402835291602001916111b8565b820191906000526020600020905b81548152906001019060200180831161119b57829003601f168201915b505050505081565b600c8180516020810182018051848252602083016020850120818352809550505050505060009150905080546111f590613a8a565b80601f016020809104026020016040519081016040528092919081815260200182805461122190613a8a565b801561126e5780601f106112435761010080835404028352916020019161126e565b820191906000526020600020905b81548152906001019060200180831161125157829003601f168201915b505050505081565b6000818051602081018201805184825260208301602085012081835280955050505050506000915054906101000a900473ffffffffffffffffffffffffffffffffffffffff1681565b601180546112cc90613a8a565b80601f01602080910402602001604051908101604052809291908181526020018280546112f890613a8a565b80156113455780601f1061131a57610100808354040283529160200191611345565b820191906000526020600020905b81548152906001019060200180831161132857829003601f168201915b505050505081565b6060600a8383604051611361929190613a37565b9081526020016040518091039020805461137a90613a8a565b80601f01602080910402602001604051908101604052809291908181526020018280546113a690613a8a565b80156113f35780601f106113c8576101008083540402835291602001916113f3565b820191906000526020600020905b8154815290600101906020018083116113d657829003601f168201915b5050505050905092915050565b606060058383604051611414929190613a37565b9081526020016040518091039020805461142d90613a8a565b80601f016020809104026020016040519081016040528092919081815260200182805461145990613a8a565b80156114a65780601f1061147b576101008083540402835291602001916114a6565b820191906000526020600020905b81548152906001019060200180831161148957829003601f168201915b5050505050905092915050565b600e8180516020810182018051848252602083016020850120818352809550505050505060009150905080546114e890613a8a565b80601f016020809104026020016040519081016040528092919081815260200182805461151490613a8a565b80156115615780601f1061153657610100808354040283529160200191611561565b820191906000526020600020905b81548152906001019060200180831161154457829003601f168201915b505050505081565b3373ffffffffffffffffffffffffffffffffffffffff1660008585604051611592929190613a37565b908152602001604051809103902060009054906101000a900473ffffffffffffffffffffffffffffffffffffffff1673ffffffffffffffffffffffffffffffffffffffff16146115e157600080fd5b8181600286866040516115f5929190613a37565b90815260200160405180910390209182611610929190613c67565b5050505050565b3373ffffffffffffffffffffffffffffffffffffffff1660008585604051611640929190613a37565b908152602001604051809103902060009054906101000a900473ffffffffffffffffffffffffffffffffffffffff1673ffffffffffffffffffffffffffffffffffffffff161461168f57600080fd5b8181600a86866040516116a3929190613a37565b908152602001604051809103902091826116be929190613c67565b5050505050565b6060600383836040516116d9929190613a37565b908152602001604051809103902080546116f290613a8a565b80601f016020809104026020016040519081016040528092919081815260200182805461171e90613a8a565b801561176b5780601f106117405761010080835404028352916020019161176b565b820191906000526020600020905b81548152906001019060200180831161174e57829003601f168201915b5050505050905092915050565b3373ffffffffffffffffffffffffffffffffffffffff16600085856040516117a1929190613a37565b908152602001604051809103902060009054906101000a900473ffffffffffffffffffffffffffffffffffffffff1673ffffffffffffffffffffffffffffffffffffffff16146117f057600080fd5b818160078686604051611804929190613a37565b9081526020016040518091039020918261181f929190613c67565b5050505050565b6060600f838360405161183a929190613a37565b9081526020016040518091039020805461185390613a8a565b80601f016020809104026020016040519081016040528092919081815260200182805461187f90613a8a565b80156118cc5780601f106118a1576101008083540402835291602001916118cc565b820191906000526020600020905b8154815290600101906020018083116118af57829003601f168201915b5050505050905092915050565b6060600283836040516118ed929190613a37565b9081526020016040518091039020805461190690613a8a565b80601f016020809104026020016040519081016040528092919081815260200182805461193290613a8a565b801561197f5780601f106119545761010080835404028352916020019161197f565b820191906000526020600020905b81548152906001019060200180831161196257829003601f168201915b5050505050905092915050565b60018180516020810182018051848252602083016020850120818352809550505050505060009150905080546119c190613a8a565b80601f01602080910402602001604051908101604052809291908181526020018280546119ed90613a8a565b8015611a3a5780601f10611a0f57610100808354040283529160200191611a3a565b820191906000526020600020905b815481529060010190602001808311611a1d57829003601f168201915b505050505081565b6003818051602081018201805184825260208301602085012081835280955050505050506000915090508054611a7790613a8a565b80601f0160208091040260200160405190810160405280929190818152602001828054611aa390613a8a565b8015611af05780601f10611ac557610100808354040283529160200191611af0565b820191906000526020600020905b815481529060010190602001808311611ad357829003601f168201915b505050505081565b3373ffffffffffffffffffffffffffffffffffffffff1660008585604051611b21929190613a37565b908152602001604051809103902060009054906101000a900473ffffffffffffffffffffffffffffffffffffffff1673ffffffffffffffffffffffffffffffffffffffff1614611b7057600080fd5b8181600f8686604051611b84929190613a37565b90815260200160405180910390209182611b9f929190613c67565b5050505050565b606060078383604051611bba929190613a37565b90815260200160405180910390208054611bd390613a8a565b80601f0160208091040260200160405190810160405280929190818152602001828054611bff90613a8a565b8015611c4c5780601f10611c2157610100808354040283529160200191611c4c565b820191906000526020600020905b815481529060010190602001808311611c2f57829003601f168201915b5050505050905092915050565b606060048383604051611c6d929190613a37565b90815260200160405180910390208054611c8690613a8a565b80601f0160208091040260200160405190810160405280929190818152602001828054611cb290613a8a565b8015611cff5780601f10611cd457610100808354040283529160200191611cff565b820191906000526020600020905b815481529060010190602001808311611ce257829003601f168201915b5050505050905092915050565b606060108383604051611d20929190613a37565b90815260200160405180910390208054611d3990613a8a565b80601f0160208091040260200160405190810160405280929190818152602001828054611d6590613a8a565b8015611db25780601f10611d8757610100808354040283529160200191611db2565b820191906000526020600020905b815481529060010190602001808311611d9557829003601f168201915b5050505050905092915050565b6009818051602081018201805184825260208301602085012081835280955050505050506000915090508054611df490613a8a565b80601f0160208091040260200160405190810160405280929190818152602001828054611e2090613a8a565b8015611e6d5780601f10611e4257610100808354040283529160200191611e6d565b820191906000526020600020905b815481529060010190602001808311611e5057829003601f168201915b505050505081565b6060600e8383604051611e89929190613a37565b90815260200160405180910390208054611ea290613a8a565b80601f0160208091040260200160405190810160405280929190818152602001828054611ece90613a8a565b8015611f1b5780601f10611ef057610100808354040283529160200191611f1b565b820191906000526020600020905b815481529060010190602001808311611efe57829003601f168201915b5050505050905092915050565b606060098383604051611f3c929190613a37565b90815260200160405180910390208054611f5590613a8a565b80601f0160208091040260200160405190810160405280929190818152602001828054611f8190613a8a565b8015611fce5780601f10611fa357610100808354040283529160200191611fce565b820191906000526020600020905b815481529060010190602001808311611fb157829003601f168201915b5050505050905092915050565b600b81805160208101820180518482526020830160208501208183528095505050505050600091509050805461201090613a8a565b80601f016020809104026020016040519081016040528092919081815260200182805461203c90613a8a565b80156120895780601f1061205e57610100808354040283529160200191612089565b820191906000526020600020905b81548152906001019060200180831161206c57829003601f168201915b505050505081565b6060600683836040516120a5929190613a37565b908152602001604051809103902080546120be90613a8a565b80601f01602080910402602001604051908101604052809291908181526020018280546120ea90613a8a565b80156121375780601f1061210c57610100808354040283529160200191612137565b820191906000526020600020905b81548152906001019060200180831161211a57829003601f168201915b5050505050905092915050565b600281805160208101820180518482526020830160208501208183528095505050505050600091509050805461217990613a8a565b80601f01602080910402602001604051908101604052809291908181526020018280546121a590613a8a565b80156121f25780601f106121c7576101008083540402835291602001916121f2565b820191906000526020600020905b8154815290600101906020018083116121d557829003601f168201915b505050505081565b600881805160208101820180518482526020830160208501208183528095505050505050600091509050805461222f90613a8a565b80601f016020809104026020016040519081016040528092919081815260200182805461225b90613a8a565b80156122a85780601f1061227d576101008083540402835291602001916122a8565b820191906000526020600020905b81548152906001019060200180831161228b57829003601f168201915b505050505081565b60078180516020810182018051848252602083016020850120818352809550505050505060009150905080546122e590613a8a565b80601f016020809104026020016040519081016040528092919081815260200182805461231190613a8a565b801561235e5780601f106123335761010080835404028352916020019161235e565b820191906000526020600020905b81548152906001019060200180831161234157829003601f168201915b505050505081565b6060600d838360405161237a929190613a37565b9081526020016040518091039020805461239390613a8a565b80601f01602080910402602001604051908101604052809291908181526020018280546123bf90613a8a565b801561240c5780601f106123e15761010080835404028352916020019161240c565b820191906000526020600020905b8154815290600101906020018083116123ef57829003601f168201915b5050505050905092915050565b3373ffffffffffffffffffffffffffffffffffffffff1660008585604051612442929190613a37565b908152602001604051809103902060009054906101000a900473ffffffffffffffffffffffffffffffffffffffff1673ffffffffffffffffffffffffffffffffffffffff161461249157600080fd5b8181600b86866040516124a5929190613a37565b908152602001604051809103902091826124c0929190613c67565b5050505050565b3373ffffffffffffffffffffffffffffffffffffffff16600085856040516124f0929190613a37565b908152602001604051809103902060009054906101000a900473ffffffffffffffffffffffffffffffffffffffff1673ffffffffffffffffffffffffffffffffffffffff161461253f57600080fd5b818160058686604051612553929190613a37565b9081526020016040518091039020918261256e929190613c67565b5050505050565b3373ffffffffffffffffffffffffffffffffffffffff166000858560405161259e929190613a37565b908152602001604051809103902060009054906101000a900473ffffffffffffffffffffffffffffffffffffffff1673ffffffffffffffffffffffffffffffffffffffff16146125ed57600080fd5b8181600e8686604051612601929190613a37565b9081526020016040518091039020918261261c929190613c67565b5050505050565b3373ffffffffffffffffffffffffffffffffffffffff166000858560405161264c929190613a37565b908152602001604051809103902060009054906101000a900473ffffffffffffffffffffffffffffffffffffffff1673ffffffffffffffffffffffffffffffffffffffff161461269b57600080fd5b8181600686866040516126af929190613a37565b908152602001604051809103902091826126ca929190613c67565b5050505050565b60008083836040516126e4929190613a37565b908152602001604051809103902060009054906101000a900473ffffffffffffffffffffffffffffffffffffffff16905092915050565b3373ffffffffffffffffffffffffffffffffffffffff1660008585604051612744929190613a37565b908152602001604051809103902060009054906101000a900473ffffffffffffffffffffffffffffffffffffffff1673ffffffffffffffffffffffffffffffffffffffff161461279357600080fd5b8181600186866040516127a7929190613a37565b908152602001604051809103902091826127c2929190613c67565b5050505050565b6060600c83836040516127dd929190613a37565b908152602001604051809103902080546127f690613a8a565b80601f016020809104026020016040519081016040528092919081815260200182805461282290613a8a565b801561286f5780601f106128445761010080835404028352916020019161286f565b820191906000526020600020905b81548152906001019060200180831161285257829003601f168201915b5050505050905092915050565b600d8180516020810182018051848252602083016020850120818352809550505050505060009150905080546128b190613a8a565b80601f01602080910402602001604051908101604052809291908181526020018280546128dd90613a8a565b801561292a5780601f106128ff5761010080835404028352916020019161292a565b820191906000526020600020905b81548152906001019060200180831161290d57829003601f168201915b505050505081565b600481805160208101820180518482526020830160208501208183528095505050505050600091509050805461296790613a8a565b80601f016020809104026020016040519081016040528092919081815260200182805461299390613a8a565b80156129e05780601f106129b5576101008083540402835291602001916129e0565b820191906000526020600020905b8154815290600101906020018083116129c357829003601f168201915b505050505081565b600f818051602081018201805184825260208301602085012081835280955050505050506000915090508054612a1d90613a8a565b80601f0160208091040260200160405190810160405280929190818152602001828054612a4990613a8a565b8015612a965780601f10612a6b57610100808354040283529160200191612a96565b820191906000526020600020905b815481529060010190602001808311612a7957829003601f168201915b505050505081565b606060088383604051612ab2929190613a37565b90815260200160405180910390208054612acb90613a8a565b80601f0160208091040260200160405190810160405280929190818152602001828054612af790613a8a565b8015612b445780601f10612b1957610100808354040283529160200191612b44565b820191906000526020600020905b815481529060010190602001808311612b2757829003601f168201915b5050505050905092915050565b6060600b8383604051612b65929190613a37565b90815260200160405180910390208054612b7e90613a8a565b80601f0160208091040260200160405190810160405280929190818152602001828054612baa90613a8a565b8015612bf75780601f10612bcc57610100808354040283529160200191612bf7565b820191906000526020600020905b815481529060010190602001808311612bda57829003601f168201915b5050505050905092915050565b6010818051602081018201805184825260208301602085012081835280955050505050506000915090508054612c3990613a8a565b80601f0160208091040260200160405190810160405280929190818152602001828054612c6590613a8a565b8015612cb25780601f10612c8757610100808354040283529160200191612cb2565b820191906000526020600020905b815481529060010190602001808311612c9557829003601f168201915b505050505081565b3373ffffffffffffffffffffffffffffffffffffffff1660008585604051612ce3929190613a37565b908152602001604051809103902060009054906101000a900473ffffffffffffffffffffffffffffffffffffffff1673ffffffffffffffffffffffffffffffffffffffff1614612d3257600080fd5b818160048686604051612d46929190613a37565b90815260200160405180910390209182612d61929190613c67565b5050505050565b600073ffffffffffffffffffffffffffffffffffffffff1660008383604051612d92929190613a37565b908152602001604051809103902060009054906101000a900473ffffffffffffffffffffffffffffffffffffffff1673ffffffffffffffffffffffffffffffffffffffff1614612de157600080fd5b3360008383604051612df4929190613a37565b908152602001604051809103902060006101000a81548173ffffffffffffffffffffffffffffffffffffffff021916908373ffffffffffffffffffffffffffffffffffffffff1602179055506000612e4c838361324b565b905080341015612e91576040517f08c379a0000000000000000000000000000000000000000000000000000000008152600401612e8890613d83565b60405180910390fd5b612ed06040518060400160405280601b81526020017f2573206861732072656769737465726564206120646f6d61696e2100000000008152503361338b565b505050565b3373ffffffffffffffffffffffffffffffffffffffff1660008585604051612efe929190613a37565b908152602001604051809103902060009054906101000a900473ffffffffffffffffffffffffffffffffffffffff1673ffffffffffffffffffffffffffffffffffffffff1614612f4d57600080fd5b8181600d8686604051612f61929190613a37565b90815260200160405180910390209182612f7c929190613c67565b5050505050565b600a818051602081018201805184825260208301602085012081835280955050505050506000915090508054612fb890613a8a565b80601f0160208091040260200160405190810160405280929190818152602001828054612fe490613a8a565b80156130315780601f1061300657610100808354040283529160200191613031565b820191906000526020600020905b81548152906001019060200180831161301457829003601f168201915b505050505081565b600581805160208101820180518482526020830160208501208183528095505050505050600091509050805461306e90613a8a565b80601f016020809104026020016040519081016040528092919081815260200182805461309a90613a8a565b80156130e75780601f106130bc576101008083540402835291602001916130e7565b820191906000526020600020905b8154815290600101906020018083116130ca57829003601f168201915b505050505081565b3373ffffffffffffffffffffffffffffffffffffffff1660008585604051613118929190613a37565b908152602001604051809103902060009054906101000a900473ffffffffffffffffffffffffffffffffffffffff1673ffffffffffffffffffffffffffffffffffffffff161461316757600080fd5b81816003868660405161317b929190613a37565b90815260200160405180910390209182613196929190613c67565b5050505050565b3373ffffffffffffffffffffffffffffffffffffffff16600085856040516131c6929190613a37565b908152602001604051809103902060009054906101000a900473ffffffffffffffffffffffffffffffffffffffff1673ffffffffffffffffffffffffffffffffffffffff161461321557600080fd5b8181600c8686604051613229929190613a37565b90815260200160405180910390209182613244929190613c67565b5050505050565b60008061329b84848080601f016020809104026020016040519081016040528093929190818152602001838380828437600081840152601f19601f82011690508083019250505050505050613427565b9050600081116132aa57600080fd5b600381036132c357670853a0d2313c00009150506132e9565b600481036132dc57670429d069189e00009150506132e9565b67016345785d8a00009150505b92915050565b6133878282604051602401613305929190613da3565b6040516020818303038152906040527f4b5c4277000000000000000000000000000000000000000000000000000000007bffffffffffffffffffffffffffffffffffffffffffffffffffffffff19166020820180517bffffffffffffffffffffffffffffffffffffffffffffffffffffffff83818316178352505050506135dc565b5050565b61342382826040516024016133a1929190613dda565b6040516020818303038152906040527f319af333000000000000000000000000000000000000000000000000000000007bffffffffffffffffffffffffffffffffffffffffffffffffffffffff19166020820180517bffffffffffffffffffffffffffffffffffffffffffffffffffffffff83818316178352505050506135dc565b5050565b60008060008084519050600092505b808210156135d157600085838151811061345357613452613e0a565b5b602001015160f81c60f81b9050608060f81b817effffffffffffffffffffffffffffffffffffffffffffffffffffffffffffff191610156134a25760018361349b9190613e68565b92506135bd565b60e060f81b817effffffffffffffffffffffffffffffffffffffffffffffffffffffffffffff191610156134e4576002836134dd9190613e68565b92506135bc565b60f060f81b817effffffffffffffffffffffffffffffffffffffffffffffffffffffffffffff191610156135265760038361351f9190613e68565b92506135bb565b60f8801b817effffffffffffffffffffffffffffffffffffffffffffffffffffffffffffff19161015613567576004836135609190613e68565b92506135ba565b60fc60f81b817effffffffffffffffffffffffffffffffffffffffffffffffffffffffffffff191610156135a9576005836135a29190613e68565b92506135b9565b6006836135b69190613e68565b92505b5b5b5b5b5082806135c990613e9c565b935050613436565b829350505050919050565b60008151905060006a636f6e736f6c652e6c6f679050602083016000808483855afa5050505050565b6000604051905090565b600080fd5b600080fd5b600080fd5b600080fd5b600080fd5b60008083601f84011261363e5761363d613619565b5b8235905067ffffffffffffffff81111561365b5761365a61361e565b5b60208301915083600182028301111561367757613676613623565b5b9250929050565b600080600080604085870312156136985761369761360f565b5b600085013567ffffffffffffffff8111156136b6576136b5613614565b5b6136c287828801613628565b9450945050602085013567ffffffffffffffff8111156136e5576136e4613614565b5b6136f187828801613628565b925092505092959194509250565b600080602083850312156137165761371561360f565b5b600083013567ffffffffffffffff81111561373457613733613614565b5b61374085828601613628565b92509250509250929050565b600081519050919050565b600082825260208201905092915050565b60005b8381101561378657808201518184015260208101905061376b565b60008484015250505050565b6000601f19601f8301169050919050565b60006137ae8261374c565b6137b88185613757565b93506137c8818560208601613768565b6137d181613792565b840191505092915050565b600060208201905081810360008301526137f681846137a3565b905092915050565b600080fd5b7f4e487b7100000000000000000000000000000000000000000000000000000000600052604160045260246000fd5b61383b82613792565b810181811067ffffffffffffffff8211171561385a57613859613803565b5b80604052505050565b600061386d613605565b90506138798282613832565b919050565b600067ffffffffffffffff82111561389957613898613803565b5b6138a282613792565b9050602081019050919050565b82818337600083830152505050565b60006138d16138cc8461387e565b613863565b9050828152602081018484840111156138ed576138ec6137fe565b5b6138f88482856138af565b509392505050565b600082601f83011261391557613914613619565b5b81356139258482602086016138be565b91505092915050565b6000602082840312156139445761394361360f565b5b600082013567ffffffffffffffff81111561396257613961613614565b5b61396e84828501613900565b91505092915050565b600073ffffffffffffffffffffffffffffffffffffffff82169050919050565b60006139a282613977565b9050919050565b6139b281613997565b82525050565b60006020820190506139cd60008301846139a9565b92915050565b6000819050919050565b6139e6816139d3565b82525050565b6000602082019050613a0160008301846139dd565b92915050565b600081905092915050565b6000613a1e8385613a07565b9350613a2b8385846138af565b82840190509392505050565b6000613a44828486613a12565b91508190509392505050565b600082905092915050565b7f4e487b7100000000000000000000000000000000000000000000000000000000600052602260045260246000fd5b60006002820490506001821680613aa257607f821691505b602082108103613ab557613ab4613a5b565b5b50919050565b60008190508160005260206000209050919050565b60006020601f8301049050919050565b600082821b905092915050565b600060088302613b1d7fffffffffffffffffffffffffffffffffffffffffffffffffffffffffffffffff82613ae0565b613b278683613ae0565b95508019841693508086168417925050509392505050565b6000819050919050565b6000613b64613b5f613b5a846139d3565b613b3f565b6139d3565b9050919050565b6000819050919050565b613b7e83613b49565b613b92613b8a82613b6b565b848454613aed565b825550505050565b600090565b613ba7613b9a565b613bb2818484613b75565b505050565b5b81811015613bd657613bcb600082613b9f565b600181019050613bb8565b5050565b601f821115613c1b57613bec81613abb565b613bf584613ad0565b81016020851015613c04578190505b613c18613c1085613ad0565b830182613bb7565b50505b505050565b600082821c905092915050565b6000613c3e60001984600802613c20565b1980831691505092915050565b6000613c578383613c2d565b9150826002028217905092915050565b613c718383613a50565b67ffffffffffffffff811115613c8a57613c89613803565b5b613c948254613a8a565b613c9f828285613bda565b6000601f831160018114613cce5760008415613cbc578287013590505b613cc68582613c4b565b865550613d2e565b601f198416613cdc86613abb565b60005b82811015613d0457848901358255600182019150602085019450602081019050613cdf565b86831015613d215784890135613d1d601f891682613c2d565b8355505b6001600288020188555050505b50505050505050565b7f4e6f7420656e6f756768204d6174696320706169640000000000000000000000600082015250565b6000613d6d601583613757565b9150613d7882613d37565b602082019050919050565b60006020820190508181036000830152613d9c81613d60565b9050919050565b60006040820190508181036000830152613dbd81856137a3565b90508181036020830152613dd181846137a3565b90509392505050565b60006040820190508181036000830152613df481856137a3565b9050613e0360208301846139a9565b9392505050565b7f4e487b7100000000000000000000000000000000000000000000000000000000600052603260045260246000fd5b7f4e487b7100000000000000000000000000000000000000000000000000000000600052601160045260246000fd5b6000613e73826139d3565b9150613e7e836139d3565b9250828201905080821115613e9657613e95613e39565b5b92915050565b6000613ea7826139d3565b91507fffffffffffffffffffffffffffffffffffffffffffffffffffffffffffffffff8203613ed957613ed8613e39565b5b60018201905091905056fea2646970667358221220fc05d71b7a543ca8e947d34821d11eef3e7403ff5cdf6c5259137c5e8c530b2664736f6c63430008110033","opcodes":"PUSH1 0x80 PUSH1 0x40 MSTORE PUSH1 0x40 MLOAD PUSH3 0x462A CODESIZE SUB DUP1 PUSH3 0x462A DUP4 CODECOPY DUP2 DUP2 ADD PUSH1 0x40 MSTORE DUP2 ADD SWAP1 PUSH3 0x29 SWAP2 SWAP1 PUSH3 0x2F0 JUMP JUMPDEST DUP1 PUSH1 0x11 SWAP1 DUP2 PUSH3 0x3A SWAP2 SWAP1 PUSH3 0x58C JUMP JUMPDEST POP PUSH3 0x87 PUSH1 0x40 MLOAD DUP1 PUSH1 0x40 ADD PUSH1 0x40 MSTORE DUP1 PUSH1 0x18 DUP2 MSTORE PUSH1 0x20 ADD PUSH32 0x2573206E616D652073657276696365206465706C6F7965640000000000000000 DUP2 MSTORE POP DUP3 PUSH3 0x8E PUSH1 0x20 SHL PUSH3 0x32EF OR PUSH1 0x20 SHR JUMP JUMPDEST POP PUSH3 0x700 JUMP JUMPDEST PUSH3 0x130 DUP3 DUP3 PUSH1 0x40 MLOAD PUSH1 0x24 ADD PUSH3 0xA7 SWAP3 SWAP2 SWAP1 PUSH3 0x6C5 JUMP JUMPDEST PUSH1 0x40 MLOAD PUSH1 0x20 DUP2 DUP4 SUB SUB DUP2 MSTORE SWAP1 PUSH1 0x40 MSTORE PUSH32 0x4B5C427700000000000000000000000000000000000000000000000000000000 PUSH28 0xFFFFFFFFFFFFFFFFFFFFFFFFFFFFFFFFFFFFFFFFFFFFFFFFFFFFFFFF NOT AND PUSH1 0x20 DUP3 ADD DUP1 MLOAD PUSH28 0xFFFFFFFFFFFFFFFFFFFFFFFFFFFFFFFFFFFFFFFFFFFFFFFFFFFFFFFF DUP4 DUP2 DUP4 AND OR DUP4 MSTORE POP POP POP POP PUSH3 0x134 PUSH1 0x20 SHL PUSH1 0x20 SHR JUMP JUMPDEST POP POP JUMP JUMPDEST PUSH1 0x0 DUP2 MLOAD SWAP1 POP PUSH1 0x0 PUSH11 0x636F6E736F6C652E6C6F67 SWAP1 POP PUSH1 0x20 DUP4 ADD PUSH1 0x0 DUP1 DUP5 DUP4 DUP6 GAS STATICCALL POP POP POP POP POP JUMP JUMPDEST PUSH1 0x0 PUSH1 0x40 MLOAD SWAP1 POP SWAP1 JUMP JUMPDEST PUSH1 0x0 DUP1 REVERT JUMPDEST PUSH1 0x0 DUP1 REVERT JUMPDEST PUSH1 0x0 DUP1 REVERT JUMPDEST PUSH1 0x0 DUP1 REVERT JUMPDEST PUSH1 0x0 PUSH1 0x1F NOT PUSH1 0x1F DUP4 ADD AND SWAP1 POP SWAP2 SWAP1 POP JUMP JUMPDEST PUSH32 0x4E487B7100000000000000000000000000000000000000000000000000000000 PUSH1 0x0 MSTORE PUSH1 0x41 PUSH1 0x4 MSTORE PUSH1 0x24 PUSH1 0x0 REVERT JUMPDEST PUSH3 0x1C6 DUP3 PUSH3 0x17B JUMP JUMPDEST DUP2 ADD DUP2 DUP2 LT PUSH8 0xFFFFFFFFFFFFFFFF DUP3 GT OR ISZERO PUSH3 0x1E8 JUMPI PUSH3 0x1E7 PUSH3 0x18C JUMP JUMPDEST JUMPDEST DUP1 PUSH1 0x40 MSTORE POP POP POP JUMP JUMPDEST PUSH1 0x0 PUSH3 0x1FD PUSH3 0x15D JUMP JUMPDEST SWAP1 POP PUSH3 0x20B DUP3 DUP3 PUSH3 0x1BB JUMP JUMPDEST SWAP2 SWAP1 POP JUMP JUMPDEST PUSH1 0x0 PUSH8 0xFFFFFFFFFFFFFFFF DUP3 GT ISZERO PUSH3 0x22E JUMPI PUSH3 0x22D PUSH3 0x18C JUMP JUMPDEST JUMPDEST PUSH3 0x239 DUP3 PUSH3 0x17B JUMP JUMPDEST SWAP1 POP PUSH1 0x20 DUP2 ADD SWAP1 POP SWAP2 SWAP1 POP JUMP JUMPDEST PUSH1 0x0 JUMPDEST DUP4 DUP2 LT ISZERO PUSH3 0x266 JUMPI DUP1 DUP3 ADD MLOAD DUP2 DUP5 ADD MSTORE PUSH1 0x20 DUP2 ADD SWAP1 POP PUSH3 0x249 JUMP JUMPDEST PUSH1 0x0 DUP5 DUP5 ADD MSTORE POP POP POP POP JUMP JUMPDEST PUSH1 0x0 PUSH3 0x289 PUSH3 0x283 DUP5 PUSH3 0x210 JUMP JUMPDEST PUSH3 0x1F1 JUMP JUMPDEST SWAP1 POP DUP3 DUP2 MSTORE PUSH1 0x20 DUP2 ADD DUP5 DUP5 DUP5 ADD GT ISZERO PUSH3 0x2A8 JUMPI PUSH3 0x2A7 PUSH3 0x176 JUMP JUMPDEST JUMPDEST PUSH3 0x2B5 DUP5 DUP3 DUP6 PUSH3 0x246 JUMP JUMPDEST POP SWAP4 SWAP3 POP POP POP JUMP JUMPDEST PUSH1 0x0 DUP3 PUSH1 0x1F DUP4 ADD SLT PUSH3 0x2D5 JUMPI PUSH3 0x2D4 PUSH3 0x171 JUMP JUMPDEST JUMPDEST DUP2 MLOAD PUSH3 0x2E7 DUP5 DUP3 PUSH1 0x20 DUP7 ADD PUSH3 0x272 JUMP JUMPDEST SWAP2 POP POP SWAP3 SWAP2 POP POP JUMP JUMPDEST PUSH1 0x0 PUSH1 0x20 DUP3 DUP5 SUB SLT ISZERO PUSH3 0x309 JUMPI PUSH3 0x308 PUSH3 0x167 JUMP JUMPDEST JUMPDEST PUSH1 0x0 DUP3 ADD MLOAD PUSH8 0xFFFFFFFFFFFFFFFF DUP2 GT ISZERO PUSH3 0x32A JUMPI PUSH3 0x329 PUSH3 0x16C JUMP JUMPDEST JUMPDEST PUSH3 0x338 DUP5 DUP3 DUP6 ADD PUSH3 0x2BD JUMP JUMPDEST SWAP2 POP POP SWAP3 SWAP2 POP POP JUMP JUMPDEST PUSH1 0x0 DUP2 MLOAD SWAP1 POP SWAP2 SWAP1 POP JUMP JUMPDEST PUSH32 0x4E487B7100000000000000000000000000000000000000000000000000000000 PUSH1 0x0 MSTORE PUSH1 0x22 PUSH1 0x4 MSTORE PUSH1 0x24 PUSH1 0x0 REVERT JUMPDEST PUSH1 0x0 PUSH1 0x2 DUP3 DIV SWAP1 POP PUSH1 0x1 DUP3 AND DUP1 PUSH3 0x394 JUMPI PUSH1 0x7F DUP3 AND SWAP2 POP JUMPDEST PUSH1 0x20 DUP3 LT DUP2 SUB PUSH3 0x3AA JUMPI PUSH3 0x3A9 PUSH3 0x34C JUMP JUMPDEST JUMPDEST POP SWAP2 SWAP1 POP JUMP JUMPDEST PUSH1 0x0 DUP2 SWAP1 POP DUP2 PUSH1 0x0 MSTORE PUSH1 0x20 PUSH1 0x0 KECCAK256 SWAP1 POP SWAP2 SWAP1 POP JUMP JUMPDEST PUSH1 0x0 PUSH1 0x20 PUSH1 0x1F DUP4 ADD DIV SWAP1 POP SWAP2 SWAP1 POP JUMP JUMPDEST PUSH1 0x0 DUP3 DUP3 SHL SWAP1 POP SWAP3 SWAP2 POP POP JUMP JUMPDEST PUSH1 0x0 PUSH1 0x8 DUP4 MUL PUSH3 0x414 PUSH32 0xFFFFFFFFFFFFFFFFFFFFFFFFFFFFFFFFFFFFFFFFFFFFFFFFFFFFFFFFFFFFFFFF DUP3 PUSH3 0x3D5 JUMP JUMPDEST PUSH3 0x420 DUP7 DUP4 PUSH3 0x3D5 JUMP JUMPDEST SWAP6 POP DUP1 NOT DUP5 AND SWAP4 POP DUP1 DUP7 AND DUP5 OR SWAP3 POP POP POP SWAP4 SWAP3 POP POP POP JUMP JUMPDEST PUSH1 0x0 DUP2 SWAP1 POP SWAP2 SWAP1 POP JUMP JUMPDEST PUSH1 0x0 DUP2 SWAP1 POP SWAP2 SWAP1 POP JUMP JUMPDEST PUSH1 0x0 PUSH3 0x46D PUSH3 0x467 PUSH3 0x461 DUP5 PUSH3 0x438 JUMP JUMPDEST PUSH3 0x442 JUMP JUMPDEST PUSH3 0x438 JUMP JUMPDEST SWAP1 POP SWAP2 SWAP1 POP JUMP JUMPDEST PUSH1 0x0 DUP2 SWAP1 POP SWAP2 SWAP1 POP JUMP JUMPDEST PUSH3 0x489 DUP4 PUSH3 0x44C JUMP JUMPDEST PUSH3 0x4A1 PUSH3 0x498 DUP3 PUSH3 0x474 JUMP JUMPDEST DUP5 DUP5 SLOAD PUSH3 0x3E2 JUMP JUMPDEST DUP3 SSTORE POP POP POP POP JUMP JUMPDEST PUSH1 0x0 SWAP1 JUMP JUMPDEST PUSH3 0x4B8 PUSH3 0x4A9 JUMP JUMPDEST PUSH3 0x4C5 DUP2 DUP5 DUP5 PUSH3 0x47E JUMP JUMPDEST POP POP POP JUMP JUMPDEST JUMPDEST DUP2 DUP2 LT ISZERO PUSH3 0x4ED JUMPI PUSH3 0x4E1 PUSH1 0x0 DUP3 PUSH3 0x4AE JUMP JUMPDEST PUSH1 0x1 DUP2 ADD SWAP1 POP PUSH3 0x4CB JUMP JUMPDEST POP POP JUMP JUMPDEST PUSH1 0x1F DUP3 GT ISZERO PUSH3 0x53C JUMPI PUSH3 0x506 DUP2 PUSH3 0x3B0 JUMP JUMPDEST PUSH3 0x511 DUP5 PUSH3 0x3C5 JUMP JUMPDEST DUP2 ADD PUSH1 0x20 DUP6 LT ISZERO PUSH3 0x521 JUMPI DUP2 SWAP1 POP JUMPDEST PUSH3 0x539 PUSH3 0x530 DUP6 PUSH3 0x3C5 JUMP JUMPDEST DUP4 ADD DUP3 PUSH3 0x4CA JUMP JUMPDEST POP POP JUMPDEST POP POP POP JUMP JUMPDEST PUSH1 0x0 DUP3 DUP3 SHR SWAP1 POP SWAP3 SWAP2 POP POP JUMP JUMPDEST PUSH1 0x0 PUSH3 0x561 PUSH1 0x0 NOT DUP5 PUSH1 0x8 MUL PUSH3 0x541 JUMP JUMPDEST NOT DUP1 DUP4 AND SWAP2 POP POP SWAP3 SWAP2 POP POP JUMP JUMPDEST PUSH1 0x0 PUSH3 0x57C DUP4 DUP4 PUSH3 0x54E JUMP JUMPDEST SWAP2 POP DUP3 PUSH1 0x2 MUL DUP3 OR SWAP1 POP SWAP3 SWAP2 POP POP JUMP JUMPDEST PUSH3 0x597 DUP3 PUSH3 0x341 JUMP JUMPDEST PUSH8 0xFFFFFFFFFFFFFFFF DUP2 GT ISZERO PUSH3 0x5B3 JUMPI PUSH3 0x5B2 PUSH3 0x18C JUMP JUMPDEST JUMPDEST PUSH3 0x5BF DUP3 SLOAD PUSH3 0x37B JUMP JUMPDEST PUSH3 0x5CC DUP3 DUP3 DUP6 PUSH3 0x4F1 JUMP JUMPDEST PUSH1 0x0 PUSH1 0x20 SWAP1 POP PUSH1 0x1F DUP4 GT PUSH1 0x1 DUP2 EQ PUSH3 0x604 JUMPI PUSH1 0x0 DUP5 ISZERO PUSH3 0x5EF JUMPI DUP3 DUP8 ADD MLOAD SWAP1 POP JUMPDEST PUSH3 0x5FB DUP6 DUP3 PUSH3 0x56E JUMP JUMPDEST DUP7 SSTORE POP PUSH3 0x66B JUMP JUMPDEST PUSH1 0x1F NOT DUP5 AND PUSH3 0x614 DUP7 PUSH3 0x3B0 JUMP JUMPDEST PUSH1 0x0 JUMPDEST DUP3 DUP2 LT ISZERO PUSH3 0x63E JUMPI DUP5 DUP10 ADD MLOAD DUP3 SSTORE PUSH1 0x1 DUP3 ADD SWAP2 POP PUSH1 0x20 DUP6 ADD SWAP5 POP PUSH1 0x20 DUP2 ADD SWAP1 POP PUSH3 0x617 JUMP JUMPDEST DUP7 DUP4 LT ISZERO PUSH3 0x65E JUMPI DUP5 DUP10 ADD MLOAD PUSH3 0x65A PUSH1 0x1F DUP10 AND DUP3 PUSH3 0x54E JUMP JUMPDEST DUP4 SSTORE POP JUMPDEST PUSH1 0x1 PUSH1 0x2 DUP9 MUL ADD DUP9 SSTORE POP POP POP JUMPDEST POP POP POP POP POP POP JUMP JUMPDEST PUSH1 0x0 DUP3 DUP3 MSTORE PUSH1 0x20 DUP3 ADD SWAP1 POP SWAP3 SWAP2 POP POP JUMP JUMPDEST PUSH1 0x0 PUSH3 0x691 DUP3 PUSH3 0x341 JUMP JUMPDEST PUSH3 0x69D DUP2 DUP6 PUSH3 0x673 JUMP JUMPDEST SWAP4 POP PUSH3 0x6AF DUP2 DUP6 PUSH1 0x20 DUP7 ADD PUSH3 0x246 JUMP JUMPDEST PUSH3 0x6BA DUP2 PUSH3 0x17B JUMP JUMPDEST DUP5 ADD SWAP2 POP POP SWAP3 SWAP2 POP POP JUMP JUMPDEST PUSH1 0x0 PUSH1 0x40 DUP3 ADD SWAP1 POP DUP2 DUP2 SUB PUSH1 0x0 DUP4 ADD MSTORE PUSH3 0x6E1 DUP2 DUP6 PUSH3 0x684 JUMP JUMPDEST SWAP1 POP DUP2 DUP2 SUB PUSH1 0x20 DUP4 ADD MSTORE PUSH3 0x6F7 DUP2 DUP5 PUSH3 0x684 JUMP JUMPDEST SWAP1 POP SWAP4 SWAP3 POP POP POP JUMP JUMPDEST PUSH2 0x3F1A DUP1 PUSH3 0x710 PUSH1 0x0 CODECOPY PUSH1 0x0 RETURN INVALID PUSH1 0x80 PUSH1 0x40 MSTORE PUSH1 0x4 CALLDATASIZE LT PUSH2 0x31A JUMPI PUSH1 0x0 CALLDATALOAD PUSH1 0xE0 SHR DUP1 PUSH4 0x8C56CB7E GT PUSH2 0x1AB JUMPI DUP1 PUSH4 0xDBC17566 GT PUSH2 0xF7 JUMPI DUP1 PUSH4 0xF2C298BE GT PUSH2 0x95 JUMPI DUP1 PUSH4 0xFC89B118 GT PUSH2 0x6F JUMPI DUP1 PUSH4 0xFC89B118 EQ PUSH2 0xD81 JUMPI DUP1 PUSH4 0xFC8B560F EQ PUSH2 0xDBE JUMPI DUP1 PUSH4 0xFDD46C38 EQ PUSH2 0xDE7 JUMPI DUP1 PUSH4 0xFE2C6198 EQ PUSH2 0xE10 JUMPI PUSH2 0x31A JUMP JUMPDEST DUP1 PUSH4 0xF2C298BE EQ PUSH2 0xCFF JUMPI DUP1 PUSH4 0xF509F674 EQ PUSH2 0xD1B JUMPI DUP1 PUSH4 0xF6963F83 EQ PUSH2 0xD44 JUMPI PUSH2 0x31A JUMP JUMPDEST DUP1 PUSH4 0xE163942C GT PUSH2 0xD1 JUMPI DUP1 PUSH4 0xE163942C EQ PUSH2 0xC1F JUMPI DUP1 PUSH4 0xE8A3AF95 EQ PUSH2 0xC5C JUMPI DUP1 PUSH4 0xE9654AF9 EQ PUSH2 0xC99 JUMPI DUP1 PUSH4 0xF0296F16 EQ PUSH2 0xCD6 JUMPI PUSH2 0x31A JUMP JUMPDEST DUP1 PUSH4 0xDBC17566 EQ PUSH2 0xB68 JUMPI DUP1 PUSH4 0xDCB12E65 EQ PUSH2 0xBA5 JUMPI DUP1 PUSH4 0xDFF25073 EQ PUSH2 0xBE2 JUMPI PUSH2 0x31A JUMP JUMPDEST DUP1 PUSH4 0xA6525F08 GT PUSH2 0x164 JUMPI DUP1 PUSH4 0xB87A6E98 GT PUSH2 0x13E JUMPI DUP1 PUSH4 0xB87A6E98 EQ PUSH2 0xA9C JUMPI DUP1 PUSH4 0xBF40FAC1 EQ PUSH2 0xAC5 JUMPI DUP1 PUSH4 0xC1880A98 EQ PUSH2 0xB02 JUMPI DUP1 PUSH4 0xD9888D74 EQ PUSH2 0xB2B JUMPI PUSH2 0x31A JUMP JUMPDEST DUP1 PUSH4 0xA6525F08 EQ PUSH2 0xA21 JUMPI DUP1 PUSH4 0xAA587AE5 EQ PUSH2 0xA4A JUMPI DUP1 PUSH4 0xB60DEBD8 EQ PUSH2 0xA73 JUMPI PUSH2 0x31A JUMP JUMPDEST DUP1 PUSH4 0x8C56CB7E EQ PUSH2 0x8B3 JUMPI DUP1 PUSH4 0x90825A20 EQ PUSH2 0x8F0 JUMPI DUP1 PUSH4 0x92F7424F EQ PUSH2 0x92D JUMPI DUP1 PUSH4 0x9A471B99 EQ PUSH2 0x96A JUMPI DUP1 PUSH4 0x9FB374A4 EQ PUSH2 0x9A7 JUMPI DUP1 PUSH4 0xA42863A1 EQ PUSH2 0x9E4 JUMPI PUSH2 0x31A JUMP JUMPDEST DUP1 PUSH4 0x4441D406 GT PUSH2 0x26A JUMPI DUP1 PUSH4 0x5EA36EEC GT PUSH2 0x223 JUMPI DUP1 PUSH4 0x75C0CD4E GT PUSH2 0x1FD JUMPI DUP1 PUSH4 0x75C0CD4E EQ PUSH2 0x7BF JUMPI DUP1 PUSH4 0x77144ABC EQ PUSH2 0x7FC JUMPI DUP1 PUSH4 0x7EA0DB51 EQ PUSH2 0x839 JUMPI DUP1 PUSH4 0x89318A21 EQ PUSH2 0x876 JUMPI PUSH2 0x31A JUMP JUMPDEST DUP1 PUSH4 0x5EA36EEC EQ PUSH2 0x71C JUMPI DUP1 PUSH4 0x5F359B05 EQ PUSH2 0x745 JUMPI DUP1 PUSH4 0x688D8828 EQ PUSH2 0x782 JUMPI PUSH2 0x31A JUMP JUMPDEST DUP1 PUSH4 0x4441D406 EQ PUSH2 0x5C2 JUMPI DUP1 PUSH4 0x4D009F3D EQ PUSH2 0x5FF JUMPI DUP1 PUSH4 0x510A4087 EQ PUSH2 0x628 JUMPI DUP1 PUSH4 0x53E69ABC EQ PUSH2 0x665 JUMPI DUP1 PUSH4 0x541E771D EQ PUSH2 0x6A2 JUMPI DUP1 PUSH4 0x545FAF06 EQ PUSH2 0x6DF JUMPI PUSH2 0x31A JUMP JUMPDEST DUP1 PUSH4 0x26449235 GT PUSH2 0x2D7 JUMPI DUP1 PUSH4 0x39EF619E GT PUSH2 0x2B1 JUMPI DUP1 PUSH4 0x39EF619E EQ PUSH2 0x4F6 JUMPI DUP1 PUSH4 0x3AB05493 EQ PUSH2 0x533 JUMPI DUP1 PUSH4 0x3B6E1C97 EQ PUSH2 0x570 JUMPI DUP1 PUSH4 0x3FC38637 EQ PUSH2 0x599 JUMPI PUSH2 0x31A JUMP JUMPDEST DUP1 PUSH4 0x26449235 EQ PUSH2 0x451 JUMPI DUP1 PUSH4 0x2D551432 EQ PUSH2 0x48E JUMPI DUP1 PUSH4 0x2F9DD1B6 EQ PUSH2 0x4B9 JUMPI PUSH2 0x31A JUMP JUMPDEST DUP1 PUSH4 0xDAF27E2 EQ PUSH2 0x31F JUMPI DUP1 PUSH4 0x11303CD7 EQ PUSH2 0x348 JUMPI DUP1 PUSH4 0x11DD8845 EQ PUSH2 0x371 JUMPI DUP1 PUSH4 0x14E21F50 EQ PUSH2 0x3AE JUMPI DUP1 PUSH4 0x1E616113 EQ PUSH2 0x3D7 JUMPI DUP1 PUSH4 0x22149D79 EQ PUSH2 0x414 JUMPI JUMPDEST PUSH1 0x0 DUP1 REVERT JUMPDEST CALLVALUE DUP1 ISZERO PUSH2 0x32B JUMPI PUSH1 0x0 DUP1 REVERT JUMPDEST POP PUSH2 0x346 PUSH1 0x4 DUP1 CALLDATASIZE SUB DUP2 ADD SWAP1 PUSH2 0x341 SWAP2 SWAP1 PUSH2 0x367E JUMP JUMPDEST PUSH2 0xE4D JUMP JUMPDEST STOP JUMPDEST CALLVALUE DUP1 ISZERO PUSH2 0x354 JUMPI PUSH1 0x0 DUP1 REVERT JUMPDEST POP PUSH2 0x36F PUSH1 0x4 DUP1 CALLDATASIZE SUB DUP2 ADD SWAP1 PUSH2 0x36A SWAP2 SWAP1 PUSH2 0x367E JUMP JUMPDEST PUSH2 0xEFB JUMP JUMPDEST STOP JUMPDEST CALLVALUE DUP1 ISZERO PUSH2 0x37D JUMPI PUSH1 0x0 DUP1 REVERT JUMPDEST POP PUSH2 0x398 PUSH1 0x4 DUP1 CALLDATASIZE SUB DUP2 ADD SWAP1 PUSH2 0x393 SWAP2 SWAP1 PUSH2 0x36FF JUMP JUMPDEST PUSH2 0xFA9 JUMP JUMPDEST PUSH1 0x40 MLOAD PUSH2 0x3A5 SWAP2 SWAP1 PUSH2 0x37DC JUMP JUMPDEST PUSH1 0x40 MLOAD DUP1 SWAP2 SUB SWAP1 RETURN JUMPDEST CALLVALUE DUP1 ISZERO PUSH2 0x3BA JUMPI PUSH1 0x0 DUP1 REVERT JUMPDEST POP PUSH2 0x3D5 PUSH1 0x4 DUP1 CALLDATASIZE SUB DUP2 ADD SWAP1 PUSH2 0x3D0 SWAP2 SWAP1 PUSH2 0x367E JUMP JUMPDEST PUSH2 0x105C JUMP JUMPDEST STOP JUMPDEST CALLVALUE DUP1 ISZERO PUSH2 0x3E3 JUMPI PUSH1 0x0 DUP1 REVERT JUMPDEST POP PUSH2 0x3FE PUSH1 0x4 DUP1 CALLDATASIZE SUB DUP2 ADD SWAP1 PUSH2 0x3F9 SWAP2 SWAP1 PUSH2 0x392E JUMP JUMPDEST PUSH2 0x110A JUMP JUMPDEST PUSH1 0x40 MLOAD PUSH2 0x40B SWAP2 SWAP1 PUSH2 0x37DC JUMP JUMPDEST PUSH1 0x40 MLOAD DUP1 SWAP2 SUB SWAP1 RETURN JUMPDEST CALLVALUE DUP1 ISZERO PUSH2 0x420 JUMPI PUSH1 0x0 DUP1 REVERT JUMPDEST POP PUSH2 0x43B PUSH1 0x4 DUP1 CALLDATASIZE SUB DUP2 ADD SWAP1 PUSH2 0x436 SWAP2 SWAP1 PUSH2 0x392E JUMP JUMPDEST PUSH2 0x11C0 JUMP JUMPDEST PUSH1 0x40 MLOAD PUSH2 0x448 SWAP2 SWAP1 PUSH2 0x37DC JUMP JUMPDEST PUSH1 0x40 MLOAD DUP1 SWAP2 SUB SWAP1 RETURN JUMPDEST CALLVALUE DUP1 ISZERO PUSH2 0x45D JUMPI PUSH1 0x0 DUP1 REVERT JUMPDEST POP PUSH2 0x478 PUSH1 0x4 DUP1 CALLDATASIZE SUB DUP2 ADD SWAP1 PUSH2 0x473 SWAP2 SWAP1 PUSH2 0x392E JUMP JUMPDEST PUSH2 0x1276 JUMP JUMPDEST PUSH1 0x40 MLOAD PUSH2 0x485 SWAP2 SWAP1 PUSH2 0x39B8 JUMP JUMPDEST PUSH1 0x40 MLOAD DUP1 SWAP2 SUB SWAP1 RETURN JUMPDEST CALLVALUE DUP1 ISZERO PUSH2 0x49A JUMPI PUSH1 0x0 DUP1 REVERT JUMPDEST POP PUSH2 0x4A3 PUSH2 0x12BF JUMP JUMPDEST PUSH1 0x40 MLOAD PUSH2 0x4B0 SWAP2 SWAP1 PUSH2 0x37DC JUMP JUMPDEST PUSH1 0x40 MLOAD DUP1 SWAP2 SUB SWAP1 RETURN JUMPDEST CALLVALUE DUP1 ISZERO PUSH2 0x4C5 JUMPI PUSH1 0x0 DUP1 REVERT JUMPDEST POP PUSH2 0x4E0 PUSH1 0x4 DUP1 CALLDATASIZE SUB DUP2 ADD SWAP1 PUSH2 0x4DB SWAP2 SWAP1 PUSH2 0x36FF JUMP JUMPDEST PUSH2 0x134D JUMP JUMPDEST PUSH1 0x40 MLOAD PUSH2 0x4ED SWAP2 SWAP1 PUSH2 0x37DC JUMP JUMPDEST PUSH1 0x40 MLOAD DUP1 SWAP2 SUB SWAP1 RETURN JUMPDEST CALLVALUE DUP1 ISZERO PUSH2 0x502 JUMPI PUSH1 0x0 DUP1 REVERT JUMPDEST POP PUSH2 0x51D PUSH1 0x4 DUP1 CALLDATASIZE SUB DUP2 ADD SWAP1 PUSH2 0x518 SWAP2 SWAP1 PUSH2 0x36FF JUMP JUMPDEST PUSH2 0x1400 JUMP JUMPDEST PUSH1 0x40 MLOAD PUSH2 0x52A SWAP2 SWAP1 PUSH2 0x37DC JUMP JUMPDEST PUSH1 0x40 MLOAD DUP1 SWAP2 SUB SWAP1 RETURN JUMPDEST CALLVALUE DUP1 ISZERO PUSH2 0x53F JUMPI PUSH1 0x0 DUP1 REVERT JUMPDEST POP PUSH2 0x55A PUSH1 0x4 DUP1 CALLDATASIZE SUB DUP2 ADD SWAP1 PUSH2 0x555 SWAP2 SWAP1 PUSH2 0x392E JUMP JUMPDEST PUSH2 0x14B3 JUMP JUMPDEST PUSH1 0x40 MLOAD PUSH2 0x567 SWAP2 SWAP1 PUSH2 0x37DC JUMP JUMPDEST PUSH1 0x40 MLOAD DUP1 SWAP2 SUB SWAP1 RETURN JUMPDEST CALLVALUE DUP1 ISZERO PUSH2 0x57C JUMPI PUSH1 0x0 DUP1 REVERT JUMPDEST POP PUSH2 0x597 PUSH1 0x4 DUP1 CALLDATASIZE SUB DUP2 ADD SWAP1 PUSH2 0x592 SWAP2 SWAP1 PUSH2 0x367E JUMP JUMPDEST PUSH2 0x1569 JUMP JUMPDEST STOP JUMPDEST CALLVALUE DUP1 ISZERO PUSH2 0x5A5 JUMPI PUSH1 0x0 DUP1 REVERT JUMPDEST POP PUSH2 0x5C0 PUSH1 0x4 DUP1 CALLDATASIZE SUB DUP2 ADD SWAP1 PUSH2 0x5BB SWAP2 SWAP1 PUSH2 0x367E JUMP JUMPDEST PUSH2 0x1617 JUMP JUMPDEST STOP JUMPDEST CALLVALUE DUP1 ISZERO PUSH2 0x5CE JUMPI PUSH1 0x0 DUP1 REVERT JUMPDEST POP PUSH2 0x5E9 PUSH1 0x4 DUP1 CALLDATASIZE SUB DUP2 ADD SWAP1 PUSH2 0x5E4 SWAP2 SWAP1 PUSH2 0x36FF JUMP JUMPDEST PUSH2 0x16C5 JUMP JUMPDEST PUSH1 0x40 MLOAD PUSH2 0x5F6 SWAP2 SWAP1 PUSH2 0x37DC JUMP JUMPDEST PUSH1 0x40 MLOAD DUP1 SWAP2 SUB SWAP1 RETURN JUMPDEST CALLVALUE DUP1 ISZERO PUSH2 0x60B JUMPI PUSH1 0x0 DUP1 REVERT JUMPDEST POP PUSH2 0x626 PUSH1 0x4 DUP1 CALLDATASIZE SUB DUP2 ADD SWAP1 PUSH2 0x621 SWAP2 SWAP1 PUSH2 0x367E JUMP JUMPDEST PUSH2 0x1778 JUMP JUMPDEST STOP JUMPDEST CALLVALUE DUP1 ISZERO PUSH2 0x634 JUMPI PUSH1 0x0 DUP1 REVERT JUMPDEST POP PUSH2 0x64F PUSH1 0x4 DUP1 CALLDATASIZE SUB DUP2 ADD SWAP1 PUSH2 0x64A SWAP2 SWAP1 PUSH2 0x36FF JUMP JUMPDEST PUSH2 0x1826 JUMP JUMPDEST PUSH1 0x40 MLOAD PUSH2 0x65C SWAP2 SWAP1 PUSH2 0x37DC JUMP JUMPDEST PUSH1 0x40 MLOAD DUP1 SWAP2 SUB SWAP1 RETURN JUMPDEST CALLVALUE DUP1 ISZERO PUSH2 0x671 JUMPI PUSH1 0x0 DUP1 REVERT JUMPDEST POP PUSH2 0x68C PUSH1 0x4 DUP1 CALLDATASIZE SUB DUP2 ADD SWAP1 PUSH2 0x687 SWAP2 SWAP1 PUSH2 0x36FF JUMP JUMPDEST PUSH2 0x18D9 JUMP JUMPDEST PUSH1 0x40 MLOAD PUSH2 0x699 SWAP2 SWAP1 PUSH2 0x37DC JUMP JUMPDEST PUSH1 0x40 MLOAD DUP1 SWAP2 SUB SWAP1 RETURN JUMPDEST CALLVALUE DUP1 ISZERO PUSH2 0x6AE JUMPI PUSH1 0x0 DUP1 REVERT JUMPDEST POP PUSH2 0x6C9 PUSH1 0x4 DUP1 CALLDATASIZE SUB DUP2 ADD SWAP1 PUSH2 0x6C4 SWAP2 SWAP1 PUSH2 0x392E JUMP JUMPDEST PUSH2 0x198C JUMP JUMPDEST PUSH1 0x40 MLOAD PUSH2 0x6D6 SWAP2 SWAP1 PUSH2 0x37DC JUMP JUMPDEST PUSH1 0x40 MLOAD DUP1 SWAP2 SUB SWAP1 RETURN JUMPDEST CALLVALUE DUP1 ISZERO PUSH2 0x6EB JUMPI PUSH1 0x0 DUP1 REVERT JUMPDEST POP PUSH2 0x706 PUSH1 0x4 DUP1 CALLDATASIZE SUB DUP2 ADD SWAP1 PUSH2 0x701 SWAP2 SWAP1 PUSH2 0x392E JUMP JUMPDEST PUSH2 0x1A42 JUMP JUMPDEST PUSH1 0x40 MLOAD PUSH2 0x713 SWAP2 SWAP1 PUSH2 0x37DC JUMP JUMPDEST PUSH1 0x40 MLOAD DUP1 SWAP2 SUB SWAP1 RETURN JUMPDEST CALLVALUE DUP1 ISZERO PUSH2 0x728 JUMPI PUSH1 0x0 DUP1 REVERT JUMPDEST POP PUSH2 0x743 PUSH1 0x4 DUP1 CALLDATASIZE SUB DUP2 ADD SWAP1 PUSH2 0x73E SWAP2 SWAP1 PUSH2 0x367E JUMP JUMPDEST PUSH2 0x1AF8 JUMP JUMPDEST STOP JUMPDEST CALLVALUE DUP1 ISZERO PUSH2 0x751 JUMPI PUSH1 0x0 DUP1 REVERT JUMPDEST POP PUSH2 0x76C PUSH1 0x4 DUP1 CALLDATASIZE SUB DUP2 ADD SWAP1 PUSH2 0x767 SWAP2 SWAP1 PUSH2 0x36FF JUMP JUMPDEST PUSH2 0x1BA6 JUMP JUMPDEST PUSH1 0x40 MLOAD PUSH2 0x779 SWAP2 SWAP1 PUSH2 0x37DC JUMP JUMPDEST PUSH1 0x40 MLOAD DUP1 SWAP2 SUB SWAP1 RETURN JUMPDEST CALLVALUE DUP1 ISZERO PUSH2 0x78E JUMPI PUSH1 0x0 DUP1 REVERT JUMPDEST POP PUSH2 0x7A9 PUSH1 0x4 DUP1 CALLDATASIZE SUB DUP2 ADD SWAP1 PUSH2 0x7A4 SWAP2 SWAP1 PUSH2 0x36FF JUMP JUMPDEST PUSH2 0x1C59 JUMP JUMPDEST PUSH1 0x40 MLOAD PUSH2 0x7B6 SWAP2 SWAP1 PUSH2 0x37DC JUMP JUMPDEST PUSH1 0x40 MLOAD DUP1 SWAP2 SUB SWAP1 RETURN JUMPDEST CALLVALUE DUP1 ISZERO PUSH2 0x7CB JUMPI PUSH1 0x0 DUP1 REVERT JUMPDEST POP PUSH2 0x7E6 PUSH1 0x4 DUP1 CALLDATASIZE SUB DUP2 ADD SWAP1 PUSH2 0x7E1 SWAP2 SWAP1 PUSH2 0x36FF JUMP JUMPDEST PUSH2 0x1D0C JUMP JUMPDEST PUSH1 0x40 MLOAD PUSH2 0x7F3 SWAP2 SWAP1 PUSH2 0x37DC JUMP JUMPDEST PUSH1 0x40 MLOAD DUP1 SWAP2 SUB SWAP1 RETURN JUMPDEST CALLVALUE DUP1 ISZERO PUSH2 0x808 JUMPI PUSH1 0x0 DUP1 REVERT JUMPDEST POP PUSH2 0x823 PUSH1 0x4 DUP1 CALLDATASIZE SUB DUP2 ADD SWAP1 PUSH2 0x81E SWAP2 SWAP1 PUSH2 0x392E JUMP JUMPDEST PUSH2 0x1DBF JUMP JUMPDEST PUSH1 0x40 MLOAD PUSH2 0x830 SWAP2 SWAP1 PUSH2 0x37DC JUMP JUMPDEST PUSH1 0x40 MLOAD DUP1 SWAP2 SUB SWAP1 RETURN JUMPDEST CALLVALUE DUP1 ISZERO PUSH2 0x845 JUMPI PUSH1 0x0 DUP1 REVERT JUMPDEST POP PUSH2 0x860 PUSH1 0x4 DUP1 CALLDATASIZE SUB DUP2 ADD SWAP1 PUSH2 0x85B SWAP2 SWAP1 PUSH2 0x36FF JUMP JUMPDEST PUSH2 0x1E75 JUMP JUMPDEST PUSH1 0x40 MLOAD PUSH2 0x86D SWAP2 SWAP1 PUSH2 0x37DC JUMP JUMPDEST PUSH1 0x40 MLOAD DUP1 SWAP2 SUB SWAP1 RETURN JUMPDEST CALLVALUE DUP1 ISZERO PUSH2 0x882 JUMPI PUSH1 0x0 DUP1 REVERT JUMPDEST POP PUSH2 0x89D PUSH1 0x4 DUP1 CALLDATASIZE SUB DUP2 ADD SWAP1 PUSH2 0x898 SWAP2 SWAP1 PUSH2 0x36FF JUMP JUMPDEST PUSH2 0x1F28 JUMP JUMPDEST PUSH1 0x40 MLOAD PUSH2 0x8AA SWAP2 SWAP1 PUSH2 0x37DC JUMP JUMPDEST PUSH1 0x40 MLOAD DUP1 SWAP2 SUB SWAP1 RETURN JUMPDEST CALLVALUE DUP1 ISZERO PUSH2 0x8BF JUMPI PUSH1 0x0 DUP1 REVERT JUMPDEST POP PUSH2 0x8DA PUSH1 0x4 DUP1 CALLDATASIZE SUB DUP2 ADD SWAP1 PUSH2 0x8D5 SWAP2 SWAP1 PUSH2 0x392E JUMP JUMPDEST PUSH2 0x1FDB JUMP JUMPDEST PUSH1 0x40 MLOAD PUSH2 0x8E7 SWAP2 SWAP1 PUSH2 0x37DC JUMP JUMPDEST PUSH1 0x40 MLOAD DUP1 SWAP2 SUB SWAP1 RETURN JUMPDEST CALLVALUE DUP1 ISZERO PUSH2 0x8FC JUMPI PUSH1 0x0 DUP1 REVERT JUMPDEST POP PUSH2 0x917 PUSH1 0x4 DUP1 CALLDATASIZE SUB DUP2 ADD SWAP1 PUSH2 0x912 SWAP2 SWAP1 PUSH2 0x36FF JUMP JUMPDEST PUSH2 0x2091 JUMP JUMPDEST PUSH1 0x40 MLOAD PUSH2 0x924 SWAP2 SWAP1 PUSH2 0x37DC JUMP JUMPDEST PUSH1 0x40 MLOAD DUP1 SWAP2 SUB SWAP1 RETURN JUMPDEST CALLVALUE DUP1 ISZERO PUSH2 0x939 JUMPI PUSH1 0x0 DUP1 REVERT JUMPDEST POP PUSH2 0x954 PUSH1 0x4 DUP1 CALLDATASIZE SUB DUP2 ADD SWAP1 PUSH2 0x94F SWAP2 SWAP1 PUSH2 0x392E JUMP JUMPDEST PUSH2 0x2144 JUMP JUMPDEST PUSH1 0x40 MLOAD PUSH2 0x961 SWAP2 SWAP1 PUSH2 0x37DC JUMP JUMPDEST PUSH1 0x40 MLOAD DUP1 SWAP2 SUB SWAP1 RETURN JUMPDEST CALLVALUE DUP1 ISZERO PUSH2 0x976 JUMPI PUSH1 0x0 DUP1 REVERT JUMPDEST POP PUSH2 0x991 PUSH1 0x4 DUP1 CALLDATASIZE SUB DUP2 ADD SWAP1 PUSH2 0x98C SWAP2 SWAP1 PUSH2 0x392E JUMP JUMPDEST PUSH2 0x21FA JUMP JUMPDEST PUSH1 0x40 MLOAD PUSH2 0x99E SWAP2 SWAP1 PUSH2 0x37DC JUMP JUMPDEST PUSH1 0x40 MLOAD DUP1 SWAP2 SUB SWAP1 RETURN JUMPDEST CALLVALUE DUP1 ISZERO PUSH2 0x9B3 JUMPI PUSH1 0x0 DUP1 REVERT JUMPDEST POP PUSH2 0x9CE PUSH1 0x4 DUP1 CALLDATASIZE SUB DUP2 ADD SWAP1 PUSH2 0x9C9 SWAP2 SWAP1 PUSH2 0x392E JUMP JUMPDEST PUSH2 0x22B0 JUMP JUMPDEST PUSH1 0x40 MLOAD PUSH2 0x9DB SWAP2 SWAP1 PUSH2 0x37DC JUMP JUMPDEST PUSH1 0x40 MLOAD DUP1 SWAP2 SUB SWAP1 RETURN JUMPDEST CALLVALUE DUP1 ISZERO PUSH2 0x9F0 JUMPI PUSH1 0x0 DUP1 REVERT JUMPDEST POP PUSH2 0xA0B PUSH1 0x4 DUP1 CALLDATASIZE SUB DUP2 ADD SWAP1 PUSH2 0xA06 SWAP2 SWAP1 PUSH2 0x36FF JUMP JUMPDEST PUSH2 0x2366 JUMP JUMPDEST PUSH1 0x40 MLOAD PUSH2 0xA18 SWAP2 SWAP1 PUSH2 0x37DC JUMP JUMPDEST PUSH1 0x40 MLOAD DUP1 SWAP2 SUB SWAP1 RETURN JUMPDEST CALLVALUE DUP1 ISZERO PUSH2 0xA2D JUMPI PUSH1 0x0 DUP1 REVERT JUMPDEST POP PUSH2 0xA48 PUSH1 0x4 DUP1 CALLDATASIZE SUB DUP2 ADD SWAP1 PUSH2 0xA43 SWAP2 SWAP1 PUSH2 0x367E JUMP JUMPDEST PUSH2 0x2419 JUMP JUMPDEST STOP JUMPDEST CALLVALUE DUP1 ISZERO PUSH2 0xA56 JUMPI PUSH1 0x0 DUP1 REVERT JUMPDEST POP PUSH2 0xA71 PUSH1 0x4 DUP1 CALLDATASIZE SUB DUP2 ADD SWAP1 PUSH2 0xA6C SWAP2 SWAP1 PUSH2 0x367E JUMP JUMPDEST PUSH2 0x24C7 JUMP JUMPDEST STOP JUMPDEST CALLVALUE DUP1 ISZERO PUSH2 0xA7F JUMPI PUSH1 0x0 DUP1 REVERT JUMPDEST POP PUSH2 0xA9A PUSH1 0x4 DUP1 CALLDATASIZE SUB DUP2 ADD SWAP1 PUSH2 0xA95 SWAP2 SWAP1 PUSH2 0x367E JUMP JUMPDEST PUSH2 0x2575 JUMP JUMPDEST STOP JUMPDEST CALLVALUE DUP1 ISZERO PUSH2 0xAA8 JUMPI PUSH1 0x0 DUP1 REVERT JUMPDEST POP PUSH2 0xAC3 PUSH1 0x4 DUP1 CALLDATASIZE SUB DUP2 ADD SWAP1 PUSH2 0xABE SWAP2 SWAP1 PUSH2 0x367E JUMP JUMPDEST PUSH2 0x2623 JUMP JUMPDEST STOP JUMPDEST CALLVALUE DUP1 ISZERO PUSH2 0xAD1 JUMPI PUSH1 0x0 DUP1 REVERT JUMPDEST POP PUSH2 0xAEC PUSH1 0x4 DUP1 CALLDATASIZE SUB DUP2 ADD SWAP1 PUSH2 0xAE7 SWAP2 SWAP1 PUSH2 0x36FF JUMP JUMPDEST PUSH2 0x26D1 JUMP JUMPDEST PUSH1 0x40 MLOAD PUSH2 0xAF9 SWAP2 SWAP1 PUSH2 0x39B8 JUMP JUMPDEST PUSH1 0x40 MLOAD DUP1 SWAP2 SUB SWAP1 RETURN JUMPDEST CALLVALUE DUP1 ISZERO PUSH2 0xB0E JUMPI PUSH1 0x0 DUP1 REVERT JUMPDEST POP PUSH2 0xB29 PUSH1 0x4 DUP1 CALLDATASIZE SUB DUP2 ADD SWAP1 PUSH2 0xB24 SWAP2 SWAP1 PUSH2 0x367E JUMP JUMPDEST PUSH2 0x271B JUMP JUMPDEST STOP JUMPDEST CALLVALUE DUP1 ISZERO PUSH2 0xB37 JUMPI PUSH1 0x0 DUP1 REVERT JUMPDEST POP PUSH2 0xB52 PUSH1 0x4 DUP1 CALLDATASIZE SUB DUP2 ADD SWAP1 PUSH2 0xB4D SWAP2 SWAP1 PUSH2 0x36FF JUMP JUMPDEST PUSH2 0x27C9 JUMP JUMPDEST PUSH1 0x40 MLOAD PUSH2 0xB5F SWAP2 SWAP1 PUSH2 0x37DC JUMP JUMPDEST PUSH1 0x40 MLOAD DUP1 SWAP2 SUB SWAP1 RETURN JUMPDEST CALLVALUE DUP1 ISZERO PUSH2 0xB74 JUMPI PUSH1 0x0 DUP1 REVERT JUMPDEST POP PUSH2 0xB8F PUSH1 0x4 DUP1 CALLDATASIZE SUB DUP2 ADD SWAP1 PUSH2 0xB8A SWAP2 SWAP1 PUSH2 0x392E JUMP JUMPDEST PUSH2 0x287C JUMP JUMPDEST PUSH1 0x40 MLOAD PUSH2 0xB9C SWAP2 SWAP1 PUSH2 0x37DC JUMP JUMPDEST PUSH1 0x40 MLOAD DUP1 SWAP2 SUB SWAP1 RETURN JUMPDEST CALLVALUE DUP1 ISZERO PUSH2 0xBB1 JUMPI PUSH1 0x0 DUP1 REVERT JUMPDEST POP PUSH2 0xBCC PUSH1 0x4 DUP1 CALLDATASIZE SUB DUP2 ADD SWAP1 PUSH2 0xBC7 SWAP2 SWAP1 PUSH2 0x392E JUMP JUMPDEST PUSH2 0x2932 JUMP JUMPDEST PUSH1 0x40 MLOAD PUSH2 0xBD9 SWAP2 SWAP1 PUSH2 0x37DC JUMP JUMPDEST PUSH1 0x40 MLOAD DUP1 SWAP2 SUB SWAP1 RETURN JUMPDEST CALLVALUE DUP1 ISZERO PUSH2 0xBEE JUMPI PUSH1 0x0 DUP1 REVERT JUMPDEST POP PUSH2 0xC09 PUSH1 0x4 DUP1 CALLDATASIZE SUB DUP2 ADD SWAP1 PUSH2 0xC04 SWAP2 SWAP1 PUSH2 0x392E JUMP JUMPDEST PUSH2 0x29E8 JUMP JUMPDEST PUSH1 0x40 MLOAD PUSH2 0xC16 SWAP2 SWAP1 PUSH2 0x37DC JUMP JUMPDEST PUSH1 0x40 MLOAD DUP1 SWAP2 SUB SWAP1 RETURN JUMPDEST CALLVALUE DUP1 ISZERO PUSH2 0xC2B JUMPI PUSH1 0x0 DUP1 REVERT JUMPDEST POP PUSH2 0xC46 PUSH1 0x4 DUP1 CALLDATASIZE SUB DUP2 ADD SWAP1 PUSH2 0xC41 SWAP2 SWAP1 PUSH2 0x36FF JUMP JUMPDEST PUSH2 0x2A9E JUMP JUMPDEST PUSH1 0x40 MLOAD PUSH2 0xC53 SWAP2 SWAP1 PUSH2 0x37DC JUMP JUMPDEST PUSH1 0x40 MLOAD DUP1 SWAP2 SUB SWAP1 RETURN JUMPDEST CALLVALUE DUP1 ISZERO PUSH2 0xC68 JUMPI PUSH1 0x0 DUP1 REVERT JUMPDEST POP PUSH2 0xC83 PUSH1 0x4 DUP1 CALLDATASIZE SUB DUP2 ADD SWAP1 PUSH2 0xC7E SWAP2 SWAP1 PUSH2 0x36FF JUMP JUMPDEST PUSH2 0x2B51 JUMP JUMPDEST PUSH1 0x40 MLOAD PUSH2 0xC90 SWAP2 SWAP1 PUSH2 0x37DC JUMP JUMPDEST PUSH1 0x40 MLOAD DUP1 SWAP2 SUB SWAP1 RETURN JUMPDEST CALLVALUE DUP1 ISZERO PUSH2 0xCA5 JUMPI PUSH1 0x0 DUP1 REVERT JUMPDEST POP PUSH2 0xCC0 PUSH1 0x4 DUP1 CALLDATASIZE SUB DUP2 ADD SWAP1 PUSH2 0xCBB SWAP2 SWAP1 PUSH2 0x392E JUMP JUMPDEST PUSH2 0x2C04 JUMP JUMPDEST PUSH1 0x40 MLOAD PUSH2 0xCCD SWAP2 SWAP1 PUSH2 0x37DC JUMP JUMPDEST PUSH1 0x40 MLOAD DUP1 SWAP2 SUB SWAP1 RETURN JUMPDEST CALLVALUE DUP1 ISZERO PUSH2 0xCE2 JUMPI PUSH1 0x0 DUP1 REVERT JUMPDEST POP PUSH2 0xCFD PUSH1 0x4 DUP1 CALLDATASIZE SUB DUP2 ADD SWAP1 PUSH2 0xCF8 SWAP2 SWAP1 PUSH2 0x367E JUMP JUMPDEST PUSH2 0x2CBA JUMP JUMPDEST STOP JUMPDEST PUSH2 0xD19 PUSH1 0x4 DUP1 CALLDATASIZE SUB DUP2 ADD SWAP1 PUSH2 0xD14 SWAP2 SWAP1 PUSH2 0x36FF JUMP JUMPDEST PUSH2 0x2D68 JUMP JUMPDEST STOP JUMPDEST CALLVALUE DUP1 ISZERO PUSH2 0xD27 JUMPI PUSH1 0x0 DUP1 REVERT JUMPDEST POP PUSH2 0xD42 PUSH1 0x4 DUP1 CALLDATASIZE SUB DUP2 ADD SWAP1 PUSH2 0xD3D SWAP2 SWAP1 PUSH2 0x367E JUMP JUMPDEST PUSH2 0x2ED5 JUMP JUMPDEST STOP JUMPDEST CALLVALUE DUP1 ISZERO PUSH2 0xD50 JUMPI PUSH1 0x0 DUP1 REVERT JUMPDEST POP PUSH2 0xD6B PUSH1 0x4 DUP1 CALLDATASIZE SUB DUP2 ADD SWAP1 PUSH2 0xD66 SWAP2 SWAP1 PUSH2 0x392E JUMP JUMPDEST PUSH2 0x2F83 JUMP JUMPDEST PUSH1 0x40 MLOAD PUSH2 0xD78 SWAP2 SWAP1 PUSH2 0x37DC JUMP JUMPDEST PUSH1 0x40 MLOAD DUP1 SWAP2 SUB SWAP1 RETURN JUMPDEST CALLVALUE DUP1 ISZERO PUSH2 0xD8D JUMPI PUSH1 0x0 DUP1 REVERT JUMPDEST POP PUSH2 0xDA8 PUSH1 0x4 DUP1 CALLDATASIZE SUB DUP2 ADD SWAP1 PUSH2 0xDA3 SWAP2 SWAP1 PUSH2 0x392E JUMP JUMPDEST PUSH2 0x3039 JUMP JUMPDEST PUSH1 0x40 MLOAD PUSH2 0xDB5 SWAP2 SWAP1 PUSH2 0x37DC JUMP JUMPDEST PUSH1 0x40 MLOAD DUP1 SWAP2 SUB SWAP1 RETURN JUMPDEST CALLVALUE DUP1 ISZERO PUSH2 0xDCA JUMPI PUSH1 0x0 DUP1 REVERT JUMPDEST POP PUSH2 0xDE5 PUSH1 0x4 DUP1 CALLDATASIZE SUB DUP2 ADD SWAP1 PUSH2 0xDE0 SWAP2 SWAP1 PUSH2 0x367E JUMP JUMPDEST PUSH2 0x30EF JUMP JUMPDEST STOP JUMPDEST CALLVALUE DUP1 ISZERO PUSH2 0xDF3 JUMPI PUSH1 0x0 DUP1 REVERT JUMPDEST POP PUSH2 0xE0E PUSH1 0x4 DUP1 CALLDATASIZE SUB DUP2 ADD SWAP1 PUSH2 0xE09 SWAP2 SWAP1 PUSH2 0x367E JUMP JUMPDEST PUSH2 0x319D JUMP JUMPDEST STOP JUMPDEST CALLVALUE DUP1 ISZERO PUSH2 0xE1C JUMPI PUSH1 0x0 DUP1 REVERT JUMPDEST POP PUSH2 0xE37 PUSH1 0x4 DUP1 CALLDATASIZE SUB DUP2 ADD SWAP1 PUSH2 0xE32 SWAP2 SWAP1 PUSH2 0x36FF JUMP JUMPDEST PUSH2 0x324B JUMP JUMPDEST PUSH1 0x40 MLOAD PUSH2 0xE44 SWAP2 SWAP1 PUSH2 0x39EC JUMP JUMPDEST PUSH1 0x40 MLOAD DUP1 SWAP2 SUB SWAP1 RETURN JUMPDEST CALLER PUSH20 0xFFFFFFFFFFFFFFFFFFFFFFFFFFFFFFFFFFFFFFFF AND PUSH1 0x0 DUP6 DUP6 PUSH1 0x40 MLOAD PUSH2 0xE76 SWAP3 SWAP2 SWAP1 PUSH2 0x3A37 JUMP JUMPDEST SWAP1 DUP2 MSTORE PUSH1 0x20 ADD PUSH1 0x40 MLOAD DUP1 SWAP2 SUB SWAP1 KECCAK256 PUSH1 0x0 SWAP1 SLOAD SWAP1 PUSH2 0x100 EXP SWAP1 DIV PUSH20 0xFFFFFFFFFFFFFFFFFFFFFFFFFFFFFFFFFFFFFFFF AND PUSH20 0xFFFFFFFFFFFFFFFFFFFFFFFFFFFFFFFFFFFFFFFF AND EQ PUSH2 0xEC5 JUMPI PUSH1 0x0 DUP1 REVERT JUMPDEST DUP2 DUP2 PUSH1 0x9 DUP7 DUP7 PUSH1 0x40 MLOAD PUSH2 0xED9 SWAP3 SWAP2 SWAP1 PUSH2 0x3A37 JUMP JUMPDEST SWAP1 DUP2 MSTORE PUSH1 0x20 ADD PUSH1 0x40 MLOAD DUP1 SWAP2 SUB SWAP1 KECCAK256 SWAP2 DUP3 PUSH2 0xEF4 SWAP3 SWAP2 SWAP1 PUSH2 0x3C67 JUMP JUMPDEST POP POP POP POP POP JUMP JUMPDEST CALLER PUSH20 0xFFFFFFFFFFFFFFFFFFFFFFFFFFFFFFFFFFFFFFFF AND PUSH1 0x0 DUP6 DUP6 PUSH1 0x40 MLOAD PUSH2 0xF24 SWAP3 SWAP2 SWAP1 PUSH2 0x3A37 JUMP JUMPDEST SWAP1 DUP2 MSTORE PUSH1 0x20 ADD PUSH1 0x40 MLOAD DUP1 SWAP2 SUB SWAP1 KECCAK256 PUSH1 0x0 SWAP1 SLOAD SWAP1 PUSH2 0x100 EXP SWAP1 DIV PUSH20 0xFFFFFFFFFFFFFFFFFFFFFFFFFFFFFFFFFFFFFFFF AND PUSH20 0xFFFFFFFFFFFFFFFFFFFFFFFFFFFFFFFFFFFFFFFF AND EQ PUSH2 0xF73 JUMPI PUSH1 0x0 DUP1 REVERT JUMPDEST DUP2 DUP2 PUSH1 0x8 DUP7 DUP7 PUSH1 0x40 MLOAD PUSH2 0xF87 SWAP3 SWAP2 SWAP1 PUSH2 0x3A37 JUMP JUMPDEST SWAP1 DUP2 MSTORE PUSH1 0x20 ADD PUSH1 0x40 MLOAD DUP1 SWAP2 SUB SWAP1 KECCAK256 SWAP2 DUP3 PUSH2 0xFA2 SWAP3 SWAP2 SWAP1 PUSH2 0x3C67 JUMP JUMPDEST POP POP POP POP POP JUMP JUMPDEST PUSH1 0x60 PUSH1 0x1 DUP4 DUP4 PUSH1 0x40 MLOAD PUSH2 0xFBD SWAP3 SWAP2 SWAP1 PUSH2 0x3A37 JUMP JUMPDEST SWAP1 DUP2 MSTORE PUSH1 0x20 ADD PUSH1 0x40 MLOAD DUP1 SWAP2 SUB SWAP1 KECCAK256 DUP1 SLOAD PUSH2 0xFD6 SWAP1 PUSH2 0x3A8A JUMP JUMPDEST DUP1 PUSH1 0x1F ADD PUSH1 0x20 DUP1 SWAP2 DIV MUL PUSH1 0x20 ADD PUSH1 0x40 MLOAD SWAP1 DUP2 ADD PUSH1 0x40 MSTORE DUP1 SWAP3 SWAP2 SWAP1 DUP2 DUP2 MSTORE PUSH1 0x20 ADD DUP3 DUP1 SLOAD PUSH2 0x1002 SWAP1 PUSH2 0x3A8A JUMP JUMPDEST DUP1 ISZERO PUSH2 0x104F JUMPI DUP1 PUSH1 0x1F LT PUSH2 0x1024 JUMPI PUSH2 0x100 DUP1 DUP4 SLOAD DIV MUL DUP4 MSTORE SWAP2 PUSH1 0x20 ADD SWAP2 PUSH2 0x104F JUMP JUMPDEST DUP3 ADD SWAP2 SWAP1 PUSH1 0x0 MSTORE PUSH1 0x20 PUSH1 0x0 KECCAK256 SWAP1 JUMPDEST DUP2 SLOAD DUP2 MSTORE SWAP1 PUSH1 0x1 ADD SWAP1 PUSH1 0x20 ADD DUP1 DUP4 GT PUSH2 0x1032 JUMPI DUP3 SWAP1 SUB PUSH1 0x1F AND DUP3 ADD SWAP2 JUMPDEST POP POP POP POP POP SWAP1 POP SWAP3 SWAP2 POP POP JUMP JUMPDEST CALLER PUSH20 0xFFFFFFFFFFFFFFFFFFFFFFFFFFFFFFFFFFFFFFFF AND PUSH1 0x0 DUP6 DUP6 PUSH1 0x40 MLOAD PUSH2 0x1085 SWAP3 SWAP2 SWAP1 PUSH2 0x3A37 JUMP JUMPDEST SWAP1 DUP2 MSTORE PUSH1 0x20 ADD PUSH1 0x40 MLOAD DUP1 SWAP2 SUB SWAP1 KECCAK256 PUSH1 0x0 SWAP1 SLOAD SWAP1 PUSH2 0x100 EXP SWAP1 DIV PUSH20 0xFFFFFFFFFFFFFFFFFFFFFFFFFFFFFFFFFFFFFFFF AND PUSH20 0xFFFFFFFFFFFFFFFFFFFFFFFFFFFFFFFFFFFFFFFF AND EQ PUSH2 0x10D4 JUMPI PUSH1 0x0 DUP1 REVERT JUMPDEST DUP2 DUP2 PUSH1 0x10 DUP7 DUP7 PUSH1 0x40 MLOAD PUSH2 0x10E8 SWAP3 SWAP2 SWAP1 PUSH2 0x3A37 JUMP JUMPDEST SWAP1 DUP2 MSTORE PUSH1 0x20 ADD PUSH1 0x40 MLOAD DUP1 SWAP2 SUB SWAP1 KECCAK256 SWAP2 DUP3 PUSH2 0x1103 SWAP3 SWAP2 SWAP1 PUSH2 0x3C67 JUMP JUMPDEST POP POP POP POP POP JUMP JUMPDEST PUSH1 0x6 DUP2 DUP1 MLOAD PUSH1 0x20 DUP2 ADD DUP3 ADD DUP1 MLOAD DUP5 DUP3 MSTORE PUSH1 0x20 DUP4 ADD PUSH1 0x20 DUP6 ADD KECCAK256 DUP2 DUP4 MSTORE DUP1 SWAP6 POP POP POP POP POP POP PUSH1 0x0 SWAP2 POP SWAP1 POP DUP1 SLOAD PUSH2 0x113F SWAP1 PUSH2 0x3A8A JUMP JUMPDEST DUP1 PUSH1 0x1F ADD PUSH1 0x20 DUP1 SWAP2 DIV MUL PUSH1 0x20 ADD PUSH1 0x40 MLOAD SWAP1 DUP2 ADD PUSH1 0x40 MSTORE DUP1 SWAP3 SWAP2 SWAP1 DUP2 DUP2 MSTORE PUSH1 0x20 ADD DUP3 DUP1 SLOAD PUSH2 0x116B SWAP1 PUSH2 0x3A8A JUMP JUMPDEST DUP1 ISZERO PUSH2 0x11B8 JUMPI DUP1 PUSH1 0x1F LT PUSH2 0x118D JUMPI PUSH2 0x100 DUP1 DUP4 SLOAD DIV MUL DUP4 MSTORE SWAP2 PUSH1 0x20 ADD SWAP2 PUSH2 0x11B8 JUMP JUMPDEST DUP3 ADD SWAP2 SWAP1 PUSH1 0x0 MSTORE PUSH1 0x20 PUSH1 0x0 KECCAK256 SWAP1 JUMPDEST DUP2 SLOAD DUP2 MSTORE SWAP1 PUSH1 0x1 ADD SWAP1 PUSH1 0x20 ADD DUP1 DUP4 GT PUSH2 0x119B JUMPI DUP3 SWAP1 SUB PUSH1 0x1F AND DUP3 ADD SWAP2 JUMPDEST POP POP POP POP POP DUP2 JUMP JUMPDEST PUSH1 0xC DUP2 DUP1 MLOAD PUSH1 0x20 DUP2 ADD DUP3 ADD DUP1 MLOAD DUP5 DUP3 MSTORE PUSH1 0x20 DUP4 ADD PUSH1 0x20 DUP6 ADD KECCAK256 DUP2 DUP4 MSTORE DUP1 SWAP6 POP POP POP POP POP POP PUSH1 0x0 SWAP2 POP SWAP1 POP DUP1 SLOAD PUSH2 0x11F5 SWAP1 PUSH2 0x3A8A JUMP JUMPDEST DUP1 PUSH1 0x1F ADD PUSH1 0x20 DUP1 SWAP2 DIV MUL PUSH1 0x20 ADD PUSH1 0x40 MLOAD SWAP1 DUP2 ADD PUSH1 0x40 MSTORE DUP1 SWAP3 SWAP2 SWAP1 DUP2 DUP2 MSTORE PUSH1 0x20 ADD DUP3 DUP1 SLOAD PUSH2 0x1221 SWAP1 PUSH2 0x3A8A JUMP JUMPDEST DUP1 ISZERO PUSH2 0x126E JUMPI DUP1 PUSH1 0x1F LT PUSH2 0x1243 JUMPI PUSH2 0x100 DUP1 DUP4 SLOAD DIV MUL DUP4 MSTORE SWAP2 PUSH1 0x20 ADD SWAP2 PUSH2 0x126E JUMP JUMPDEST DUP3 ADD SWAP2 SWAP1 PUSH1 0x0 MSTORE PUSH1 0x20 PUSH1 0x0 KECCAK256 SWAP1 JUMPDEST DUP2 SLOAD DUP2 MSTORE SWAP1 PUSH1 0x1 ADD SWAP1 PUSH1 0x20 ADD DUP1 DUP4 GT PUSH2 0x1251 JUMPI DUP3 SWAP1 SUB PUSH1 0x1F AND DUP3 ADD SWAP2 JUMPDEST POP POP POP POP POP DUP2 JUMP JUMPDEST PUSH1 0x0 DUP2 DUP1 MLOAD PUSH1 0x20 DUP2 ADD DUP3 ADD DUP1 MLOAD DUP5 DUP3 MSTORE PUSH1 0x20 DUP4 ADD PUSH1 0x20 DUP6 ADD KECCAK256 DUP2 DUP4 MSTORE DUP1 SWAP6 POP POP POP POP POP POP PUSH1 0x0 SWAP2 POP SLOAD SWAP1 PUSH2 0x100 EXP SWAP1 DIV PUSH20 0xFFFFFFFFFFFFFFFFFFFFFFFFFFFFFFFFFFFFFFFF AND DUP2 JUMP JUMPDEST PUSH1 0x11 DUP1 SLOAD PUSH2 0x12CC SWAP1 PUSH2 0x3A8A JUMP JUMPDEST DUP1 PUSH1 0x1F ADD PUSH1 0x20 DUP1 SWAP2 DIV MUL PUSH1 0x20 ADD PUSH1 0x40 MLOAD SWAP1 DUP2 ADD PUSH1 0x40 MSTORE DUP1 SWAP3 SWAP2 SWAP1 DUP2 DUP2 MSTORE PUSH1 0x20 ADD DUP3 DUP1 SLOAD PUSH2 0x12F8 SWAP1 PUSH2 0x3A8A JUMP JUMPDEST DUP1 ISZERO PUSH2 0x1345 JUMPI DUP1 PUSH1 0x1F LT PUSH2 0x131A JUMPI PUSH2 0x100 DUP1 DUP4 SLOAD DIV MUL DUP4 MSTORE SWAP2 PUSH1 0x20 ADD SWAP2 PUSH2 0x1345 JUMP JUMPDEST DUP3 ADD SWAP2 SWAP1 PUSH1 0x0 MSTORE PUSH1 0x20 PUSH1 0x0 KECCAK256 SWAP1 JUMPDEST DUP2 SLOAD DUP2 MSTORE SWAP1 PUSH1 0x1 ADD SWAP1 PUSH1 0x20 ADD DUP1 DUP4 GT PUSH2 0x1328 JUMPI DUP3 SWAP1 SUB PUSH1 0x1F AND DUP3 ADD SWAP2 JUMPDEST POP POP POP POP POP DUP2 JUMP JUMPDEST PUSH1 0x60 PUSH1 0xA DUP4 DUP4 PUSH1 0x40 MLOAD PUSH2 0x1361 SWAP3 SWAP2 SWAP1 PUSH2 0x3A37 JUMP JUMPDEST SWAP1 DUP2 MSTORE PUSH1 0x20 ADD PUSH1 0x40 MLOAD DUP1 SWAP2 SUB SWAP1 KECCAK256 DUP1 SLOAD PUSH2 0x137A SWAP1 PUSH2 0x3A8A JUMP JUMPDEST DUP1 PUSH1 0x1F ADD PUSH1 0x20 DUP1 SWAP2 DIV MUL PUSH1 0x20 ADD PUSH1 0x40 MLOAD SWAP1 DUP2 ADD PUSH1 0x40 MSTORE DUP1 SWAP3 SWAP2 SWAP1 DUP2 DUP2 MSTORE PUSH1 0x20 ADD DUP3 DUP1 SLOAD PUSH2 0x13A6 SWAP1 PUSH2 0x3A8A JUMP JUMPDEST DUP1 ISZERO PUSH2 0x13F3 JUMPI DUP1 PUSH1 0x1F LT PUSH2 0x13C8 JUMPI PUSH2 0x100 DUP1 DUP4 SLOAD DIV MUL DUP4 MSTORE SWAP2 PUSH1 0x20 ADD SWAP2 PUSH2 0x13F3 JUMP JUMPDEST DUP3 ADD SWAP2 SWAP1 PUSH1 0x0 MSTORE PUSH1 0x20 PUSH1 0x0 KECCAK256 SWAP1 JUMPDEST DUP2 SLOAD DUP2 MSTORE SWAP1 PUSH1 0x1 ADD SWAP1 PUSH1 0x20 ADD DUP1 DUP4 GT PUSH2 0x13D6 JUMPI DUP3 SWAP1 SUB PUSH1 0x1F AND DUP3 ADD SWAP2 JUMPDEST POP POP POP POP POP SWAP1 POP SWAP3 SWAP2 POP POP JUMP JUMPDEST PUSH1 0x60 PUSH1 0x5 DUP4 DUP4 PUSH1 0x40 MLOAD PUSH2 0x1414 SWAP3 SWAP2 SWAP1 PUSH2 0x3A37 JUMP JUMPDEST SWAP1 DUP2 MSTORE PUSH1 0x20 ADD PUSH1 0x40 MLOAD DUP1 SWAP2 SUB SWAP1 KECCAK256 DUP1 SLOAD PUSH2 0x142D SWAP1 PUSH2 0x3A8A JUMP JUMPDEST DUP1 PUSH1 0x1F ADD PUSH1 0x20 DUP1 SWAP2 DIV MUL PUSH1 0x20 ADD PUSH1 0x40 MLOAD SWAP1 DUP2 ADD PUSH1 0x40 MSTORE DUP1 SWAP3 SWAP2 SWAP1 DUP2 DUP2 MSTORE PUSH1 0x20 ADD DUP3 DUP1 SLOAD PUSH2 0x1459 SWAP1 PUSH2 0x3A8A JUMP JUMPDEST DUP1 ISZERO PUSH2 0x14A6 JUMPI DUP1 PUSH1 0x1F LT PUSH2 0x147B JUMPI PUSH2 0x100 DUP1 DUP4 SLOAD DIV MUL DUP4 MSTORE SWAP2 PUSH1 0x20 ADD SWAP2 PUSH2 0x14A6 JUMP JUMPDEST DUP3 ADD SWAP2 SWAP1 PUSH1 0x0 MSTORE PUSH1 0x20 PUSH1 0x0 KECCAK256 SWAP1 JUMPDEST DUP2 SLOAD DUP2 MSTORE SWAP1 PUSH1 0x1 ADD SWAP1 PUSH1 0x20 ADD DUP1 DUP4 GT PUSH2 0x1489 JUMPI DUP3 SWAP1 SUB PUSH1 0x1F AND DUP3 ADD SWAP2 JUMPDEST POP POP POP POP POP SWAP1 POP SWAP3 SWAP2 POP POP JUMP JUMPDEST PUSH1 0xE DUP2 DUP1 MLOAD PUSH1 0x20 DUP2 ADD DUP3 ADD DUP1 MLOAD DUP5 DUP3 MSTORE PUSH1 0x20 DUP4 ADD PUSH1 0x20 DUP6 ADD KECCAK256 DUP2 DUP4 MSTORE DUP1 SWAP6 POP POP POP POP POP POP PUSH1 0x0 SWAP2 POP SWAP1 POP DUP1 SLOAD PUSH2 0x14E8 SWAP1 PUSH2 0x3A8A JUMP JUMPDEST DUP1 PUSH1 0x1F ADD PUSH1 0x20 DUP1 SWAP2 DIV MUL PUSH1 0x20 ADD PUSH1 0x40 MLOAD SWAP1 DUP2 ADD PUSH1 0x40 MSTORE DUP1 SWAP3 SWAP2 SWAP1 DUP2 DUP2 MSTORE PUSH1 0x20 ADD DUP3 DUP1 SLOAD PUSH2 0x1514 SWAP1 PUSH2 0x3A8A JUMP JUMPDEST DUP1 ISZERO PUSH2 0x1561 JUMPI DUP1 PUSH1 0x1F LT PUSH2 0x1536 JUMPI PUSH2 0x100 DUP1 DUP4 SLOAD DIV MUL DUP4 MSTORE SWAP2 PUSH1 0x20 ADD SWAP2 PUSH2 0x1561 JUMP JUMPDEST DUP3 ADD SWAP2 SWAP1 PUSH1 0x0 MSTORE PUSH1 0x20 PUSH1 0x0 KECCAK256 SWAP1 JUMPDEST DUP2 SLOAD DUP2 MSTORE SWAP1 PUSH1 0x1 ADD SWAP1 PUSH1 0x20 ADD DUP1 DUP4 GT PUSH2 0x1544 JUMPI DUP3 SWAP1 SUB PUSH1 0x1F AND DUP3 ADD SWAP2 JUMPDEST POP POP POP POP POP DUP2 JUMP JUMPDEST CALLER PUSH20 0xFFFFFFFFFFFFFFFFFFFFFFFFFFFFFFFFFFFFFFFF AND PUSH1 0x0 DUP6 DUP6 PUSH1 0x40 MLOAD PUSH2 0x1592 SWAP3 SWAP2 SWAP1 PUSH2 0x3A37 JUMP JUMPDEST SWAP1 DUP2 MSTORE PUSH1 0x20 ADD PUSH1 0x40 MLOAD DUP1 SWAP2 SUB SWAP1 KECCAK256 PUSH1 0x0 SWAP1 SLOAD SWAP1 PUSH2 0x100 EXP SWAP1 DIV PUSH20 0xFFFFFFFFFFFFFFFFFFFFFFFFFFFFFFFFFFFFFFFF AND PUSH20 0xFFFFFFFFFFFFFFFFFFFFFFFFFFFFFFFFFFFFFFFF AND EQ PUSH2 0x15E1 JUMPI PUSH1 0x0 DUP1 REVERT JUMPDEST DUP2 DUP2 PUSH1 0x2 DUP7 DUP7 PUSH1 0x40 MLOAD PUSH2 0x15F5 SWAP3 SWAP2 SWAP1 PUSH2 0x3A37 JUMP JUMPDEST SWAP1 DUP2 MSTORE PUSH1 0x20 ADD PUSH1 0x40 MLOAD DUP1 SWAP2 SUB SWAP1 KECCAK256 SWAP2 DUP3 PUSH2 0x1610 SWAP3 SWAP2 SWAP1 PUSH2 0x3C67 JUMP JUMPDEST POP POP POP POP POP JUMP JUMPDEST CALLER PUSH20 0xFFFFFFFFFFFFFFFFFFFFFFFFFFFFFFFFFFFFFFFF AND PUSH1 0x0 DUP6 DUP6 PUSH1 0x40 MLOAD PUSH2 0x1640 SWAP3 SWAP2 SWAP1 PUSH2 0x3A37 JUMP JUMPDEST SWAP1 DUP2 MSTORE PUSH1 0x20 ADD PUSH1 0x40 MLOAD DUP1 SWAP2 SUB SWAP1 KECCAK256 PUSH1 0x0 SWAP1 SLOAD SWAP1 PUSH2 0x100 EXP SWAP1 DIV PUSH20 0xFFFFFFFFFFFFFFFFFFFFFFFFFFFFFFFFFFFFFFFF AND PUSH20 0xFFFFFFFFFFFFFFFFFFFFFFFFFFFFFFFFFFFFFFFF AND EQ PUSH2 0x168F JUMPI PUSH1 0x0 DUP1 REVERT JUMPDEST DUP2 DUP2 PUSH1 0xA DUP7 DUP7 PUSH1 0x40 MLOAD PUSH2 0x16A3 SWAP3 SWAP2 SWAP1 PUSH2 0x3A37 JUMP JUMPDEST SWAP1 DUP2 MSTORE PUSH1 0x20 ADD PUSH1 0x40 MLOAD DUP1 SWAP2 SUB SWAP1 KECCAK256 SWAP2 DUP3 PUSH2 0x16BE SWAP3 SWAP2 SWAP1 PUSH2 0x3C67 JUMP JUMPDEST POP POP POP POP POP JUMP JUMPDEST PUSH1 0x60 PUSH1 0x3 DUP4 DUP4 PUSH1 0x40 MLOAD PUSH2 0x16D9 SWAP3 SWAP2 SWAP1 PUSH2 0x3A37 JUMP JUMPDEST SWAP1 DUP2 MSTORE PUSH1 0x20 ADD PUSH1 0x40 MLOAD DUP1 SWAP2 SUB SWAP1 KECCAK256 DUP1 SLOAD PUSH2 0x16F2 SWAP1 PUSH2 0x3A8A JUMP JUMPDEST DUP1 PUSH1 0x1F ADD PUSH1 0x20 DUP1 SWAP2 DIV MUL PUSH1 0x20 ADD PUSH1 0x40 MLOAD SWAP1 DUP2 ADD PUSH1 0x40 MSTORE DUP1 SWAP3 SWAP2 SWAP1 DUP2 DUP2 MSTORE PUSH1 0x20 ADD DUP3 DUP1 SLOAD PUSH2 0x171E SWAP1 PUSH2 0x3A8A JUMP JUMPDEST DUP1 ISZERO PUSH2 0x176B JUMPI DUP1 PUSH1 0x1F LT PUSH2 0x1740 JUMPI PUSH2 0x100 DUP1 DUP4 SLOAD DIV MUL DUP4 MSTORE SWAP2 PUSH1 0x20 ADD SWAP2 PUSH2 0x176B JUMP JUMPDEST DUP3 ADD SWAP2 SWAP1 PUSH1 0x0 MSTORE PUSH1 0x20 PUSH1 0x0 KECCAK256 SWAP1 JUMPDEST DUP2 SLOAD DUP2 MSTORE SWAP1 PUSH1 0x1 ADD SWAP1 PUSH1 0x20 ADD DUP1 DUP4 GT PUSH2 0x174E JUMPI DUP3 SWAP1 SUB PUSH1 0x1F AND DUP3 ADD SWAP2 JUMPDEST POP POP POP POP POP SWAP1 POP SWAP3 SWAP2 POP POP JUMP JUMPDEST CALLER PUSH20 0xFFFFFFFFFFFFFFFFFFFFFFFFFFFFFFFFFFFFFFFF AND PUSH1 0x0 DUP6 DUP6 PUSH1 0x40 MLOAD PUSH2 0x17A1 SWAP3 SWAP2 SWAP1 PUSH2 0x3A37 JUMP JUMPDEST SWAP1 DUP2 MSTORE PUSH1 0x20 ADD PUSH1 0x40 MLOAD DUP1 SWAP2 SUB SWAP1 KECCAK256 PUSH1 0x0 SWAP1 SLOAD SWAP1 PUSH2 0x100 EXP SWAP1 DIV PUSH20 0xFFFFFFFFFFFFFFFFFFFFFFFFFFFFFFFFFFFFFFFF AND PUSH20 0xFFFFFFFFFFFFFFFFFFFFFFFFFFFFFFFFFFFFFFFF AND EQ PUSH2 0x17F0 JUMPI PUSH1 0x0 DUP1 REVERT JUMPDEST DUP2 DUP2 PUSH1 0x7 DUP7 DUP7 PUSH1 0x40 MLOAD PUSH2 0x1804 SWAP3 SWAP2 SWAP1 PUSH2 0x3A37 JUMP JUMPDEST SWAP1 DUP2 MSTORE PUSH1 0x20 ADD PUSH1 0x40 MLOAD DUP1 SWAP2 SUB SWAP1 KECCAK256 SWAP2 DUP3 PUSH2 0x181F SWAP3 SWAP2 SWAP1 PUSH2 0x3C67 JUMP JUMPDEST POP POP POP POP POP JUMP JUMPDEST PUSH1 0x60 PUSH1 0xF DUP4 DUP4 PUSH1 0x40 MLOAD PUSH2 0x183A SWAP3 SWAP2 SWAP1 PUSH2 0x3A37 JUMP JUMPDEST SWAP1 DUP2 MSTORE PUSH1 0x20 ADD PUSH1 0x40 MLOAD DUP1 SWAP2 SUB SWAP1 KECCAK256 DUP1 SLOAD PUSH2 0x1853 SWAP1 PUSH2 0x3A8A JUMP JUMPDEST DUP1 PUSH1 0x1F ADD PUSH1 0x20 DUP1 SWAP2 DIV MUL PUSH1 0x20 ADD PUSH1 0x40 MLOAD SWAP1 DUP2 ADD PUSH1 0x40 MSTORE DUP1 SWAP3 SWAP2 SWAP1 DUP2 DUP2 MSTORE PUSH1 0x20 ADD DUP3 DUP1 SLOAD PUSH2 0x187F SWAP1 PUSH2 0x3A8A JUMP JUMPDEST DUP1 ISZERO PUSH2 0x18CC JUMPI DUP1 PUSH1 0x1F LT PUSH2 0x18A1 JUMPI PUSH2 0x100 DUP1 DUP4 SLOAD DIV MUL DUP4 MSTORE SWAP2 PUSH1 0x20 ADD SWAP2 PUSH2 0x18CC JUMP JUMPDEST DUP3 ADD SWAP2 SWAP1 PUSH1 0x0 MSTORE PUSH1 0x20 PUSH1 0x0 KECCAK256 SWAP1 JUMPDEST DUP2 SLOAD DUP2 MSTORE SWAP1 PUSH1 0x1 ADD SWAP1 PUSH1 0x20 ADD DUP1 DUP4 GT PUSH2 0x18AF JUMPI DUP3 SWAP1 SUB PUSH1 0x1F AND DUP3 ADD SWAP2 JUMPDEST POP POP POP POP POP SWAP1 POP SWAP3 SWAP2 POP POP JUMP JUMPDEST PUSH1 0x60 PUSH1 0x2 DUP4 DUP4 PUSH1 0x40 MLOAD PUSH2 0x18ED SWAP3 SWAP2 SWAP1 PUSH2 0x3A37 JUMP JUMPDEST SWAP1 DUP2 MSTORE PUSH1 0x20 ADD PUSH1 0x40 MLOAD DUP1 SWAP2 SUB SWAP1 KECCAK256 DUP1 SLOAD PUSH2 0x1906 SWAP1 PUSH2 0x3A8A JUMP JUMPDEST DUP1 PUSH1 0x1F ADD PUSH1 0x20 DUP1 SWAP2 DIV MUL PUSH1 0x20 ADD PUSH1 0x40 MLOAD SWAP1 DUP2 ADD PUSH1 0x40 MSTORE DUP1 SWAP3 SWAP2 SWAP1 DUP2 DUP2 MSTORE PUSH1 0x20 ADD DUP3 DUP1 SLOAD PUSH2 0x1932 SWAP1 PUSH2 0x3A8A JUMP JUMPDEST DUP1 ISZERO PUSH2 0x197F JUMPI DUP1 PUSH1 0x1F LT PUSH2 0x1954 JUMPI PUSH2 0x100 DUP1 DUP4 SLOAD DIV MUL DUP4 MSTORE SWAP2 PUSH1 0x20 ADD SWAP2 PUSH2 0x197F JUMP JUMPDEST DUP3 ADD SWAP2 SWAP1 PUSH1 0x0 MSTORE PUSH1 0x20 PUSH1 0x0 KECCAK256 SWAP1 JUMPDEST DUP2 SLOAD DUP2 MSTORE SWAP1 PUSH1 0x1 ADD SWAP1 PUSH1 0x20 ADD DUP1 DUP4 GT PUSH2 0x1962 JUMPI DUP3 SWAP1 SUB PUSH1 0x1F AND DUP3 ADD SWAP2 JUMPDEST POP POP POP POP POP SWAP1 POP SWAP3 SWAP2 POP POP JUMP JUMPDEST PUSH1 0x1 DUP2 DUP1 MLOAD PUSH1 0x20 DUP2 ADD DUP3 ADD DUP1 MLOAD DUP5 DUP3 MSTORE PUSH1 0x20 DUP4 ADD PUSH1 0x20 DUP6 ADD KECCAK256 DUP2 DUP4 MSTORE DUP1 SWAP6 POP POP POP POP POP POP PUSH1 0x0 SWAP2 POP SWAP1 POP DUP1 SLOAD PUSH2 0x19C1 SWAP1 PUSH2 0x3A8A JUMP JUMPDEST DUP1 PUSH1 0x1F ADD PUSH1 0x20 DUP1 SWAP2 DIV MUL PUSH1 0x20 ADD PUSH1 0x40 MLOAD SWAP1 DUP2 ADD PUSH1 0x40 MSTORE DUP1 SWAP3 SWAP2 SWAP1 DUP2 DUP2 MSTORE PUSH1 0x20 ADD DUP3 DUP1 SLOAD PUSH2 0x19ED SWAP1 PUSH2 0x3A8A JUMP JUMPDEST DUP1 ISZERO PUSH2 0x1A3A JUMPI DUP1 PUSH1 0x1F LT PUSH2 0x1A0F JUMPI PUSH2 0x100 DUP1 DUP4 SLOAD DIV MUL DUP4 MSTORE SWAP2 PUSH1 0x20 ADD SWAP2 PUSH2 0x1A3A JUMP JUMPDEST DUP3 ADD SWAP2 SWAP1 PUSH1 0x0 MSTORE PUSH1 0x20 PUSH1 0x0 KECCAK256 SWAP1 JUMPDEST DUP2 SLOAD DUP2 MSTORE SWAP1 PUSH1 0x1 ADD SWAP1 PUSH1 0x20 ADD DUP1 DUP4 GT PUSH2 0x1A1D JUMPI DUP3 SWAP1 SUB PUSH1 0x1F AND DUP3 ADD SWAP2 JUMPDEST POP POP POP POP POP DUP2 JUMP JUMPDEST PUSH1 0x3 DUP2 DUP1 MLOAD PUSH1 0x20 DUP2 ADD DUP3 ADD DUP1 MLOAD DUP5 DUP3 MSTORE PUSH1 0x20 DUP4 ADD PUSH1 0x20 DUP6 ADD KECCAK256 DUP2 DUP4 MSTORE DUP1 SWAP6 POP POP POP POP POP POP PUSH1 0x0 SWAP2 POP SWAP1 POP DUP1 SLOAD PUSH2 0x1A77 SWAP1 PUSH2 0x3A8A JUMP JUMPDEST DUP1 PUSH1 0x1F ADD PUSH1 0x20 DUP1 SWAP2 DIV MUL PUSH1 0x20 ADD PUSH1 0x40 MLOAD SWAP1 DUP2 ADD PUSH1 0x40 MSTORE DUP1 SWAP3 SWAP2 SWAP1 DUP2 DUP2 MSTORE PUSH1 0x20 ADD DUP3 DUP1 SLOAD PUSH2 0x1AA3 SWAP1 PUSH2 0x3A8A JUMP JUMPDEST DUP1 ISZERO PUSH2 0x1AF0 JUMPI DUP1 PUSH1 0x1F LT PUSH2 0x1AC5 JUMPI PUSH2 0x100 DUP1 DUP4 SLOAD DIV MUL DUP4 MSTORE SWAP2 PUSH1 0x20 ADD SWAP2 PUSH2 0x1AF0 JUMP JUMPDEST DUP3 ADD SWAP2 SWAP1 PUSH1 0x0 MSTORE PUSH1 0x20 PUSH1 0x0 KECCAK256 SWAP1 JUMPDEST DUP2 SLOAD DUP2 MSTORE SWAP1 PUSH1 0x1 ADD SWAP1 PUSH1 0x20 ADD DUP1 DUP4 GT PUSH2 0x1AD3 JUMPI DUP3 SWAP1 SUB PUSH1 0x1F AND DUP3 ADD SWAP2 JUMPDEST POP POP POP POP POP DUP2 JUMP JUMPDEST CALLER PUSH20 0xFFFFFFFFFFFFFFFFFFFFFFFFFFFFFFFFFFFFFFFF AND PUSH1 0x0 DUP6 DUP6 PUSH1 0x40 MLOAD PUSH2 0x1B21 SWAP3 SWAP2 SWAP1 PUSH2 0x3A37 JUMP JUMPDEST SWAP1 DUP2 MSTORE PUSH1 0x20 ADD PUSH1 0x40 MLOAD DUP1 SWAP2 SUB SWAP1 KECCAK256 PUSH1 0x0 SWAP1 SLOAD SWAP1 PUSH2 0x100 EXP SWAP1 DIV PUSH20 0xFFFFFFFFFFFFFFFFFFFFFFFFFFFFFFFFFFFFFFFF AND PUSH20 0xFFFFFFFFFFFFFFFFFFFFFFFFFFFFFFFFFFFFFFFF AND EQ PUSH2 0x1B70 JUMPI PUSH1 0x0 DUP1 REVERT JUMPDEST DUP2 DUP2 PUSH1 0xF DUP7 DUP7 PUSH1 0x40 MLOAD PUSH2 0x1B84 SWAP3 SWAP2 SWAP1 PUSH2 0x3A37 JUMP JUMPDEST SWAP1 DUP2 MSTORE PUSH1 0x20 ADD PUSH1 0x40 MLOAD DUP1 SWAP2 SUB SWAP1 KECCAK256 SWAP2 DUP3 PUSH2 0x1B9F SWAP3 SWAP2 SWAP1 PUSH2 0x3C67 JUMP JUMPDEST POP POP POP POP POP JUMP JUMPDEST PUSH1 0x60 PUSH1 0x7 DUP4 DUP4 PUSH1 0x40 MLOAD PUSH2 0x1BBA SWAP3 SWAP2 SWAP1 PUSH2 0x3A37 JUMP JUMPDEST SWAP1 DUP2 MSTORE PUSH1 0x20 ADD PUSH1 0x40 MLOAD DUP1 SWAP2 SUB SWAP1 KECCAK256 DUP1 SLOAD PUSH2 0x1BD3 SWAP1 PUSH2 0x3A8A JUMP JUMPDEST DUP1 PUSH1 0x1F ADD PUSH1 0x20 DUP1 SWAP2 DIV MUL PUSH1 0x20 ADD PUSH1 0x40 MLOAD SWAP1 DUP2 ADD PUSH1 0x40 MSTORE DUP1 SWAP3 SWAP2 SWAP1 DUP2 DUP2 MSTORE PUSH1 0x20 ADD DUP3 DUP1 SLOAD PUSH2 0x1BFF SWAP1 PUSH2 0x3A8A JUMP JUMPDEST DUP1 ISZERO PUSH2 0x1C4C JUMPI DUP1 PUSH1 0x1F LT PUSH2 0x1C21 JUMPI PUSH2 0x100 DUP1 DUP4 SLOAD DIV MUL DUP4 MSTORE SWAP2 PUSH1 0x20 ADD SWAP2 PUSH2 0x1C4C JUMP JUMPDEST DUP3 ADD SWAP2 SWAP1 PUSH1 0x0 MSTORE PUSH1 0x20 PUSH1 0x0 KECCAK256 SWAP1 JUMPDEST DUP2 SLOAD DUP2 MSTORE SWAP1 PUSH1 0x1 ADD SWAP1 PUSH1 0x20 ADD DUP1 DUP4 GT PUSH2 0x1C2F JUMPI DUP3 SWAP1 SUB PUSH1 0x1F AND DUP3 ADD SWAP2 JUMPDEST POP POP POP POP POP SWAP1 POP SWAP3 SWAP2 POP POP JUMP JUMPDEST PUSH1 0x60 PUSH1 0x4 DUP4 DUP4 PUSH1 0x40 MLOAD PUSH2 0x1C6D SWAP3 SWAP2 SWAP1 PUSH2 0x3A37 JUMP JUMPDEST SWAP1 DUP2 MSTORE PUSH1 0x20 ADD PUSH1 0x40 MLOAD DUP1 SWAP2 SUB SWAP1 KECCAK256 DUP1 SLOAD PUSH2 0x1C86 SWAP1 PUSH2 0x3A8A JUMP JUMPDEST DUP1 PUSH1 0x1F ADD PUSH1 0x20 DUP1 SWAP2 DIV MUL PUSH1 0x20 ADD PUSH1 0x40 MLOAD SWAP1 DUP2 ADD PUSH1 0x40 MSTORE DUP1 SWAP3 SWAP2 SWAP1 DUP2 DUP2 MSTORE PUSH1 0x20 ADD DUP3 DUP1 SLOAD PUSH2 0x1CB2 SWAP1 PUSH2 0x3A8A JUMP JUMPDEST DUP1 ISZERO PUSH2 0x1CFF JUMPI DUP1 PUSH1 0x1F LT PUSH2 0x1CD4 JUMPI PUSH2 0x100 DUP1 DUP4 SLOAD DIV MUL DUP4 MSTORE SWAP2 PUSH1 0x20 ADD SWAP2 PUSH2 0x1CFF JUMP JUMPDEST DUP3 ADD SWAP2 SWAP1 PUSH1 0x0 MSTORE PUSH1 0x20 PUSH1 0x0 KECCAK256 SWAP1 JUMPDEST DUP2 SLOAD DUP2 MSTORE SWAP1 PUSH1 0x1 ADD SWAP1 PUSH1 0x20 ADD DUP1 DUP4 GT PUSH2 0x1CE2 JUMPI DUP3 SWAP1 SUB PUSH1 0x1F AND DUP3 ADD SWAP2 JUMPDEST POP POP POP POP POP SWAP1 POP SWAP3 SWAP2 POP POP JUMP JUMPDEST PUSH1 0x60 PUSH1 0x10 DUP4 DUP4 PUSH1 0x40 MLOAD PUSH2 0x1D20 SWAP3 SWAP2 SWAP1 PUSH2 0x3A37 JUMP JUMPDEST SWAP1 DUP2 MSTORE PUSH1 0x20 ADD PUSH1 0x40 MLOAD DUP1 SWAP2 SUB SWAP1 KECCAK256 DUP1 SLOAD PUSH2 0x1D39 SWAP1 PUSH2 0x3A8A JUMP JUMPDEST DUP1 PUSH1 0x1F ADD PUSH1 0x20 DUP1 SWAP2 DIV MUL PUSH1 0x20 ADD PUSH1 0x40 MLOAD SWAP1 DUP2 ADD PUSH1 0x40 MSTORE DUP1 SWAP3 SWAP2 SWAP1 DUP2 DUP2 MSTORE PUSH1 0x20 ADD DUP3 DUP1 SLOAD PUSH2 0x1D65 SWAP1 PUSH2 0x3A8A JUMP JUMPDEST DUP1 ISZERO PUSH2 0x1DB2 JUMPI DUP1 PUSH1 0x1F LT PUSH2 0x1D87 JUMPI PUSH2 0x100 DUP1 DUP4 SLOAD DIV MUL DUP4 MSTORE SWAP2 PUSH1 0x20 ADD SWAP2 PUSH2 0x1DB2 JUMP JUMPDEST DUP3 ADD SWAP2 SWAP1 PUSH1 0x0 MSTORE PUSH1 0x20 PUSH1 0x0 KECCAK256 SWAP1 JUMPDEST DUP2 SLOAD DUP2 MSTORE SWAP1 PUSH1 0x1 ADD SWAP1 PUSH1 0x20 ADD DUP1 DUP4 GT PUSH2 0x1D95 JUMPI DUP3 SWAP1 SUB PUSH1 0x1F AND DUP3 ADD SWAP2 JUMPDEST POP POP POP POP POP SWAP1 POP SWAP3 SWAP2 POP POP JUMP JUMPDEST PUSH1 0x9 DUP2 DUP1 MLOAD PUSH1 0x20 DUP2 ADD DUP3 ADD DUP1 MLOAD DUP5 DUP3 MSTORE PUSH1 0x20 DUP4 ADD PUSH1 0x20 DUP6 ADD KECCAK256 DUP2 DUP4 MSTORE DUP1 SWAP6 POP POP POP POP POP POP PUSH1 0x0 SWAP2 POP SWAP1 POP DUP1 SLOAD PUSH2 0x1DF4 SWAP1 PUSH2 0x3A8A JUMP JUMPDEST DUP1 PUSH1 0x1F ADD PUSH1 0x20 DUP1 SWAP2 DIV MUL PUSH1 0x20 ADD PUSH1 0x40 MLOAD SWAP1 DUP2 ADD PUSH1 0x40 MSTORE DUP1 SWAP3 SWAP2 SWAP1 DUP2 DUP2 MSTORE PUSH1 0x20 ADD DUP3 DUP1 SLOAD PUSH2 0x1E20 SWAP1 PUSH2 0x3A8A JUMP JUMPDEST DUP1 ISZERO PUSH2 0x1E6D JUMPI DUP1 PUSH1 0x1F LT PUSH2 0x1E42 JUMPI PUSH2 0x100 DUP1 DUP4 SLOAD DIV MUL DUP4 MSTORE SWAP2 PUSH1 0x20 ADD SWAP2 PUSH2 0x1E6D JUMP JUMPDEST DUP3 ADD SWAP2 SWAP1 PUSH1 0x0 MSTORE PUSH1 0x20 PUSH1 0x0 KECCAK256 SWAP1 JUMPDEST DUP2 SLOAD DUP2 MSTORE SWAP1 PUSH1 0x1 ADD SWAP1 PUSH1 0x20 ADD DUP1 DUP4 GT PUSH2 0x1E50 JUMPI DUP3 SWAP1 SUB PUSH1 0x1F AND DUP3 ADD SWAP2 JUMPDEST POP POP POP POP POP DUP2 JUMP JUMPDEST PUSH1 0x60 PUSH1 0xE DUP4 DUP4 PUSH1 0x40 MLOAD PUSH2 0x1E89 SWAP3 SWAP2 SWAP1 PUSH2 0x3A37 JUMP JUMPDEST SWAP1 DUP2 MSTORE PUSH1 0x20 ADD PUSH1 0x40 MLOAD DUP1 SWAP2 SUB SWAP1 KECCAK256 DUP1 SLOAD PUSH2 0x1EA2 SWAP1 PUSH2 0x3A8A JUMP JUMPDEST DUP1 PUSH1 0x1F ADD PUSH1 0x20 DUP1 SWAP2 DIV MUL PUSH1 0x20 ADD PUSH1 0x40 MLOAD SWAP1 DUP2 ADD PUSH1 0x40 MSTORE DUP1 SWAP3 SWAP2 SWAP1 DUP2 DUP2 MSTORE PUSH1 0x20 ADD DUP3 DUP1 SLOAD PUSH2 0x1ECE SWAP1 PUSH2 0x3A8A JUMP JUMPDEST DUP1 ISZERO PUSH2 0x1F1B JUMPI DUP1 PUSH1 0x1F LT PUSH2 0x1EF0 JUMPI PUSH2 0x100 DUP1 DUP4 SLOAD DIV MUL DUP4 MSTORE SWAP2 PUSH1 0x20 ADD SWAP2 PUSH2 0x1F1B JUMP JUMPDEST DUP3 ADD SWAP2 SWAP1 PUSH1 0x0 MSTORE PUSH1 0x20 PUSH1 0x0 KECCAK256 SWAP1 JUMPDEST DUP2 SLOAD DUP2 MSTORE SWAP1 PUSH1 0x1 ADD SWAP1 PUSH1 0x20 ADD DUP1 DUP4 GT PUSH2 0x1EFE JUMPI DUP3 SWAP1 SUB PUSH1 0x1F AND DUP3 ADD SWAP2 JUMPDEST POP POP POP POP POP SWAP1 POP SWAP3 SWAP2 POP POP JUMP JUMPDEST PUSH1 0x60 PUSH1 0x9 DUP4 DUP4 PUSH1 0x40 MLOAD PUSH2 0x1F3C SWAP3 SWAP2 SWAP1 PUSH2 0x3A37 JUMP JUMPDEST SWAP1 DUP2 MSTORE PUSH1 0x20 ADD PUSH1 0x40 MLOAD DUP1 SWAP2 SUB SWAP1 KECCAK256 DUP1 SLOAD PUSH2 0x1F55 SWAP1 PUSH2 0x3A8A JUMP JUMPDEST DUP1 PUSH1 0x1F ADD PUSH1 0x20 DUP1 SWAP2 DIV MUL PUSH1 0x20 ADD PUSH1 0x40 MLOAD SWAP1 DUP2 ADD PUSH1 0x40 MSTORE DUP1 SWAP3 SWAP2 SWAP1 DUP2 DUP2 MSTORE PUSH1 0x20 ADD DUP3 DUP1 SLOAD PUSH2 0x1F81 SWAP1 PUSH2 0x3A8A JUMP JUMPDEST DUP1 ISZERO PUSH2 0x1FCE JUMPI DUP1 PUSH1 0x1F LT PUSH2 0x1FA3 JUMPI PUSH2 0x100 DUP1 DUP4 SLOAD DIV MUL DUP4 MSTORE SWAP2 PUSH1 0x20 ADD SWAP2 PUSH2 0x1FCE JUMP JUMPDEST DUP3 ADD SWAP2 SWAP1 PUSH1 0x0 MSTORE PUSH1 0x20 PUSH1 0x0 KECCAK256 SWAP1 JUMPDEST DUP2 SLOAD DUP2 MSTORE SWAP1 PUSH1 0x1 ADD SWAP1 PUSH1 0x20 ADD DUP1 DUP4 GT PUSH2 0x1FB1 JUMPI DUP3 SWAP1 SUB PUSH1 0x1F AND DUP3 ADD SWAP2 JUMPDEST POP POP POP POP POP SWAP1 POP SWAP3 SWAP2 POP POP JUMP JUMPDEST PUSH1 0xB DUP2 DUP1 MLOAD PUSH1 0x20 DUP2 ADD DUP3 ADD DUP1 MLOAD DUP5 DUP3 MSTORE PUSH1 0x20 DUP4 ADD PUSH1 0x20 DUP6 ADD KECCAK256 DUP2 DUP4 MSTORE DUP1 SWAP6 POP POP POP POP POP POP PUSH1 0x0 SWAP2 POP SWAP1 POP DUP1 SLOAD PUSH2 0x2010 SWAP1 PUSH2 0x3A8A JUMP JUMPDEST DUP1 PUSH1 0x1F ADD PUSH1 0x20 DUP1 SWAP2 DIV MUL PUSH1 0x20 ADD PUSH1 0x40 MLOAD SWAP1 DUP2 ADD PUSH1 0x40 MSTORE DUP1 SWAP3 SWAP2 SWAP1 DUP2 DUP2 MSTORE PUSH1 0x20 ADD DUP3 DUP1 SLOAD PUSH2 0x203C SWAP1 PUSH2 0x3A8A JUMP JUMPDEST DUP1 ISZERO PUSH2 0x2089 JUMPI DUP1 PUSH1 0x1F LT PUSH2 0x205E JUMPI PUSH2 0x100 DUP1 DUP4 SLOAD DIV MUL DUP4 MSTORE SWAP2 PUSH1 0x20 ADD SWAP2 PUSH2 0x2089 JUMP JUMPDEST DUP3 ADD SWAP2 SWAP1 PUSH1 0x0 MSTORE PUSH1 0x20 PUSH1 0x0 KECCAK256 SWAP1 JUMPDEST DUP2 SLOAD DUP2 MSTORE SWAP1 PUSH1 0x1 ADD SWAP1 PUSH1 0x20 ADD DUP1 DUP4 GT PUSH2 0x206C JUMPI DUP3 SWAP1 SUB PUSH1 0x1F AND DUP3 ADD SWAP2 JUMPDEST POP POP POP POP POP DUP2 JUMP JUMPDEST PUSH1 0x60 PUSH1 0x6 DUP4 DUP4 PUSH1 0x40 MLOAD PUSH2 0x20A5 SWAP3 SWAP2 SWAP1 PUSH2 0x3A37 JUMP JUMPDEST SWAP1 DUP2 MSTORE PUSH1 0x20 ADD PUSH1 0x40 MLOAD DUP1 SWAP2 SUB SWAP1 KECCAK256 DUP1 SLOAD PUSH2 0x20BE SWAP1 PUSH2 0x3A8A JUMP JUMPDEST DUP1 PUSH1 0x1F ADD PUSH1 0x20 DUP1 SWAP2 DIV MUL PUSH1 0x20 ADD PUSH1 0x40 MLOAD SWAP1 DUP2 ADD PUSH1 0x40 MSTORE DUP1 SWAP3 SWAP2 SWAP1 DUP2 DUP2 MSTORE PUSH1 0x20 ADD DUP3 DUP1 SLOAD PUSH2 0x20EA SWAP1 PUSH2 0x3A8A JUMP JUMPDEST DUP1 ISZERO PUSH2 0x2137 JUMPI DUP1 PUSH1 0x1F LT PUSH2 0x210C JUMPI PUSH2 0x100 DUP1 DUP4 SLOAD DIV MUL DUP4 MSTORE SWAP2 PUSH1 0x20 ADD SWAP2 PUSH2 0x2137 JUMP JUMPDEST DUP3 ADD SWAP2 SWAP1 PUSH1 0x0 MSTORE PUSH1 0x20 PUSH1 0x0 KECCAK256 SWAP1 JUMPDEST DUP2 SLOAD DUP2 MSTORE SWAP1 PUSH1 0x1 ADD SWAP1 PUSH1 0x20 ADD DUP1 DUP4 GT PUSH2 0x211A JUMPI DUP3 SWAP1 SUB PUSH1 0x1F AND DUP3 ADD SWAP2 JUMPDEST POP POP POP POP POP SWAP1 POP SWAP3 SWAP2 POP POP JUMP JUMPDEST PUSH1 0x2 DUP2 DUP1 MLOAD PUSH1 0x20 DUP2 ADD DUP3 ADD DUP1 MLOAD DUP5 DUP3 MSTORE PUSH1 0x20 DUP4 ADD PUSH1 0x20 DUP6 ADD KECCAK256 DUP2 DUP4 MSTORE DUP1 SWAP6 POP POP POP POP POP POP PUSH1 0x0 SWAP2 POP SWAP1 POP DUP1 SLOAD PUSH2 0x2179 SWAP1 PUSH2 0x3A8A JUMP JUMPDEST DUP1 PUSH1 0x1F ADD PUSH1 0x20 DUP1 SWAP2 DIV MUL PUSH1 0x20 ADD PUSH1 0x40 MLOAD SWAP1 DUP2 ADD PUSH1 0x40 MSTORE DUP1 SWAP3 SWAP2 SWAP1 DUP2 DUP2 MSTORE PUSH1 0x20 ADD DUP3 DUP1 SLOAD PUSH2 0x21A5 SWAP1 PUSH2 0x3A8A JUMP JUMPDEST DUP1 ISZERO PUSH2 0x21F2 JUMPI DUP1 PUSH1 0x1F LT PUSH2 0x21C7 JUMPI PUSH2 0x100 DUP1 DUP4 SLOAD DIV MUL DUP4 MSTORE SWAP2 PUSH1 0x20 ADD SWAP2 PUSH2 0x21F2 JUMP JUMPDEST DUP3 ADD SWAP2 SWAP1 PUSH1 0x0 MSTORE PUSH1 0x20 PUSH1 0x0 KECCAK256 SWAP1 JUMPDEST DUP2 SLOAD DUP2 MSTORE SWAP1 PUSH1 0x1 ADD SWAP1 PUSH1 0x20 ADD DUP1 DUP4 GT PUSH2 0x21D5 JUMPI DUP3 SWAP1 SUB PUSH1 0x1F AND DUP3 ADD SWAP2 JUMPDEST POP POP POP POP POP DUP2 JUMP JUMPDEST PUSH1 0x8 DUP2 DUP1 MLOAD PUSH1 0x20 DUP2 ADD DUP3 ADD DUP1 MLOAD DUP5 DUP3 MSTORE PUSH1 0x20 DUP4 ADD PUSH1 0x20 DUP6 ADD KECCAK256 DUP2 DUP4 MSTORE DUP1 SWAP6 POP POP POP POP POP POP PUSH1 0x0 SWAP2 POP SWAP1 POP DUP1 SLOAD PUSH2 0x222F SWAP1 PUSH2 0x3A8A JUMP JUMPDEST DUP1 PUSH1 0x1F ADD PUSH1 0x20 DUP1 SWAP2 DIV MUL PUSH1 0x20 ADD PUSH1 0x40 MLOAD SWAP1 DUP2 ADD PUSH1 0x40 MSTORE DUP1 SWAP3 SWAP2 SWAP1 DUP2 DUP2 MSTORE PUSH1 0x20 ADD DUP3 DUP1 SLOAD PUSH2 0x225B SWAP1 PUSH2 0x3A8A JUMP JUMPDEST DUP1 ISZERO PUSH2 0x22A8 JUMPI DUP1 PUSH1 0x1F LT PUSH2 0x227D JUMPI PUSH2 0x100 DUP1 DUP4 SLOAD DIV MUL DUP4 MSTORE SWAP2 PUSH1 0x20 ADD SWAP2 PUSH2 0x22A8 JUMP JUMPDEST DUP3 ADD SWAP2 SWAP1 PUSH1 0x0 MSTORE PUSH1 0x20 PUSH1 0x0 KECCAK256 SWAP1 JUMPDEST DUP2 SLOAD DUP2 MSTORE SWAP1 PUSH1 0x1 ADD SWAP1 PUSH1 0x20 ADD DUP1 DUP4 GT PUSH2 0x228B JUMPI DUP3 SWAP1 SUB PUSH1 0x1F AND DUP3 ADD SWAP2 JUMPDEST POP POP POP POP POP DUP2 JUMP JUMPDEST PUSH1 0x7 DUP2 DUP1 MLOAD PUSH1 0x20 DUP2 ADD DUP3 ADD DUP1 MLOAD DUP5 DUP3 MSTORE PUSH1 0x20 DUP4 ADD PUSH1 0x20 DUP6 ADD KECCAK256 DUP2 DUP4 MSTORE DUP1 SWAP6 POP POP POP POP POP POP PUSH1 0x0 SWAP2 POP SWAP1 POP DUP1 SLOAD PUSH2 0x22E5 SWAP1 PUSH2 0x3A8A JUMP JUMPDEST DUP1 PUSH1 0x1F ADD PUSH1 0x20 DUP1 SWAP2 DIV MUL PUSH1 0x20 ADD PUSH1 0x40 MLOAD SWAP1 DUP2 ADD PUSH1 0x40 MSTORE DUP1 SWAP3 SWAP2 SWAP1 DUP2 DUP2 MSTORE PUSH1 0x20 ADD DUP3 DUP1 SLOAD PUSH2 0x2311 SWAP1 PUSH2 0x3A8A JUMP JUMPDEST DUP1 ISZERO PUSH2 0x235E JUMPI DUP1 PUSH1 0x1F LT PUSH2 0x2333 JUMPI PUSH2 0x100 DUP1 DUP4 SLOAD DIV MUL DUP4 MSTORE SWAP2 PUSH1 0x20 ADD SWAP2 PUSH2 0x235E JUMP JUMPDEST DUP3 ADD SWAP2 SWAP1 PUSH1 0x0 MSTORE PUSH1 0x20 PUSH1 0x0 KECCAK256 SWAP1 JUMPDEST DUP2 SLOAD DUP2 MSTORE SWAP1 PUSH1 0x1 ADD SWAP1 PUSH1 0x20 ADD DUP1 DUP4 GT PUSH2 0x2341 JUMPI DUP3 SWAP1 SUB PUSH1 0x1F AND DUP3 ADD SWAP2 JUMPDEST POP POP POP POP POP DUP2 JUMP JUMPDEST PUSH1 0x60 PUSH1 0xD DUP4 DUP4 PUSH1 0x40 MLOAD PUSH2 0x237A SWAP3 SWAP2 SWAP1 PUSH2 0x3A37 JUMP JUMPDEST SWAP1 DUP2 MSTORE PUSH1 0x20 ADD PUSH1 0x40 MLOAD DUP1 SWAP2 SUB SWAP1 KECCAK256 DUP1 SLOAD PUSH2 0x2393 SWAP1 PUSH2 0x3A8A JUMP JUMPDEST DUP1 PUSH1 0x1F ADD PUSH1 0x20 DUP1 SWAP2 DIV MUL PUSH1 0x20 ADD PUSH1 0x40 MLOAD SWAP1 DUP2 ADD PUSH1 0x40 MSTORE DUP1 SWAP3 SWAP2 SWAP1 DUP2 DUP2 MSTORE PUSH1 0x20 ADD DUP3 DUP1 SLOAD PUSH2 0x23BF SWAP1 PUSH2 0x3A8A JUMP JUMPDEST DUP1 ISZERO PUSH2 0x240C JUMPI DUP1 PUSH1 0x1F LT PUSH2 0x23E1 JUMPI PUSH2 0x100 DUP1 DUP4 SLOAD DIV MUL DUP4 MSTORE SWAP2 PUSH1 0x20 ADD SWAP2 PUSH2 0x240C JUMP JUMPDEST DUP3 ADD SWAP2 SWAP1 PUSH1 0x0 MSTORE PUSH1 0x20 PUSH1 0x0 KECCAK256 SWAP1 JUMPDEST DUP2 SLOAD DUP2 MSTORE SWAP1 PUSH1 0x1 ADD SWAP1 PUSH1 0x20 ADD DUP1 DUP4 GT PUSH2 0x23EF JUMPI DUP3 SWAP1 SUB PUSH1 0x1F AND DUP3 ADD SWAP2 JUMPDEST POP POP POP POP POP SWAP1 POP SWAP3 SWAP2 POP POP JUMP JUMPDEST CALLER PUSH20 0xFFFFFFFFFFFFFFFFFFFFFFFFFFFFFFFFFFFFFFFF AND PUSH1 0x0 DUP6 DUP6 PUSH1 0x40 MLOAD PUSH2 0x2442 SWAP3 SWAP2 SWAP1 PUSH2 0x3A37 JUMP JUMPDEST SWAP1 DUP2 MSTORE PUSH1 0x20 ADD PUSH1 0x40 MLOAD DUP1 SWAP2 SUB SWAP1 KECCAK256 PUSH1 0x0 SWAP1 SLOAD SWAP1 PUSH2 0x100 EXP SWAP1 DIV PUSH20 0xFFFFFFFFFFFFFFFFFFFFFFFFFFFFFFFFFFFFFFFF AND PUSH20 0xFFFFFFFFFFFFFFFFFFFFFFFFFFFFFFFFFFFFFFFF AND EQ PUSH2 0x2491 JUMPI PUSH1 0x0 DUP1 REVERT JUMPDEST DUP2 DUP2 PUSH1 0xB DUP7 DUP7 PUSH1 0x40 MLOAD PUSH2 0x24A5 SWAP3 SWAP2 SWAP1 PUSH2 0x3A37 JUMP JUMPDEST SWAP1 DUP2 MSTORE PUSH1 0x20 ADD PUSH1 0x40 MLOAD DUP1 SWAP2 SUB SWAP1 KECCAK256 SWAP2 DUP3 PUSH2 0x24C0 SWAP3 SWAP2 SWAP1 PUSH2 0x3C67 JUMP JUMPDEST POP POP POP POP POP JUMP JUMPDEST CALLER PUSH20 0xFFFFFFFFFFFFFFFFFFFFFFFFFFFFFFFFFFFFFFFF AND PUSH1 0x0 DUP6 DUP6 PUSH1 0x40 MLOAD PUSH2 0x24F0 SWAP3 SWAP2 SWAP1 PUSH2 0x3A37 JUMP JUMPDEST SWAP1 DUP2 MSTORE PUSH1 0x20 ADD PUSH1 0x40 MLOAD DUP1 SWAP2 SUB SWAP1 KECCAK256 PUSH1 0x0 SWAP1 SLOAD SWAP1 PUSH2 0x100 EXP SWAP1 DIV PUSH20 0xFFFFFFFFFFFFFFFFFFFFFFFFFFFFFFFFFFFFFFFF AND PUSH20 0xFFFFFFFFFFFFFFFFFFFFFFFFFFFFFFFFFFFFFFFF AND EQ PUSH2 0x253F JUMPI PUSH1 0x0 DUP1 REVERT JUMPDEST DUP2 DUP2 PUSH1 0x5 DUP7 DUP7 PUSH1 0x40 MLOAD PUSH2 0x2553 SWAP3 SWAP2 SWAP1 PUSH2 0x3A37 JUMP JUMPDEST SWAP1 DUP2 MSTORE PUSH1 0x20 ADD PUSH1 0x40 MLOAD DUP1 SWAP2 SUB SWAP1 KECCAK256 SWAP2 DUP3 PUSH2 0x256E SWAP3 SWAP2 SWAP1 PUSH2 0x3C67 JUMP JUMPDEST POP POP POP POP POP JUMP JUMPDEST CALLER PUSH20 0xFFFFFFFFFFFFFFFFFFFFFFFFFFFFFFFFFFFFFFFF AND PUSH1 0x0 DUP6 DUP6 PUSH1 0x40 MLOAD PUSH2 0x259E SWAP3 SWAP2 SWAP1 PUSH2 0x3A37 JUMP JUMPDEST SWAP1 DUP2 MSTORE PUSH1 0x20 ADD PUSH1 0x40 MLOAD DUP1 SWAP2 SUB SWAP1 KECCAK256 PUSH1 0x0 SWAP1 SLOAD SWAP1 PUSH2 0x100 EXP SWAP1 DIV PUSH20 0xFFFFFFFFFFFFFFFFFFFFFFFFFFFFFFFFFFFFFFFF AND PUSH20 0xFFFFFFFFFFFFFFFFFFFFFFFFFFFFFFFFFFFFFFFF AND EQ PUSH2 0x25ED JUMPI PUSH1 0x0 DUP1 REVERT JUMPDEST DUP2 DUP2 PUSH1 0xE DUP7 DUP7 PUSH1 0x40 MLOAD PUSH2 0x2601 SWAP3 SWAP2 SWAP1 PUSH2 0x3A37 JUMP JUMPDEST SWAP1 DUP2 MSTORE PUSH1 0x20 ADD PUSH1 0x40 MLOAD DUP1 SWAP2 SUB SWAP1 KECCAK256 SWAP2 DUP3 PUSH2 0x261C SWAP3 SWAP2 SWAP1 PUSH2 0x3C67 JUMP JUMPDEST POP POP POP POP POP JUMP JUMPDEST CALLER PUSH20 0xFFFFFFFFFFFFFFFFFFFFFFFFFFFFFFFFFFFFFFFF AND PUSH1 0x0 DUP6 DUP6 PUSH1 0x40 MLOAD PUSH2 0x264C SWAP3 SWAP2 SWAP1 PUSH2 0x3A37 JUMP JUMPDEST SWAP1 DUP2 MSTORE PUSH1 0x20 ADD PUSH1 0x40 MLOAD DUP1 SWAP2 SUB SWAP1 KECCAK256 PUSH1 0x0 SWAP1 SLOAD SWAP1 PUSH2 0x100 EXP SWAP1 DIV PUSH20 0xFFFFFFFFFFFFFFFFFFFFFFFFFFFFFFFFFFFFFFFF AND PUSH20 0xFFFFFFFFFFFFFFFFFFFFFFFFFFFFFFFFFFFFFFFF AND EQ PUSH2 0x269B JUMPI PUSH1 0x0 DUP1 REVERT JUMPDEST DUP2 DUP2 PUSH1 0x6 DUP7 DUP7 PUSH1 0x40 MLOAD PUSH2 0x26AF SWAP3 SWAP2 SWAP1 PUSH2 0x3A37 JUMP JUMPDEST SWAP1 DUP2 MSTORE PUSH1 0x20 ADD PUSH1 0x40 MLOAD DUP1 SWAP2 SUB SWAP1 KECCAK256 SWAP2 DUP3 PUSH2 0x26CA SWAP3 SWAP2 SWAP1 PUSH2 0x3C67 JUMP JUMPDEST POP POP POP POP POP JUMP JUMPDEST PUSH1 0x0 DUP1 DUP4 DUP4 PUSH1 0x40 MLOAD PUSH2 0x26E4 SWAP3 SWAP2 SWAP1 PUSH2 0x3A37 JUMP JUMPDEST SWAP1 DUP2 MSTORE PUSH1 0x20 ADD PUSH1 0x40 MLOAD DUP1 SWAP2 SUB SWAP1 KECCAK256 PUSH1 0x0 SWAP1 SLOAD SWAP1 PUSH2 0x100 EXP SWAP1 DIV PUSH20 0xFFFFFFFFFFFFFFFFFFFFFFFFFFFFFFFFFFFFFFFF AND SWAP1 POP SWAP3 SWAP2 POP POP JUMP JUMPDEST CALLER PUSH20 0xFFFFFFFFFFFFFFFFFFFFFFFFFFFFFFFFFFFFFFFF AND PUSH1 0x0 DUP6 DUP6 PUSH1 0x40 MLOAD PUSH2 0x2744 SWAP3 SWAP2 SWAP1 PUSH2 0x3A37 JUMP JUMPDEST SWAP1 DUP2 MSTORE PUSH1 0x20 ADD PUSH1 0x40 MLOAD DUP1 SWAP2 SUB SWAP1 KECCAK256 PUSH1 0x0 SWAP1 SLOAD SWAP1 PUSH2 0x100 EXP SWAP1 DIV PUSH20 0xFFFFFFFFFFFFFFFFFFFFFFFFFFFFFFFFFFFFFFFF AND PUSH20 0xFFFFFFFFFFFFFFFFFFFFFFFFFFFFFFFFFFFFFFFF AND EQ PUSH2 0x2793 JUMPI PUSH1 0x0 DUP1 REVERT JUMPDEST DUP2 DUP2 PUSH1 0x1 DUP7 DUP7 PUSH1 0x40 MLOAD PUSH2 0x27A7 SWAP3 SWAP2 SWAP1 PUSH2 0x3A37 JUMP JUMPDEST SWAP1 DUP2 MSTORE PUSH1 0x20 ADD PUSH1 0x40 MLOAD DUP1 SWAP2 SUB SWAP1 KECCAK256 SWAP2 DUP3 PUSH2 0x27C2 SWAP3 SWAP2 SWAP1 PUSH2 0x3C67 JUMP JUMPDEST POP POP POP POP POP JUMP JUMPDEST PUSH1 0x60 PUSH1 0xC DUP4 DUP4 PUSH1 0x40 MLOAD PUSH2 0x27DD SWAP3 SWAP2 SWAP1 PUSH2 0x3A37 JUMP JUMPDEST SWAP1 DUP2 MSTORE PUSH1 0x20 ADD PUSH1 0x40 MLOAD DUP1 SWAP2 SUB SWAP1 KECCAK256 DUP1 SLOAD PUSH2 0x27F6 SWAP1 PUSH2 0x3A8A JUMP JUMPDEST DUP1 PUSH1 0x1F ADD PUSH1 0x20 DUP1 SWAP2 DIV MUL PUSH1 0x20 ADD PUSH1 0x40 MLOAD SWAP1 DUP2 ADD PUSH1 0x40 MSTORE DUP1 SWAP3 SWAP2 SWAP1 DUP2 DUP2 MSTORE PUSH1 0x20 ADD DUP3 DUP1 SLOAD PUSH2 0x2822 SWAP1 PUSH2 0x3A8A JUMP JUMPDEST DUP1 ISZERO PUSH2 0x286F JUMPI DUP1 PUSH1 0x1F LT PUSH2 0x2844 JUMPI PUSH2 0x100 DUP1 DUP4 SLOAD DIV MUL DUP4 MSTORE SWAP2 PUSH1 0x20 ADD SWAP2 PUSH2 0x286F JUMP JUMPDEST DUP3 ADD SWAP2 SWAP1 PUSH1 0x0 MSTORE PUSH1 0x20 PUSH1 0x0 KECCAK256 SWAP1 JUMPDEST DUP2 SLOAD DUP2 MSTORE SWAP1 PUSH1 0x1 ADD SWAP1 PUSH1 0x20 ADD DUP1 DUP4 GT PUSH2 0x2852 JUMPI DUP3 SWAP1 SUB PUSH1 0x1F AND DUP3 ADD SWAP2 JUMPDEST POP POP POP POP POP SWAP1 POP SWAP3 SWAP2 POP POP JUMP JUMPDEST PUSH1 0xD DUP2 DUP1 MLOAD PUSH1 0x20 DUP2 ADD DUP3 ADD DUP1 MLOAD DUP5 DUP3 MSTORE PUSH1 0x20 DUP4 ADD PUSH1 0x20 DUP6 ADD KECCAK256 DUP2 DUP4 MSTORE DUP1 SWAP6 POP POP POP POP POP POP PUSH1 0x0 SWAP2 POP SWAP1 POP DUP1 SLOAD PUSH2 0x28B1 SWAP1 PUSH2 0x3A8A JUMP JUMPDEST DUP1 PUSH1 0x1F ADD PUSH1 0x20 DUP1 SWAP2 DIV MUL PUSH1 0x20 ADD PUSH1 0x40 MLOAD SWAP1 DUP2 ADD PUSH1 0x40 MSTORE DUP1 SWAP3 SWAP2 SWAP1 DUP2 DUP2 MSTORE PUSH1 0x20 ADD DUP3 DUP1 SLOAD PUSH2 0x28DD SWAP1 PUSH2 0x3A8A JUMP JUMPDEST DUP1 ISZERO PUSH2 0x292A JUMPI DUP1 PUSH1 0x1F LT PUSH2 0x28FF JUMPI PUSH2 0x100 DUP1 DUP4 SLOAD DIV MUL DUP4 MSTORE SWAP2 PUSH1 0x20 ADD SWAP2 PUSH2 0x292A JUMP JUMPDEST DUP3 ADD SWAP2 SWAP1 PUSH1 0x0 MSTORE PUSH1 0x20 PUSH1 0x0 KECCAK256 SWAP1 JUMPDEST DUP2 SLOAD DUP2 MSTORE SWAP1 PUSH1 0x1 ADD SWAP1 PUSH1 0x20 ADD DUP1 DUP4 GT PUSH2 0x290D JUMPI DUP3 SWAP1 SUB PUSH1 0x1F AND DUP3 ADD SWAP2 JUMPDEST POP POP POP POP POP DUP2 JUMP JUMPDEST PUSH1 0x4 DUP2 DUP1 MLOAD PUSH1 0x20 DUP2 ADD DUP3 ADD DUP1 MLOAD DUP5 DUP3 MSTORE PUSH1 0x20 DUP4 ADD PUSH1 0x20 DUP6 ADD KECCAK256 DUP2 DUP4 MSTORE DUP1 SWAP6 POP POP POP POP POP POP PUSH1 0x0 SWAP2 POP SWAP1 POP DUP1 SLOAD PUSH2 0x2967 SWAP1 PUSH2 0x3A8A JUMP JUMPDEST DUP1 PUSH1 0x1F ADD PUSH1 0x20 DUP1 SWAP2 DIV MUL PUSH1 0x20 ADD PUSH1 0x40 MLOAD SWAP1 DUP2 ADD PUSH1 0x40 MSTORE DUP1 SWAP3 SWAP2 SWAP1 DUP2 DUP2 MSTORE PUSH1 0x20 ADD DUP3 DUP1 SLOAD PUSH2 0x2993 SWAP1 PUSH2 0x3A8A JUMP JUMPDEST DUP1 ISZERO PUSH2 0x29E0 JUMPI DUP1 PUSH1 0x1F LT PUSH2 0x29B5 JUMPI PUSH2 0x100 DUP1 DUP4 SLOAD DIV MUL DUP4 MSTORE SWAP2 PUSH1 0x20 ADD SWAP2 PUSH2 0x29E0 JUMP JUMPDEST DUP3 ADD SWAP2 SWAP1 PUSH1 0x0 MSTORE PUSH1 0x20 PUSH1 0x0 KECCAK256 SWAP1 JUMPDEST DUP2 SLOAD DUP2 MSTORE SWAP1 PUSH1 0x1 ADD SWAP1 PUSH1 0x20 ADD DUP1 DUP4 GT PUSH2 0x29C3 JUMPI DUP3 SWAP1 SUB PUSH1 0x1F AND DUP3 ADD SWAP2 JUMPDEST POP POP POP POP POP DUP2 JUMP JUMPDEST PUSH1 0xF DUP2 DUP1 MLOAD PUSH1 0x20 DUP2 ADD DUP3 ADD DUP1 MLOAD DUP5 DUP3 MSTORE PUSH1 0x20 DUP4 ADD PUSH1 0x20 DUP6 ADD KECCAK256 DUP2 DUP4 MSTORE DUP1 SWAP6 POP POP POP POP POP POP PUSH1 0x0 SWAP2 POP SWAP1 POP DUP1 SLOAD PUSH2 0x2A1D SWAP1 PUSH2 0x3A8A JUMP JUMPDEST DUP1 PUSH1 0x1F ADD PUSH1 0x20 DUP1 SWAP2 DIV MUL PUSH1 0x20 ADD PUSH1 0x40 MLOAD SWAP1 DUP2 ADD PUSH1 0x40 MSTORE DUP1 SWAP3 SWAP2 SWAP1 DUP2 DUP2 MSTORE PUSH1 0x20 ADD DUP3 DUP1 SLOAD PUSH2 0x2A49 SWAP1 PUSH2 0x3A8A JUMP JUMPDEST DUP1 ISZERO PUSH2 0x2A96 JUMPI DUP1 PUSH1 0x1F LT PUSH2 0x2A6B JUMPI PUSH2 0x100 DUP1 DUP4 SLOAD DIV MUL DUP4 MSTORE SWAP2 PUSH1 0x20 ADD SWAP2 PUSH2 0x2A96 JUMP JUMPDEST DUP3 ADD SWAP2 SWAP1 PUSH1 0x0 MSTORE PUSH1 0x20 PUSH1 0x0 KECCAK256 SWAP1 JUMPDEST DUP2 SLOAD DUP2 MSTORE SWAP1 PUSH1 0x1 ADD SWAP1 PUSH1 0x20 ADD DUP1 DUP4 GT PUSH2 0x2A79 JUMPI DUP3 SWAP1 SUB PUSH1 0x1F AND DUP3 ADD SWAP2 JUMPDEST POP POP POP POP POP DUP2 JUMP JUMPDEST PUSH1 0x60 PUSH1 0x8 DUP4 DUP4 PUSH1 0x40 MLOAD PUSH2 0x2AB2 SWAP3 SWAP2 SWAP1 PUSH2 0x3A37 JUMP JUMPDEST SWAP1 DUP2 MSTORE PUSH1 0x20 ADD PUSH1 0x40 MLOAD DUP1 SWAP2 SUB SWAP1 KECCAK256 DUP1 SLOAD PUSH2 0x2ACB SWAP1 PUSH2 0x3A8A JUMP JUMPDEST DUP1 PUSH1 0x1F ADD PUSH1 0x20 DUP1 SWAP2 DIV MUL PUSH1 0x20 ADD PUSH1 0x40 MLOAD SWAP1 DUP2 ADD PUSH1 0x40 MSTORE DUP1 SWAP3 SWAP2 SWAP1 DUP2 DUP2 MSTORE PUSH1 0x20 ADD DUP3 DUP1 SLOAD PUSH2 0x2AF7 SWAP1 PUSH2 0x3A8A JUMP JUMPDEST DUP1 ISZERO PUSH2 0x2B44 JUMPI DUP1 PUSH1 0x1F LT PUSH2 0x2B19 JUMPI PUSH2 0x100 DUP1 DUP4 SLOAD DIV MUL DUP4 MSTORE SWAP2 PUSH1 0x20 ADD SWAP2 PUSH2 0x2B44 JUMP JUMPDEST DUP3 ADD SWAP2 SWAP1 PUSH1 0x0 MSTORE PUSH1 0x20 PUSH1 0x0 KECCAK256 SWAP1 JUMPDEST DUP2 SLOAD DUP2 MSTORE SWAP1 PUSH1 0x1 ADD SWAP1 PUSH1 0x20 ADD DUP1 DUP4 GT PUSH2 0x2B27 JUMPI DUP3 SWAP1 SUB PUSH1 0x1F AND DUP3 ADD SWAP2 JUMPDEST POP POP POP POP POP SWAP1 POP SWAP3 SWAP2 POP POP JUMP JUMPDEST PUSH1 0x60 PUSH1 0xB DUP4 DUP4 PUSH1 0x40 MLOAD PUSH2 0x2B65 SWAP3 SWAP2 SWAP1 PUSH2 0x3A37 JUMP JUMPDEST SWAP1 DUP2 MSTORE PUSH1 0x20 ADD PUSH1 0x40 MLOAD DUP1 SWAP2 SUB SWAP1 KECCAK256 DUP1 SLOAD PUSH2 0x2B7E SWAP1 PUSH2 0x3A8A JUMP JUMPDEST DUP1 PUSH1 0x1F ADD PUSH1 0x20 DUP1 SWAP2 DIV MUL PUSH1 0x20 ADD PUSH1 0x40 MLOAD SWAP1 DUP2 ADD PUSH1 0x40 MSTORE DUP1 SWAP3 SWAP2 SWAP1 DUP2 DUP2 MSTORE PUSH1 0x20 ADD DUP3 DUP1 SLOAD PUSH2 0x2BAA SWAP1 PUSH2 0x3A8A JUMP JUMPDEST DUP1 ISZERO PUSH2 0x2BF7 JUMPI DUP1 PUSH1 0x1F LT PUSH2 0x2BCC JUMPI PUSH2 0x100 DUP1 DUP4 SLOAD DIV MUL DUP4 MSTORE SWAP2 PUSH1 0x20 ADD SWAP2 PUSH2 0x2BF7 JUMP JUMPDEST DUP3 ADD SWAP2 SWAP1 PUSH1 0x0 MSTORE PUSH1 0x20 PUSH1 0x0 KECCAK256 SWAP1 JUMPDEST DUP2 SLOAD DUP2 MSTORE SWAP1 PUSH1 0x1 ADD SWAP1 PUSH1 0x20 ADD DUP1 DUP4 GT PUSH2 0x2BDA JUMPI DUP3 SWAP1 SUB PUSH1 0x1F AND DUP3 ADD SWAP2 JUMPDEST POP POP POP POP POP SWAP1 POP SWAP3 SWAP2 POP POP JUMP JUMPDEST PUSH1 0x10 DUP2 DUP1 MLOAD PUSH1 0x20 DUP2 ADD DUP3 ADD DUP1 MLOAD DUP5 DUP3 MSTORE PUSH1 0x20 DUP4 ADD PUSH1 0x20 DUP6 ADD KECCAK256 DUP2 DUP4 MSTORE DUP1 SWAP6 POP POP POP POP POP POP PUSH1 0x0 SWAP2 POP SWAP1 POP DUP1 SLOAD PUSH2 0x2C39 SWAP1 PUSH2 0x3A8A JUMP JUMPDEST DUP1 PUSH1 0x1F ADD PUSH1 0x20 DUP1 SWAP2 DIV MUL PUSH1 0x20 ADD PUSH1 0x40 MLOAD SWAP1 DUP2 ADD PUSH1 0x40 MSTORE DUP1 SWAP3 SWAP2 SWAP1 DUP2 DUP2 MSTORE PUSH1 0x20 ADD DUP3 DUP1 SLOAD PUSH2 0x2C65 SWAP1 PUSH2 0x3A8A JUMP JUMPDEST DUP1 ISZERO PUSH2 0x2CB2 JUMPI DUP1 PUSH1 0x1F LT PUSH2 0x2C87 JUMPI PUSH2 0x100 DUP1 DUP4 SLOAD DIV MUL DUP4 MSTORE SWAP2 PUSH1 0x20 ADD SWAP2 PUSH2 0x2CB2 JUMP JUMPDEST DUP3 ADD SWAP2 SWAP1 PUSH1 0x0 MSTORE PUSH1 0x20 PUSH1 0x0 KECCAK256 SWAP1 JUMPDEST DUP2 SLOAD DUP2 MSTORE SWAP1 PUSH1 0x1 ADD SWAP1 PUSH1 0x20 ADD DUP1 DUP4 GT PUSH2 0x2C95 JUMPI DUP3 SWAP1 SUB PUSH1 0x1F AND DUP3 ADD SWAP2 JUMPDEST POP POP POP POP POP DUP2 JUMP JUMPDEST CALLER PUSH20 0xFFFFFFFFFFFFFFFFFFFFFFFFFFFFFFFFFFFFFFFF AND PUSH1 0x0 DUP6 DUP6 PUSH1 0x40 MLOAD PUSH2 0x2CE3 SWAP3 SWAP2 SWAP1 PUSH2 0x3A37 JUMP JUMPDEST SWAP1 DUP2 MSTORE PUSH1 0x20 ADD PUSH1 0x40 MLOAD DUP1 SWAP2 SUB SWAP1 KECCAK256 PUSH1 0x0 SWAP1 SLOAD SWAP1 PUSH2 0x100 EXP SWAP1 DIV PUSH20 0xFFFFFFFFFFFFFFFFFFFFFFFFFFFFFFFFFFFFFFFF AND PUSH20 0xFFFFFFFFFFFFFFFFFFFFFFFFFFFFFFFFFFFFFFFF AND EQ PUSH2 0x2D32 JUMPI PUSH1 0x0 DUP1 REVERT JUMPDEST DUP2 DUP2 PUSH1 0x4 DUP7 DUP7 PUSH1 0x40 MLOAD PUSH2 0x2D46 SWAP3 SWAP2 SWAP1 PUSH2 0x3A37 JUMP JUMPDEST SWAP1 DUP2 MSTORE PUSH1 0x20 ADD PUSH1 0x40 MLOAD DUP1 SWAP2 SUB SWAP1 KECCAK256 SWAP2 DUP3 PUSH2 0x2D61 SWAP3 SWAP2 SWAP1 PUSH2 0x3C67 JUMP JUMPDEST POP POP POP POP POP JUMP JUMPDEST PUSH1 0x0 PUSH20 0xFFFFFFFFFFFFFFFFFFFFFFFFFFFFFFFFFFFFFFFF AND PUSH1 0x0 DUP4 DUP4 PUSH1 0x40 MLOAD PUSH2 0x2D92 SWAP3 SWAP2 SWAP1 PUSH2 0x3A37 JUMP JUMPDEST SWAP1 DUP2 MSTORE PUSH1 0x20 ADD PUSH1 0x40 MLOAD DUP1 SWAP2 SUB SWAP1 KECCAK256 PUSH1 0x0 SWAP1 SLOAD SWAP1 PUSH2 0x100 EXP SWAP1 DIV PUSH20 0xFFFFFFFFFFFFFFFFFFFFFFFFFFFFFFFFFFFFFFFF AND PUSH20 0xFFFFFFFFFFFFFFFFFFFFFFFFFFFFFFFFFFFFFFFF AND EQ PUSH2 0x2DE1 JUMPI PUSH1 0x0 DUP1 REVERT JUMPDEST CALLER PUSH1 0x0 DUP4 DUP4 PUSH1 0x40 MLOAD PUSH2 0x2DF4 SWAP3 SWAP2 SWAP1 PUSH2 0x3A37 JUMP JUMPDEST SWAP1 DUP2 MSTORE PUSH1 0x20 ADD PUSH1 0x40 MLOAD DUP1 SWAP2 SUB SWAP1 KECCAK256 PUSH1 0x0 PUSH2 0x100 EXP DUP2 SLOAD DUP2 PUSH20 0xFFFFFFFFFFFFFFFFFFFFFFFFFFFFFFFFFFFFFFFF MUL NOT AND SWAP1 DUP4 PUSH20 0xFFFFFFFFFFFFFFFFFFFFFFFFFFFFFFFFFFFFFFFF AND MUL OR SWAP1 SSTORE POP PUSH1 0x0 PUSH2 0x2E4C DUP4 DUP4 PUSH2 0x324B JUMP JUMPDEST SWAP1 POP DUP1 CALLVALUE LT ISZERO PUSH2 0x2E91 JUMPI PUSH1 0x40 MLOAD PUSH32 0x8C379A000000000000000000000000000000000000000000000000000000000 DUP2 MSTORE PUSH1 0x4 ADD PUSH2 0x2E88 SWAP1 PUSH2 0x3D83 JUMP JUMPDEST PUSH1 0x40 MLOAD DUP1 SWAP2 SUB SWAP1 REVERT JUMPDEST PUSH2 0x2ED0 PUSH1 0x40 MLOAD DUP1 PUSH1 0x40 ADD PUSH1 0x40 MSTORE DUP1 PUSH1 0x1B DUP2 MSTORE PUSH1 0x20 ADD PUSH32 0x2573206861732072656769737465726564206120646F6D61696E210000000000 DUP2 MSTORE POP CALLER PUSH2 0x338B JUMP JUMPDEST POP POP POP JUMP JUMPDEST CALLER PUSH20 0xFFFFFFFFFFFFFFFFFFFFFFFFFFFFFFFFFFFFFFFF AND PUSH1 0x0 DUP6 DUP6 PUSH1 0x40 MLOAD PUSH2 0x2EFE SWAP3 SWAP2 SWAP1 PUSH2 0x3A37 JUMP JUMPDEST SWAP1 DUP2 MSTORE PUSH1 0x20 ADD PUSH1 0x40 MLOAD DUP1 SWAP2 SUB SWAP1 KECCAK256 PUSH1 0x0 SWAP1 SLOAD SWAP1 PUSH2 0x100 EXP SWAP1 DIV PUSH20 0xFFFFFFFFFFFFFFFFFFFFFFFFFFFFFFFFFFFFFFFF AND PUSH20 0xFFFFFFFFFFFFFFFFFFFFFFFFFFFFFFFFFFFFFFFF AND EQ PUSH2 0x2F4D JUMPI PUSH1 0x0 DUP1 REVERT JUMPDEST DUP2 DUP2 PUSH1 0xD DUP7 DUP7 PUSH1 0x40 MLOAD PUSH2 0x2F61 SWAP3 SWAP2 SWAP1 PUSH2 0x3A37 JUMP JUMPDEST SWAP1 DUP2 MSTORE PUSH1 0x20 ADD PUSH1 0x40 MLOAD DUP1 SWAP2 SUB SWAP1 KECCAK256 SWAP2 DUP3 PUSH2 0x2F7C SWAP3 SWAP2 SWAP1 PUSH2 0x3C67 JUMP JUMPDEST POP POP POP POP POP JUMP JUMPDEST PUSH1 0xA DUP2 DUP1 MLOAD PUSH1 0x20 DUP2 ADD DUP3 ADD DUP1 MLOAD DUP5 DUP3 MSTORE PUSH1 0x20 DUP4 ADD PUSH1 0x20 DUP6 ADD KECCAK256 DUP2 DUP4 MSTORE DUP1 SWAP6 POP POP POP POP POP POP PUSH1 0x0 SWAP2 POP SWAP1 POP DUP1 SLOAD PUSH2 0x2FB8 SWAP1 PUSH2 0x3A8A JUMP JUMPDEST DUP1 PUSH1 0x1F ADD PUSH1 0x20 DUP1 SWAP2 DIV MUL PUSH1 0x20 ADD PUSH1 0x40 MLOAD SWAP1 DUP2 ADD PUSH1 0x40 MSTORE DUP1 SWAP3 SWAP2 SWAP1 DUP2 DUP2 MSTORE PUSH1 0x20 ADD DUP3 DUP1 SLOAD PUSH2 0x2FE4 SWAP1 PUSH2 0x3A8A JUMP JUMPDEST DUP1 ISZERO PUSH2 0x3031 JUMPI DUP1 PUSH1 0x1F LT PUSH2 0x3006 JUMPI PUSH2 0x100 DUP1 DUP4 SLOAD DIV MUL DUP4 MSTORE SWAP2 PUSH1 0x20 ADD SWAP2 PUSH2 0x3031 JUMP JUMPDEST DUP3 ADD SWAP2 SWAP1 PUSH1 0x0 MSTORE PUSH1 0x20 PUSH1 0x0 KECCAK256 SWAP1 JUMPDEST DUP2 SLOAD DUP2 MSTORE SWAP1 PUSH1 0x1 ADD SWAP1 PUSH1 0x20 ADD DUP1 DUP4 GT PUSH2 0x3014 JUMPI DUP3 SWAP1 SUB PUSH1 0x1F AND DUP3 ADD SWAP2 JUMPDEST POP POP POP POP POP DUP2 JUMP JUMPDEST PUSH1 0x5 DUP2 DUP1 MLOAD PUSH1 0x20 DUP2 ADD DUP3 ADD DUP1 MLOAD DUP5 DUP3 MSTORE PUSH1 0x20 DUP4 ADD PUSH1 0x20 DUP6 ADD KECCAK256 DUP2 DUP4 MSTORE DUP1 SWAP6 POP POP POP POP POP POP PUSH1 0x0 SWAP2 POP SWAP1 POP DUP1 SLOAD PUSH2 0x306E SWAP1 PUSH2 0x3A8A JUMP JUMPDEST DUP1 PUSH1 0x1F ADD PUSH1 0x20 DUP1 SWAP2 DIV MUL PUSH1 0x20 ADD PUSH1 0x40 MLOAD SWAP1 DUP2 ADD PUSH1 0x40 MSTORE DUP1 SWAP3 SWAP2 SWAP1 DUP2 DUP2 MSTORE PUSH1 0x20 ADD DUP3 DUP1 SLOAD PUSH2 0x309A SWAP1 PUSH2 0x3A8A JUMP JUMPDEST DUP1 ISZERO PUSH2 0x30E7 JUMPI DUP1 PUSH1 0x1F LT PUSH2 0x30BC JUMPI PUSH2 0x100 DUP1 DUP4 SLOAD DIV MUL DUP4 MSTORE SWAP2 PUSH1 0x20 ADD SWAP2 PUSH2 0x30E7 JUMP JUMPDEST DUP3 ADD SWAP2 SWAP1 PUSH1 0x0 MSTORE PUSH1 0x20 PUSH1 0x0 KECCAK256 SWAP1 JUMPDEST DUP2 SLOAD DUP2 MSTORE SWAP1 PUSH1 0x1 ADD SWAP1 PUSH1 0x20 ADD DUP1 DUP4 GT PUSH2 0x30CA JUMPI DUP3 SWAP1 SUB PUSH1 0x1F AND DUP3 ADD SWAP2 JUMPDEST POP POP POP POP POP DUP2 JUMP JUMPDEST CALLER PUSH20 0xFFFFFFFFFFFFFFFFFFFFFFFFFFFFFFFFFFFFFFFF AND PUSH1 0x0 DUP6 DUP6 PUSH1 0x40 MLOAD PUSH2 0x3118 SWAP3 SWAP2 SWAP1 PUSH2 0x3A37 JUMP JUMPDEST SWAP1 DUP2 MSTORE PUSH1 0x20 ADD PUSH1 0x40 MLOAD DUP1 SWAP2 SUB SWAP1 KECCAK256 PUSH1 0x0 SWAP1 SLOAD SWAP1 PUSH2 0x100 EXP SWAP1 DIV PUSH20 0xFFFFFFFFFFFFFFFFFFFFFFFFFFFFFFFFFFFFFFFF AND PUSH20 0xFFFFFFFFFFFFFFFFFFFFFFFFFFFFFFFFFFFFFFFF AND EQ PUSH2 0x3167 JUMPI PUSH1 0x0 DUP1 REVERT JUMPDEST DUP2 DUP2 PUSH1 0x3 DUP7 DUP7 PUSH1 0x40 MLOAD PUSH2 0x317B SWAP3 SWAP2 SWAP1 PUSH2 0x3A37 JUMP JUMPDEST SWAP1 DUP2 MSTORE PUSH1 0x20 ADD PUSH1 0x40 MLOAD DUP1 SWAP2 SUB SWAP1 KECCAK256 SWAP2 DUP3 PUSH2 0x3196 SWAP3 SWAP2 SWAP1 PUSH2 0x3C67 JUMP JUMPDEST POP POP POP POP POP JUMP JUMPDEST CALLER PUSH20 0xFFFFFFFFFFFFFFFFFFFFFFFFFFFFFFFFFFFFFFFF AND PUSH1 0x0 DUP6 DUP6 PUSH1 0x40 MLOAD PUSH2 0x31C6 SWAP3 SWAP2 SWAP1 PUSH2 0x3A37 JUMP JUMPDEST SWAP1 DUP2 MSTORE PUSH1 0x20 ADD PUSH1 0x40 MLOAD DUP1 SWAP2 SUB SWAP1 KECCAK256 PUSH1 0x0 SWAP1 SLOAD SWAP1 PUSH2 0x100 EXP SWAP1 DIV PUSH20 0xFFFFFFFFFFFFFFFFFFFFFFFFFFFFFFFFFFFFFFFF AND PUSH20 0xFFFFFFFFFFFFFFFFFFFFFFFFFFFFFFFFFFFFFFFF AND EQ PUSH2 0x3215 JUMPI PUSH1 0x0 DUP1 REVERT JUMPDEST DUP2 DUP2 PUSH1 0xC DUP7 DUP7 PUSH1 0x40 MLOAD PUSH2 0x3229 SWAP3 SWAP2 SWAP1 PUSH2 0x3A37 JUMP JUMPDEST SWAP1 DUP2 MSTORE PUSH1 0x20 ADD PUSH1 0x40 MLOAD DUP1 SWAP2 SUB SWAP1 KECCAK256 SWAP2 DUP3 PUSH2 0x3244 SWAP3 SWAP2 SWAP1 PUSH2 0x3C67 JUMP JUMPDEST POP POP POP POP POP JUMP JUMPDEST PUSH1 0x0 DUP1 PUSH2 0x329B DUP5 DUP5 DUP1 DUP1 PUSH1 0x1F ADD PUSH1 0x20 DUP1 SWAP2 DIV MUL PUSH1 0x20 ADD PUSH1 0x40 MLOAD SWAP1 DUP2 ADD PUSH1 0x40 MSTORE DUP1 SWAP4 SWAP3 SWAP2 SWAP1 DUP2 DUP2 MSTORE PUSH1 0x20 ADD DUP4 DUP4 DUP1 DUP3 DUP5 CALLDATACOPY PUSH1 0x0 DUP2 DUP5 ADD MSTORE PUSH1 0x1F NOT PUSH1 0x1F DUP3 ADD AND SWAP1 POP DUP1 DUP4 ADD SWAP3 POP POP POP POP POP POP POP PUSH2 0x3427 JUMP JUMPDEST SWAP1 POP PUSH1 0x0 DUP2 GT PUSH2 0x32AA JUMPI PUSH1 0x0 DUP1 REVERT JUMPDEST PUSH1 0x3 DUP2 SUB PUSH2 0x32C3 JUMPI PUSH8 0x853A0D2313C0000 SWAP2 POP POP PUSH2 0x32E9 JUMP JUMPDEST PUSH1 0x4 DUP2 SUB PUSH2 0x32DC JUMPI PUSH8 0x429D069189E0000 SWAP2 POP POP PUSH2 0x32E9 JUMP JUMPDEST PUSH8 0x16345785D8A0000 SWAP2 POP POP JUMPDEST SWAP3 SWAP2 POP POP JUMP JUMPDEST PUSH2 0x3387 DUP3 DUP3 PUSH1 0x40 MLOAD PUSH1 0x24 ADD PUSH2 0x3305 SWAP3 SWAP2 SWAP1 PUSH2 0x3DA3 JUMP JUMPDEST PUSH1 0x40 MLOAD PUSH1 0x20 DUP2 DUP4 SUB SUB DUP2 MSTORE SWAP1 PUSH1 0x40 MSTORE PUSH32 0x4B5C427700000000000000000000000000000000000000000000000000000000 PUSH28 0xFFFFFFFFFFFFFFFFFFFFFFFFFFFFFFFFFFFFFFFFFFFFFFFFFFFFFFFF NOT AND PUSH1 0x20 DUP3 ADD DUP1 MLOAD PUSH28 0xFFFFFFFFFFFFFFFFFFFFFFFFFFFFFFFFFFFFFFFFFFFFFFFFFFFFFFFF DUP4 DUP2 DUP4 AND OR DUP4 MSTORE POP POP POP POP PUSH2 0x35DC JUMP JUMPDEST POP POP JUMP JUMPDEST PUSH2 0x3423 DUP3 DUP3 PUSH1 0x40 MLOAD PUSH1 0x24 ADD PUSH2 0x33A1 SWAP3 SWAP2 SWAP1 PUSH2 0x3DDA JUMP JUMPDEST PUSH1 0x40 MLOAD PUSH1 0x20 DUP2 DUP4 SUB SUB DUP2 MSTORE SWAP1 PUSH1 0x40 MSTORE PUSH32 0x319AF33300000000000000000000000000000000000000000000000000000000 PUSH28 0xFFFFFFFFFFFFFFFFFFFFFFFFFFFFFFFFFFFFFFFFFFFFFFFFFFFFFFFF NOT AND PUSH1 0x20 DUP3 ADD DUP1 MLOAD PUSH28 0xFFFFFFFFFFFFFFFFFFFFFFFFFFFFFFFFFFFFFFFFFFFFFFFFFFFFFFFF DUP4 DUP2 DUP4 AND OR DUP4 MSTORE POP POP POP POP PUSH2 0x35DC JUMP JUMPDEST POP POP JUMP JUMPDEST PUSH1 0x0 DUP1 PUSH1 0x0 DUP1 DUP5 MLOAD SWAP1 POP PUSH1 0x0 SWAP3 POP JUMPDEST DUP1 DUP3 LT ISZERO PUSH2 0x35D1 JUMPI PUSH1 0x0 DUP6 DUP4 DUP2 MLOAD DUP2 LT PUSH2 0x3453 JUMPI PUSH2 0x3452 PUSH2 0x3E0A JUMP JUMPDEST JUMPDEST PUSH1 0x20 ADD ADD MLOAD PUSH1 0xF8 SHR PUSH1 0xF8 SHL SWAP1 POP PUSH1 0x80 PUSH1 0xF8 SHL DUP2 PUSH31 0xFFFFFFFFFFFFFFFFFFFFFFFFFFFFFFFFFFFFFFFFFFFFFFFFFFFFFFFFFFFFFF NOT AND LT ISZERO PUSH2 0x34A2 JUMPI PUSH1 0x1 DUP4 PUSH2 0x349B SWAP2 SWAP1 PUSH2 0x3E68 JUMP JUMPDEST SWAP3 POP PUSH2 0x35BD JUMP JUMPDEST PUSH1 0xE0 PUSH1 0xF8 SHL DUP2 PUSH31 0xFFFFFFFFFFFFFFFFFFFFFFFFFFFFFFFFFFFFFFFFFFFFFFFFFFFFFFFFFFFFFF NOT AND LT ISZERO PUSH2 0x34E4 JUMPI PUSH1 0x2 DUP4 PUSH2 0x34DD SWAP2 SWAP1 PUSH2 0x3E68 JUMP JUMPDEST SWAP3 POP PUSH2 0x35BC JUMP JUMPDEST PUSH1 0xF0 PUSH1 0xF8 SHL DUP2 PUSH31 0xFFFFFFFFFFFFFFFFFFFFFFFFFFFFFFFFFFFFFFFFFFFFFFFFFFFFFFFFFFFFFF NOT AND LT ISZERO PUSH2 0x3526 JUMPI PUSH1 0x3 DUP4 PUSH2 0x351F SWAP2 SWAP1 PUSH2 0x3E68 JUMP JUMPDEST SWAP3 POP PUSH2 0x35BB JUMP JUMPDEST PUSH1 0xF8 DUP1 SHL DUP2 PUSH31 0xFFFFFFFFFFFFFFFFFFFFFFFFFFFFFFFFFFFFFFFFFFFFFFFFFFFFFFFFFFFFFF NOT AND LT ISZERO PUSH2 0x3567 JUMPI PUSH1 0x4 DUP4 PUSH2 0x3560 SWAP2 SWAP1 PUSH2 0x3E68 JUMP JUMPDEST SWAP3 POP PUSH2 0x35BA JUMP JUMPDEST PUSH1 0xFC PUSH1 0xF8 SHL DUP2 PUSH31 0xFFFFFFFFFFFFFFFFFFFFFFFFFFFFFFFFFFFFFFFFFFFFFFFFFFFFFFFFFFFFFF NOT AND LT ISZERO PUSH2 0x35A9 JUMPI PUSH1 0x5 DUP4 PUSH2 0x35A2 SWAP2 SWAP1 PUSH2 0x3E68 JUMP JUMPDEST SWAP3 POP PUSH2 0x35B9 JUMP JUMPDEST PUSH1 0x6 DUP4 PUSH2 0x35B6 SWAP2 SWAP1 PUSH2 0x3E68 JUMP JUMPDEST SWAP3 POP JUMPDEST JUMPDEST JUMPDEST JUMPDEST JUMPDEST POP DUP3 DUP1 PUSH2 0x35C9 SWAP1 PUSH2 0x3E9C JUMP JUMPDEST SWAP4 POP POP PUSH2 0x3436 JUMP JUMPDEST DUP3 SWAP4 POP POP POP POP SWAP2 SWAP1 POP JUMP JUMPDEST PUSH1 0x0 DUP2 MLOAD SWAP1 POP PUSH1 0x0 PUSH11 0x636F6E736F6C652E6C6F67 SWAP1 POP PUSH1 0x20 DUP4 ADD PUSH1 0x0 DUP1 DUP5 DUP4 DUP6 GAS STATICCALL POP POP POP POP POP JUMP JUMPDEST PUSH1 0x0 PUSH1 0x40 MLOAD SWAP1 POP SWAP1 JUMP JUMPDEST PUSH1 0x0 DUP1 REVERT JUMPDEST PUSH1 0x0 DUP1 REVERT JUMPDEST PUSH1 0x0 DUP1 REVERT JUMPDEST PUSH1 0x0 DUP1 REVERT JUMPDEST PUSH1 0x0 DUP1 REVERT JUMPDEST PUSH1 0x0 DUP1 DUP4 PUSH1 0x1F DUP5 ADD SLT PUSH2 0x363E JUMPI PUSH2 0x363D PUSH2 0x3619 JUMP JUMPDEST JUMPDEST DUP3 CALLDATALOAD SWAP1 POP PUSH8 0xFFFFFFFFFFFFFFFF DUP2 GT ISZERO PUSH2 0x365B JUMPI PUSH2 0x365A PUSH2 0x361E JUMP JUMPDEST JUMPDEST PUSH1 0x20 DUP4 ADD SWAP2 POP DUP4 PUSH1 0x1 DUP3 MUL DUP4 ADD GT ISZERO PUSH2 0x3677 JUMPI PUSH2 0x3676 PUSH2 0x3623 JUMP JUMPDEST JUMPDEST SWAP3 POP SWAP3 SWAP1 POP JUMP JUMPDEST PUSH1 0x0 DUP1 PUSH1 0x0 DUP1 PUSH1 0x40 DUP6 DUP8 SUB SLT ISZERO PUSH2 0x3698 JUMPI PUSH2 0x3697 PUSH2 0x360F JUMP JUMPDEST JUMPDEST PUSH1 0x0 DUP6 ADD CALLDATALOAD PUSH8 0xFFFFFFFFFFFFFFFF DUP2 GT ISZERO PUSH2 0x36B6 JUMPI PUSH2 0x36B5 PUSH2 0x3614 JUMP JUMPDEST JUMPDEST PUSH2 0x36C2 DUP8 DUP3 DUP9 ADD PUSH2 0x3628 JUMP JUMPDEST SWAP5 POP SWAP5 POP POP PUSH1 0x20 DUP6 ADD CALLDATALOAD PUSH8 0xFFFFFFFFFFFFFFFF DUP2 GT ISZERO PUSH2 0x36E5 JUMPI PUSH2 0x36E4 PUSH2 0x3614 JUMP JUMPDEST JUMPDEST PUSH2 0x36F1 DUP8 DUP3 DUP9 ADD PUSH2 0x3628 JUMP JUMPDEST SWAP3 POP SWAP3 POP POP SWAP3 SWAP6 SWAP2 SWAP5 POP SWAP3 POP JUMP JUMPDEST PUSH1 0x0 DUP1 PUSH1 0x20 DUP4 DUP6 SUB SLT ISZERO PUSH2 0x3716 JUMPI PUSH2 0x3715 PUSH2 0x360F JUMP JUMPDEST JUMPDEST PUSH1 0x0 DUP4 ADD CALLDATALOAD PUSH8 0xFFFFFFFFFFFFFFFF DUP2 GT ISZERO PUSH2 0x3734 JUMPI PUSH2 0x3733 PUSH2 0x3614 JUMP JUMPDEST JUMPDEST PUSH2 0x3740 DUP6 DUP3 DUP7 ADD PUSH2 0x3628 JUMP JUMPDEST SWAP3 POP SWAP3 POP POP SWAP3 POP SWAP3 SWAP1 POP JUMP JUMPDEST PUSH1 0x0 DUP2 MLOAD SWAP1 POP SWAP2 SWAP1 POP JUMP JUMPDEST PUSH1 0x0 DUP3 DUP3 MSTORE PUSH1 0x20 DUP3 ADD SWAP1 POP SWAP3 SWAP2 POP POP JUMP JUMPDEST PUSH1 0x0 JUMPDEST DUP4 DUP2 LT ISZERO PUSH2 0x3786 JUMPI DUP1 DUP3 ADD MLOAD DUP2 DUP5 ADD MSTORE PUSH1 0x20 DUP2 ADD SWAP1 POP PUSH2 0x376B JUMP JUMPDEST PUSH1 0x0 DUP5 DUP5 ADD MSTORE POP POP POP POP JUMP JUMPDEST PUSH1 0x0 PUSH1 0x1F NOT PUSH1 0x1F DUP4 ADD AND SWAP1 POP SWAP2 SWAP1 POP JUMP JUMPDEST PUSH1 0x0 PUSH2 0x37AE DUP3 PUSH2 0x374C JUMP JUMPDEST PUSH2 0x37B8 DUP2 DUP6 PUSH2 0x3757 JUMP JUMPDEST SWAP4 POP PUSH2 0x37C8 DUP2 DUP6 PUSH1 0x20 DUP7 ADD PUSH2 0x3768 JUMP JUMPDEST PUSH2 0x37D1 DUP2 PUSH2 0x3792 JUMP JUMPDEST DUP5 ADD SWAP2 POP POP SWAP3 SWAP2 POP POP JUMP JUMPDEST PUSH1 0x0 PUSH1 0x20 DUP3 ADD SWAP1 POP DUP2 DUP2 SUB PUSH1 0x0 DUP4 ADD MSTORE PUSH2 0x37F6 DUP2 DUP5 PUSH2 0x37A3 JUMP JUMPDEST SWAP1 POP SWAP3 SWAP2 POP POP JUMP JUMPDEST PUSH1 0x0 DUP1 REVERT JUMPDEST PUSH32 0x4E487B7100000000000000000000000000000000000000000000000000000000 PUSH1 0x0 MSTORE PUSH1 0x41 PUSH1 0x4 MSTORE PUSH1 0x24 PUSH1 0x0 REVERT JUMPDEST PUSH2 0x383B DUP3 PUSH2 0x3792 JUMP JUMPDEST DUP2 ADD DUP2 DUP2 LT PUSH8 0xFFFFFFFFFFFFFFFF DUP3 GT OR ISZERO PUSH2 0x385A JUMPI PUSH2 0x3859 PUSH2 0x3803 JUMP JUMPDEST JUMPDEST DUP1 PUSH1 0x40 MSTORE POP POP POP JUMP JUMPDEST PUSH1 0x0 PUSH2 0x386D PUSH2 0x3605 JUMP JUMPDEST SWAP1 POP PUSH2 0x3879 DUP3 DUP3 PUSH2 0x3832 JUMP JUMPDEST SWAP2 SWAP1 POP JUMP JUMPDEST PUSH1 0x0 PUSH8 0xFFFFFFFFFFFFFFFF DUP3 GT ISZERO PUSH2 0x3899 JUMPI PUSH2 0x3898 PUSH2 0x3803 JUMP JUMPDEST JUMPDEST PUSH2 0x38A2 DUP3 PUSH2 0x3792 JUMP JUMPDEST SWAP1 POP PUSH1 0x20 DUP2 ADD SWAP1 POP SWAP2 SWAP1 POP JUMP JUMPDEST DUP3 DUP2 DUP4 CALLDATACOPY PUSH1 0x0 DUP4 DUP4 ADD MSTORE POP POP POP JUMP JUMPDEST PUSH1 0x0 PUSH2 0x38D1 PUSH2 0x38CC DUP5 PUSH2 0x387E JUMP JUMPDEST PUSH2 0x3863 JUMP JUMPDEST SWAP1 POP DUP3 DUP2 MSTORE PUSH1 0x20 DUP2 ADD DUP5 DUP5 DUP5 ADD GT ISZERO PUSH2 0x38ED JUMPI PUSH2 0x38EC PUSH2 0x37FE JUMP JUMPDEST JUMPDEST PUSH2 0x38F8 DUP5 DUP3 DUP6 PUSH2 0x38AF JUMP JUMPDEST POP SWAP4 SWAP3 POP POP POP JUMP JUMPDEST PUSH1 0x0 DUP3 PUSH1 0x1F DUP4 ADD SLT PUSH2 0x3915 JUMPI PUSH2 0x3914 PUSH2 0x3619 JUMP JUMPDEST JUMPDEST DUP2 CALLDATALOAD PUSH2 0x3925 DUP5 DUP3 PUSH1 0x20 DUP7 ADD PUSH2 0x38BE JUMP JUMPDEST SWAP2 POP POP SWAP3 SWAP2 POP POP JUMP JUMPDEST PUSH1 0x0 PUSH1 0x20 DUP3 DUP5 SUB SLT ISZERO PUSH2 0x3944 JUMPI PUSH2 0x3943 PUSH2 0x360F JUMP JUMPDEST JUMPDEST PUSH1 0x0 DUP3 ADD CALLDATALOAD PUSH8 0xFFFFFFFFFFFFFFFF DUP2 GT ISZERO PUSH2 0x3962 JUMPI PUSH2 0x3961 PUSH2 0x3614 JUMP JUMPDEST JUMPDEST PUSH2 0x396E DUP5 DUP3 DUP6 ADD PUSH2 0x3900 JUMP JUMPDEST SWAP2 POP POP SWAP3 SWAP2 POP POP JUMP JUMPDEST PUSH1 0x0 PUSH20 0xFFFFFFFFFFFFFFFFFFFFFFFFFFFFFFFFFFFFFFFF DUP3 AND SWAP1 POP SWAP2 SWAP1 POP JUMP JUMPDEST PUSH1 0x0 PUSH2 0x39A2 DUP3 PUSH2 0x3977 JUMP JUMPDEST SWAP1 POP SWAP2 SWAP1 POP JUMP JUMPDEST PUSH2 0x39B2 DUP2 PUSH2 0x3997 JUMP JUMPDEST DUP3 MSTORE POP POP JUMP JUMPDEST PUSH1 0x0 PUSH1 0x20 DUP3 ADD SWAP1 POP PUSH2 0x39CD PUSH1 0x0 DUP4 ADD DUP5 PUSH2 0x39A9 JUMP JUMPDEST SWAP3 SWAP2 POP POP JUMP JUMPDEST PUSH1 0x0 DUP2 SWAP1 POP SWAP2 SWAP1 POP JUMP JUMPDEST PUSH2 0x39E6 DUP2 PUSH2 0x39D3 JUMP JUMPDEST DUP3 MSTORE POP POP JUMP JUMPDEST PUSH1 0x0 PUSH1 0x20 DUP3 ADD SWAP1 POP PUSH2 0x3A01 PUSH1 0x0 DUP4 ADD DUP5 PUSH2 0x39DD JUMP JUMPDEST SWAP3 SWAP2 POP POP JUMP JUMPDEST PUSH1 0x0 DUP2 SWAP1 POP SWAP3 SWAP2 POP POP JUMP JUMPDEST PUSH1 0x0 PUSH2 0x3A1E DUP4 DUP6 PUSH2 0x3A07 JUMP JUMPDEST SWAP4 POP PUSH2 0x3A2B DUP4 DUP6 DUP5 PUSH2 0x38AF JUMP JUMPDEST DUP3 DUP5 ADD SWAP1 POP SWAP4 SWAP3 POP POP POP JUMP JUMPDEST PUSH1 0x0 PUSH2 0x3A44 DUP3 DUP5 DUP7 PUSH2 0x3A12 JUMP JUMPDEST SWAP2 POP DUP2 SWAP1 POP SWAP4 SWAP3 POP POP POP JUMP JUMPDEST PUSH1 0x0 DUP3 SWAP1 POP SWAP3 SWAP2 POP POP JUMP JUMPDEST PUSH32 0x4E487B7100000000000000000000000000000000000000000000000000000000 PUSH1 0x0 MSTORE PUSH1 0x22 PUSH1 0x4 MSTORE PUSH1 0x24 PUSH1 0x0 REVERT JUMPDEST PUSH1 0x0 PUSH1 0x2 DUP3 DIV SWAP1 POP PUSH1 0x1 DUP3 AND DUP1 PUSH2 0x3AA2 JUMPI PUSH1 0x7F DUP3 AND SWAP2 POP JUMPDEST PUSH1 0x20 DUP3 LT DUP2 SUB PUSH2 0x3AB5 JUMPI PUSH2 0x3AB4 PUSH2 0x3A5B JUMP JUMPDEST JUMPDEST POP SWAP2 SWAP1 POP JUMP JUMPDEST PUSH1 0x0 DUP2 SWAP1 POP DUP2 PUSH1 0x0 MSTORE PUSH1 0x20 PUSH1 0x0 KECCAK256 SWAP1 POP SWAP2 SWAP1 POP JUMP JUMPDEST PUSH1 0x0 PUSH1 0x20 PUSH1 0x1F DUP4 ADD DIV SWAP1 POP SWAP2 SWAP1 POP JUMP JUMPDEST PUSH1 0x0 DUP3 DUP3 SHL SWAP1 POP SWAP3 SWAP2 POP POP JUMP JUMPDEST PUSH1 0x0 PUSH1 0x8 DUP4 MUL PUSH2 0x3B1D PUSH32 0xFFFFFFFFFFFFFFFFFFFFFFFFFFFFFFFFFFFFFFFFFFFFFFFFFFFFFFFFFFFFFFFF DUP3 PUSH2 0x3AE0 JUMP JUMPDEST PUSH2 0x3B27 DUP7 DUP4 PUSH2 0x3AE0 JUMP JUMPDEST SWAP6 POP DUP1 NOT DUP5 AND SWAP4 POP DUP1 DUP7 AND DUP5 OR SWAP3 POP POP POP SWAP4 SWAP3 POP POP POP JUMP JUMPDEST PUSH1 0x0 DUP2 SWAP1 POP SWAP2 SWAP1 POP JUMP JUMPDEST PUSH1 0x0 PUSH2 0x3B64 PUSH2 0x3B5F PUSH2 0x3B5A DUP5 PUSH2 0x39D3 JUMP JUMPDEST PUSH2 0x3B3F JUMP JUMPDEST PUSH2 0x39D3 JUMP JUMPDEST SWAP1 POP SWAP2 SWAP1 POP JUMP JUMPDEST PUSH1 0x0 DUP2 SWAP1 POP SWAP2 SWAP1 POP JUMP JUMPDEST PUSH2 0x3B7E DUP4 PUSH2 0x3B49 JUMP JUMPDEST PUSH2 0x3B92 PUSH2 0x3B8A DUP3 PUSH2 0x3B6B JUMP JUMPDEST DUP5 DUP5 SLOAD PUSH2 0x3AED JUMP JUMPDEST DUP3 SSTORE POP POP POP POP JUMP JUMPDEST PUSH1 0x0 SWAP1 JUMP JUMPDEST PUSH2 0x3BA7 PUSH2 0x3B9A JUMP JUMPDEST PUSH2 0x3BB2 DUP2 DUP5 DUP5 PUSH2 0x3B75 JUMP JUMPDEST POP POP POP JUMP JUMPDEST JUMPDEST DUP2 DUP2 LT ISZERO PUSH2 0x3BD6 JUMPI PUSH2 0x3BCB PUSH1 0x0 DUP3 PUSH2 0x3B9F JUMP JUMPDEST PUSH1 0x1 DUP2 ADD SWAP1 POP PUSH2 0x3BB8 JUMP JUMPDEST POP POP JUMP JUMPDEST PUSH1 0x1F DUP3 GT ISZERO PUSH2 0x3C1B JUMPI PUSH2 0x3BEC DUP2 PUSH2 0x3ABB JUMP JUMPDEST PUSH2 0x3BF5 DUP5 PUSH2 0x3AD0 JUMP JUMPDEST DUP2 ADD PUSH1 0x20 DUP6 LT ISZERO PUSH2 0x3C04 JUMPI DUP2 SWAP1 POP JUMPDEST PUSH2 0x3C18 PUSH2 0x3C10 DUP6 PUSH2 0x3AD0 JUMP JUMPDEST DUP4 ADD DUP3 PUSH2 0x3BB7 JUMP JUMPDEST POP POP JUMPDEST POP POP POP JUMP JUMPDEST PUSH1 0x0 DUP3 DUP3 SHR SWAP1 POP SWAP3 SWAP2 POP POP JUMP JUMPDEST PUSH1 0x0 PUSH2 0x3C3E PUSH1 0x0 NOT DUP5 PUSH1 0x8 MUL PUSH2 0x3C20 JUMP JUMPDEST NOT DUP1 DUP4 AND SWAP2 POP POP SWAP3 SWAP2 POP POP JUMP JUMPDEST PUSH1 0x0 PUSH2 0x3C57 DUP4 DUP4 PUSH2 0x3C2D JUMP JUMPDEST SWAP2 POP DUP3 PUSH1 0x2 MUL DUP3 OR SWAP1 POP SWAP3 SWAP2 POP POP JUMP JUMPDEST PUSH2 0x3C71 DUP4 DUP4 PUSH2 0x3A50 JUMP JUMPDEST PUSH8 0xFFFFFFFFFFFFFFFF DUP2 GT ISZERO PUSH2 0x3C8A JUMPI PUSH2 0x3C89 PUSH2 0x3803 JUMP JUMPDEST JUMPDEST PUSH2 0x3C94 DUP3 SLOAD PUSH2 0x3A8A JUMP JUMPDEST PUSH2 0x3C9F DUP3 DUP3 DUP6 PUSH2 0x3BDA JUMP JUMPDEST PUSH1 0x0 PUSH1 0x1F DUP4 GT PUSH1 0x1 DUP2 EQ PUSH2 0x3CCE JUMPI PUSH1 0x0 DUP5 ISZERO PUSH2 0x3CBC JUMPI DUP3 DUP8 ADD CALLDATALOAD SWAP1 POP JUMPDEST PUSH2 0x3CC6 DUP6 DUP3 PUSH2 0x3C4B JUMP JUMPDEST DUP7 SSTORE POP PUSH2 0x3D2E JUMP JUMPDEST PUSH1 0x1F NOT DUP5 AND PUSH2 0x3CDC DUP7 PUSH2 0x3ABB JUMP JUMPDEST PUSH1 0x0 JUMPDEST DUP3 DUP2 LT ISZERO PUSH2 0x3D04 JUMPI DUP5 DUP10 ADD CALLDATALOAD DUP3 SSTORE PUSH1 0x1 DUP3 ADD SWAP2 POP PUSH1 0x20 DUP6 ADD SWAP5 POP PUSH1 0x20 DUP2 ADD SWAP1 POP PUSH2 0x3CDF JUMP JUMPDEST DUP7 DUP4 LT ISZERO PUSH2 0x3D21 JUMPI DUP5 DUP10 ADD CALLDATALOAD PUSH2 0x3D1D PUSH1 0x1F DUP10 AND DUP3 PUSH2 0x3C2D JUMP JUMPDEST DUP4 SSTORE POP JUMPDEST PUSH1 0x1 PUSH1 0x2 DUP9 MUL ADD DUP9 SSTORE POP POP POP JUMPDEST POP POP POP POP POP POP POP JUMP JUMPDEST PUSH32 0x4E6F7420656E6F756768204D6174696320706169640000000000000000000000 PUSH1 0x0 DUP3 ADD MSTORE POP JUMP JUMPDEST PUSH1 0x0 PUSH2 0x3D6D PUSH1 0x15 DUP4 PUSH2 0x3757 JUMP JUMPDEST SWAP2 POP PUSH2 0x3D78 DUP3 PUSH2 0x3D37 JUMP JUMPDEST PUSH1 0x20 DUP3 ADD SWAP1 POP SWAP2 SWAP1 POP JUMP JUMPDEST PUSH1 0x0 PUSH1 0x20 DUP3 ADD SWAP1 POP DUP2 DUP2 SUB PUSH1 0x0 DUP4 ADD MSTORE PUSH2 0x3D9C DUP2 PUSH2 0x3D60 JUMP JUMPDEST SWAP1 POP SWAP2 SWAP1 POP JUMP JUMPDEST PUSH1 0x0 PUSH1 0x40 DUP3 ADD SWAP1 POP DUP2 DUP2 SUB PUSH1 0x0 DUP4 ADD MSTORE PUSH2 0x3DBD DUP2 DUP6 PUSH2 0x37A3 JUMP JUMPDEST SWAP1 POP DUP2 DUP2 SUB PUSH1 0x20 DUP4 ADD MSTORE PUSH2 0x3DD1 DUP2 DUP5 PUSH2 0x37A3 JUMP JUMPDEST SWAP1 POP SWAP4 SWAP3 POP POP POP JUMP JUMPDEST PUSH1 0x0 PUSH1 0x40 DUP3 ADD SWAP1 POP DUP2 DUP2 SUB PUSH1 0x0 DUP4 ADD MSTORE PUSH2 0x3DF4 DUP2 DUP6 PUSH2 0x37A3 JUMP JUMPDEST SWAP1 POP PUSH2 0x3E03 PUSH1 0x20 DUP4 ADD DUP5 PUSH2 0x39A9 JUMP JUMPDEST SWAP4 SWAP3 POP POP POP JUMP JUMPDEST PUSH32 0x4E487B7100000000000000000000000000000000000000000000000000000000 PUSH1 0x0 MSTORE PUSH1 0x32 PUSH1 0x4 MSTORE PUSH1 0x24 PUSH1 0x0 REVERT JUMPDEST PUSH32 0x4E487B7100000000000000000000000000000000000000000000000000000000 PUSH1 0x0 MSTORE PUSH1 0x11 PUSH1 0x4 MSTORE PUSH1 0x24 PUSH1 0x0 REVERT JUMPDEST PUSH1 0x0 PUSH2 0x3E73 DUP3 PUSH2 0x39D3 JUMP JUMPDEST SWAP2 POP PUSH2 0x3E7E DUP4 PUSH2 0x39D3 JUMP JUMPDEST SWAP3 POP DUP3 DUP3 ADD SWAP1 POP DUP1 DUP3 GT ISZERO PUSH2 0x3E96 JUMPI PUSH2 0x3E95 PUSH2 0x3E39 JUMP JUMPDEST JUMPDEST SWAP3 SWAP2 POP POP JUMP JUMPDEST PUSH1 0x0 PUSH2 0x3EA7 DUP3 PUSH2 0x39D3 JUMP JUMPDEST SWAP2 POP PUSH32 0xFFFFFFFFFFFFFFFFFFFFFFFFFFFFFFFFFFFFFFFFFFFFFFFFFFFFFFFFFFFFFFFF DUP3 SUB PUSH2 0x3ED9 JUMPI PUSH2 0x3ED8 PUSH2 0x3E39 JUMP JUMPDEST JUMPDEST PUSH1 0x1 DUP3 ADD SWAP1 POP SWAP2 SWAP1 POP JUMP INVALID LOG2 PUSH5 0x6970667358 0x22 SLT KECCAK256 0xFC SDIV 0xD7 SHL PUSH27 0x543CA8E947D34821D11EEF3E7403FF5CDF6C5259137C5E8C530B26 PUSH5 0x736F6C6343 STOP ADDMOD GT STOP CALLER "},"methodIdentifiers":{"AVAX(string)":"dbc17566","BNB(string)":"f6963f83","BTC(string)":"9a471b99","ETH(string)":"77144abc","Instagram(string)":"545faf06","OpenSea(string)":"1e616113","Other1(string)":"3ab05493","Other2(string)":"dff25073","Other3(string)":"e9654af9","Reddit(string)":"fc89b118","SOL(string)":"22149d79","TRX(string)":"8c56cb7e","Web2Url(string)":"9fb374a4","YouTube(string)":"dcb12e65","domains(string)":"26449235","getAVAX(string)":"a42863a1","getAddress(string)":"bf40fac1","getBNB(string)":"2f9dd1b6","getBTC(string)":"e163942c","getETH(string)":"89318a21","getInstagram(string)":"4441d406","getOpenSea(string)":"90825a20","getOther1(string)":"7ea0db51","getOther2(string)":"510a4087","getOther3(string)":"75c0cd4e","getRecord(string)":"11dd8845","getReddit(string)":"39ef619e","getSOL(string)":"d9888d74","getTRX(string)":"e8a3af95","getTwitter(string)":"53e69abc","getWeb2Url(string)":"5f359b05","getYouTube(string)":"688d8828","price(string)":"fe2c6198","records(string)":"541e771d","register(string)":"f2c298be","setAVAX(string,string)":"f509f674","setBNB(string,string)":"3fc38637","setBTC(string,string)":"11303cd7","setETH(string,string)":"0daf27e2","setInstagram(string,string)":"fc8b560f","setOpenSea(string,string)":"b87a6e98","setOther1(string,string)":"b60debd8","setOther2(string,string)":"5ea36eec","setOther3(string,string)":"14e21f50","setRecord(string,string)":"c1880a98","setReddit(string,string)":"aa587ae5","setSOL(string,string)":"fdd46c38","setTRX(string,string)":"a6525f08","setTwitter(string,string)":"3b6e1c97","setWeb2Url(string,string)":"4d009f3d","setYouTube(string,string)":"f0296f16","tld()":"2d551432","twitter(string)":"92f7424f"}}}}}